Archive member included to satisfy reference by file (symbol)

c:/st/stm32cubeide_1.5.1/stm32cubeide/plugins/com.st.stm32cube.ide.mcu.externaltools.gnu-tools-for-stm32.9-2020-q2-update.win32_1.5.0.202011040924/tools/bin/../lib/gcc/arm-none-eabi/9.3.1/../../../../arm-none-eabi/lib/thumb/v7-m/nofp\libstdc++_nano.a(del_op.o)
                              Core/Inc/CAN_Driver.o (operator delete(void*))
c:/st/stm32cubeide_1.5.1/stm32cubeide/plugins/com.st.stm32cube.ide.mcu.externaltools.gnu-tools-for-stm32.9-2020-q2-update.win32_1.5.0.202011040924/tools/bin/../lib/gcc/arm-none-eabi/9.3.1/../../../../arm-none-eabi/lib/thumb/v7-m/nofp\libstdc++_nano.a(new_op.o)
                              Core/Inc/CAN_Driver.o (operator new(unsigned int))
c:/st/stm32cubeide_1.5.1/stm32cubeide/plugins/com.st.stm32cube.ide.mcu.externaltools.gnu-tools-for-stm32.9-2020-q2-update.win32_1.5.0.202011040924/tools/bin/../lib/gcc/arm-none-eabi/9.3.1/../../../../arm-none-eabi/lib/thumb/v7-m/nofp\libstdc++_nano.a(functexcept.o)
                              Core/Inc/CAN_Driver.o (std::__throw_bad_alloc())
c:/st/stm32cubeide_1.5.1/stm32cubeide/plugins/com.st.stm32cube.ide.mcu.externaltools.gnu-tools-for-stm32.9-2020-q2-update.win32_1.5.0.202011040924/tools/bin/../lib/gcc/arm-none-eabi/9.3.1/../../../../arm-none-eabi/lib/thumb/v7-m/nofp\libstdc++_nano.a(functional.o)
                              Core/Inc/CAN_Driver.o (std::__throw_bad_function_call())
c:/st/stm32cubeide_1.5.1/stm32cubeide/plugins/com.st.stm32cube.ide.mcu.externaltools.gnu-tools-for-stm32.9-2020-q2-update.win32_1.5.0.202011040924/tools/bin/../lib/gcc/arm-none-eabi/9.3.1/../../../../arm-none-eabi/lib/thumb/v7-m/nofp\libstdc++_nano.a(snprintf_lite.o)
                              c:/st/stm32cubeide_1.5.1/stm32cubeide/plugins/com.st.stm32cube.ide.mcu.externaltools.gnu-tools-for-stm32.9-2020-q2-update.win32_1.5.0.202011040924/tools/bin/../lib/gcc/arm-none-eabi/9.3.1/../../../../arm-none-eabi/lib/thumb/v7-m/nofp\libstdc++_nano.a(functexcept.o) (__gnu_cxx::__snprintf_lite(char*, unsigned int, char const*, std::__va_list))
c:/st/stm32cubeide_1.5.1/stm32cubeide/plugins/com.st.stm32cube.ide.mcu.externaltools.gnu-tools-for-stm32.9-2020-q2-update.win32_1.5.0.202011040924/tools/bin/../lib/gcc/arm-none-eabi/9.3.1/../../../../arm-none-eabi/lib/thumb/v7-m/nofp\libstdc++_nano.a(eh_exception.o)
                              c:/st/stm32cubeide_1.5.1/stm32cubeide/plugins/com.st.stm32cube.ide.mcu.externaltools.gnu-tools-for-stm32.9-2020-q2-update.win32_1.5.0.202011040924/tools/bin/../lib/gcc/arm-none-eabi/9.3.1/../../../../arm-none-eabi/lib/thumb/v7-m/nofp\libstdc++_nano.a(functional.o) (std::exception::~exception())
c:/st/stm32cubeide_1.5.1/stm32cubeide/plugins/com.st.stm32cube.ide.mcu.externaltools.gnu-tools-for-stm32.9-2020-q2-update.win32_1.5.0.202011040924/tools/bin/../lib/gcc/arm-none-eabi/9.3.1/../../../../arm-none-eabi/lib/thumb/v7-m/nofp\libstdc++_nano.a(new_handler.o)
                              c:/st/stm32cubeide_1.5.1/stm32cubeide/plugins/com.st.stm32cube.ide.mcu.externaltools.gnu-tools-for-stm32.9-2020-q2-update.win32_1.5.0.202011040924/tools/bin/../lib/gcc/arm-none-eabi/9.3.1/../../../../arm-none-eabi/lib/thumb/v7-m/nofp\libstdc++_nano.a(new_op.o) (std::get_new_handler())
c:/st/stm32cubeide_1.5.1/stm32cubeide/plugins/com.st.stm32cube.ide.mcu.externaltools.gnu-tools-for-stm32.9-2020-q2-update.win32_1.5.0.202011040924/tools/bin/../lib/gcc/arm-none-eabi/9.3.1/../../../../arm-none-eabi/lib/thumb/v7-m/nofp\libstdc++_nano.a(pure.o)
                              c:/st/stm32cubeide_1.5.1/stm32cubeide/plugins/com.st.stm32cube.ide.mcu.externaltools.gnu-tools-for-stm32.9-2020-q2-update.win32_1.5.0.202011040924/tools/bin/../lib/gcc/arm-none-eabi/9.3.1/../../../../arm-none-eabi/lib/thumb/v7-m/nofp\libstdc++_nano.a(eh_exception.o) (__cxa_pure_virtual)
c:/st/stm32cubeide_1.5.1/stm32cubeide/plugins/com.st.stm32cube.ide.mcu.externaltools.gnu-tools-for-stm32.9-2020-q2-update.win32_1.5.0.202011040924/tools/bin/../lib/gcc/arm-none-eabi/9.3.1/../../../../arm-none-eabi/lib/thumb/v7-m/nofp\libstdc++_nano.a(si_class_type_info.o)
                              c:/st/stm32cubeide_1.5.1/stm32cubeide/plugins/com.st.stm32cube.ide.mcu.externaltools.gnu-tools-for-stm32.9-2020-q2-update.win32_1.5.0.202011040924/tools/bin/../lib/gcc/arm-none-eabi/9.3.1/../../../../arm-none-eabi/lib/thumb/v7-m/nofp\libstdc++_nano.a(functional.o) (vtable for __cxxabiv1::__si_class_type_info)
c:/st/stm32cubeide_1.5.1/stm32cubeide/plugins/com.st.stm32cube.ide.mcu.externaltools.gnu-tools-for-stm32.9-2020-q2-update.win32_1.5.0.202011040924/tools/bin/../lib/gcc/arm-none-eabi/9.3.1/../../../../arm-none-eabi/lib/thumb/v7-m/nofp\libstdc++_nano.a(tinfo.o)
                              c:/st/stm32cubeide_1.5.1/stm32cubeide/plugins/com.st.stm32cube.ide.mcu.externaltools.gnu-tools-for-stm32.9-2020-q2-update.win32_1.5.0.202011040924/tools/bin/../lib/gcc/arm-none-eabi/9.3.1/../../../../arm-none-eabi/lib/thumb/v7-m/nofp\libstdc++_nano.a(si_class_type_info.o) (std::type_info::__is_pointer_p() const)
c:/st/stm32cubeide_1.5.1/stm32cubeide/plugins/com.st.stm32cube.ide.mcu.externaltools.gnu-tools-for-stm32.9-2020-q2-update.win32_1.5.0.202011040924/tools/bin/../lib/gcc/arm-none-eabi/9.3.1/../../../../arm-none-eabi/lib/thumb/v7-m/nofp\libstdc++_nano.a(class_type_info.o)
                              c:/st/stm32cubeide_1.5.1/stm32cubeide/plugins/com.st.stm32cube.ide.mcu.externaltools.gnu-tools-for-stm32.9-2020-q2-update.win32_1.5.0.202011040924/tools/bin/../lib/gcc/arm-none-eabi/9.3.1/../../../../arm-none-eabi/lib/thumb/v7-m/nofp\libstdc++_nano.a(si_class_type_info.o) (__cxxabiv1::__class_type_info::__do_upcast(__cxxabiv1::__class_type_info const*, void**) const)
c:/st/stm32cubeide_1.5.1/stm32cubeide/plugins/com.st.stm32cube.ide.mcu.externaltools.gnu-tools-for-stm32.9-2020-q2-update.win32_1.5.0.202011040924/tools/bin/../lib/gcc/arm-none-eabi/9.3.1/../../../../arm-none-eabi/lib/thumb/v7-m/nofp\libstdc++_nano.a(del_ops.o)
                              c:/st/stm32cubeide_1.5.1/stm32cubeide/plugins/com.st.stm32cube.ide.mcu.externaltools.gnu-tools-for-stm32.9-2020-q2-update.win32_1.5.0.202011040924/tools/bin/../lib/gcc/arm-none-eabi/9.3.1/../../../../arm-none-eabi/lib/thumb/v7-m/nofp\libstdc++_nano.a(eh_exception.o) (operator delete(void*, unsigned int))
c:/st/stm32cubeide_1.5.1/stm32cubeide/plugins/com.st.stm32cube.ide.mcu.externaltools.gnu-tools-for-stm32.9-2020-q2-update.win32_1.5.0.202011040924/tools/bin/../lib/gcc/arm-none-eabi/9.3.1/../../../../arm-none-eabi/lib/thumb/v7-m/nofp\libstdc++_nano.a(eh_terminate.o)
                              c:/st/stm32cubeide_1.5.1/stm32cubeide/plugins/com.st.stm32cube.ide.mcu.externaltools.gnu-tools-for-stm32.9-2020-q2-update.win32_1.5.0.202011040924/tools/bin/../lib/gcc/arm-none-eabi/9.3.1/../../../../arm-none-eabi/lib/thumb/v7-m/nofp\libstdc++_nano.a(pure.o) (std::terminate())
c:/st/stm32cubeide_1.5.1/stm32cubeide/plugins/com.st.stm32cube.ide.mcu.externaltools.gnu-tools-for-stm32.9-2020-q2-update.win32_1.5.0.202011040924/tools/bin/../lib/gcc/arm-none-eabi/9.3.1/../../../../arm-none-eabi/lib/thumb/v7-m/nofp\libstdc++_nano.a(eh_unex_handler.o)
                              c:/st/stm32cubeide_1.5.1/stm32cubeide/plugins/com.st.stm32cube.ide.mcu.externaltools.gnu-tools-for-stm32.9-2020-q2-update.win32_1.5.0.202011040924/tools/bin/../lib/gcc/arm-none-eabi/9.3.1/../../../../arm-none-eabi/lib/thumb/v7-m/nofp\libstdc++_nano.a(eh_terminate.o) (__cxxabiv1::__unexpected_handler)
c:/st/stm32cubeide_1.5.1/stm32cubeide/plugins/com.st.stm32cube.ide.mcu.externaltools.gnu-tools-for-stm32.9-2020-q2-update.win32_1.5.0.202011040924/tools/bin/../lib/gcc/arm-none-eabi/9.3.1/../../../../arm-none-eabi/lib/thumb/v7-m/nofp\libstdc++_nano.a(eh_term_handler.o)
                              c:/st/stm32cubeide_1.5.1/stm32cubeide/plugins/com.st.stm32cube.ide.mcu.externaltools.gnu-tools-for-stm32.9-2020-q2-update.win32_1.5.0.202011040924/tools/bin/../lib/gcc/arm-none-eabi/9.3.1/../../../../arm-none-eabi/lib/thumb/v7-m/nofp\libstdc++_nano.a(eh_terminate.o) (__cxxabiv1::__terminate_handler)
c:/st/stm32cubeide_1.5.1/stm32cubeide/plugins/com.st.stm32cube.ide.mcu.externaltools.gnu-tools-for-stm32.9-2020-q2-update.win32_1.5.0.202011040924/tools/bin/../lib/gcc/arm-none-eabi/9.3.1/../../../../arm-none-eabi/lib/thumb/v7-m/nofp\libc_nano.a(lib_a-abort.o)
                              c:/st/stm32cubeide_1.5.1/stm32cubeide/plugins/com.st.stm32cube.ide.mcu.externaltools.gnu-tools-for-stm32.9-2020-q2-update.win32_1.5.0.202011040924/tools/bin/../lib/gcc/arm-none-eabi/9.3.1/../../../../arm-none-eabi/lib/thumb/v7-m/nofp\libstdc++_nano.a(new_op.o) (abort)
c:/st/stm32cubeide_1.5.1/stm32cubeide/plugins/com.st.stm32cube.ide.mcu.externaltools.gnu-tools-for-stm32.9-2020-q2-update.win32_1.5.0.202011040924/tools/bin/../lib/gcc/arm-none-eabi/9.3.1/../../../../arm-none-eabi/lib/thumb/v7-m/nofp\libc_nano.a(lib_a-errno.o)
                              Core/Src/syscalls.o (__errno)
c:/st/stm32cubeide_1.5.1/stm32cubeide/plugins/com.st.stm32cube.ide.mcu.externaltools.gnu-tools-for-stm32.9-2020-q2-update.win32_1.5.0.202011040924/tools/bin/../lib/gcc/arm-none-eabi/9.3.1/../../../../arm-none-eabi/lib/thumb/v7-m/nofp\libc_nano.a(lib_a-exit.o)
                              c:/st/stm32cubeide_1.5.1/stm32cubeide/plugins/com.st.stm32cube.ide.mcu.externaltools.gnu-tools-for-stm32.9-2020-q2-update.win32_1.5.0.202011040924/tools/bin/../lib/gcc/arm-none-eabi/9.3.1/../../../../arm-none-eabi/lib/thumb/v7-m/nofp/crt0.o (exit)
c:/st/stm32cubeide_1.5.1/stm32cubeide/plugins/com.st.stm32cube.ide.mcu.externaltools.gnu-tools-for-stm32.9-2020-q2-update.win32_1.5.0.202011040924/tools/bin/../lib/gcc/arm-none-eabi/9.3.1/../../../../arm-none-eabi/lib/thumb/v7-m/nofp\libc_nano.a(lib_a-impure.o)
                              c:/st/stm32cubeide_1.5.1/stm32cubeide/plugins/com.st.stm32cube.ide.mcu.externaltools.gnu-tools-for-stm32.9-2020-q2-update.win32_1.5.0.202011040924/tools/bin/../lib/gcc/arm-none-eabi/9.3.1/../../../../arm-none-eabi/lib/thumb/v7-m/nofp\libc_nano.a(lib_a-exit.o) (_global_impure_ptr)
c:/st/stm32cubeide_1.5.1/stm32cubeide/plugins/com.st.stm32cube.ide.mcu.externaltools.gnu-tools-for-stm32.9-2020-q2-update.win32_1.5.0.202011040924/tools/bin/../lib/gcc/arm-none-eabi/9.3.1/../../../../arm-none-eabi/lib/thumb/v7-m/nofp\libc_nano.a(lib_a-init.o)
                              c:/st/stm32cubeide_1.5.1/stm32cubeide/plugins/com.st.stm32cube.ide.mcu.externaltools.gnu-tools-for-stm32.9-2020-q2-update.win32_1.5.0.202011040924/tools/bin/../lib/gcc/arm-none-eabi/9.3.1/../../../../arm-none-eabi/lib/thumb/v7-m/nofp/crt0.o (__libc_init_array)
c:/st/stm32cubeide_1.5.1/stm32cubeide/plugins/com.st.stm32cube.ide.mcu.externaltools.gnu-tools-for-stm32.9-2020-q2-update.win32_1.5.0.202011040924/tools/bin/../lib/gcc/arm-none-eabi/9.3.1/../../../../arm-none-eabi/lib/thumb/v7-m/nofp\libc_nano.a(lib_a-malloc.o)
                              c:/st/stm32cubeide_1.5.1/stm32cubeide/plugins/com.st.stm32cube.ide.mcu.externaltools.gnu-tools-for-stm32.9-2020-q2-update.win32_1.5.0.202011040924/tools/bin/../lib/gcc/arm-none-eabi/9.3.1/../../../../arm-none-eabi/lib/thumb/v7-m/nofp\libstdc++_nano.a(new_op.o) (malloc)
c:/st/stm32cubeide_1.5.1/stm32cubeide/plugins/com.st.stm32cube.ide.mcu.externaltools.gnu-tools-for-stm32.9-2020-q2-update.win32_1.5.0.202011040924/tools/bin/../lib/gcc/arm-none-eabi/9.3.1/../../../../arm-none-eabi/lib/thumb/v7-m/nofp\libc_nano.a(lib_a-memcpy-stub.o)
                              c:/st/stm32cubeide_1.5.1/stm32cubeide/plugins/com.st.stm32cube.ide.mcu.externaltools.gnu-tools-for-stm32.9-2020-q2-update.win32_1.5.0.202011040924/tools/bin/../lib/gcc/arm-none-eabi/9.3.1/../../../../arm-none-eabi/lib/thumb/v7-m/nofp\libstdc++_nano.a(snprintf_lite.o) (memcpy)
c:/st/stm32cubeide_1.5.1/stm32cubeide/plugins/com.st.stm32cube.ide.mcu.externaltools.gnu-tools-for-stm32.9-2020-q2-update.win32_1.5.0.202011040924/tools/bin/../lib/gcc/arm-none-eabi/9.3.1/../../../../arm-none-eabi/lib/thumb/v7-m/nofp\libc_nano.a(lib_a-memmove.o)
                              Core/Inc/Message.o (memmove)
c:/st/stm32cubeide_1.5.1/stm32cubeide/plugins/com.st.stm32cube.ide.mcu.externaltools.gnu-tools-for-stm32.9-2020-q2-update.win32_1.5.0.202011040924/tools/bin/../lib/gcc/arm-none-eabi/9.3.1/../../../../arm-none-eabi/lib/thumb/v7-m/nofp\libc_nano.a(lib_a-memset.o)
                              c:/st/stm32cubeide_1.5.1/stm32cubeide/plugins/com.st.stm32cube.ide.mcu.externaltools.gnu-tools-for-stm32.9-2020-q2-update.win32_1.5.0.202011040924/tools/bin/../lib/gcc/arm-none-eabi/9.3.1/../../../../arm-none-eabi/lib/thumb/v7-m/nofp/crt0.o (memset)
c:/st/stm32cubeide_1.5.1/stm32cubeide/plugins/com.st.stm32cube.ide.mcu.externaltools.gnu-tools-for-stm32.9-2020-q2-update.win32_1.5.0.202011040924/tools/bin/../lib/gcc/arm-none-eabi/9.3.1/../../../../arm-none-eabi/lib/thumb/v7-m/nofp\libc_nano.a(lib_a-nano-freer.o)
                              c:/st/stm32cubeide_1.5.1/stm32cubeide/plugins/com.st.stm32cube.ide.mcu.externaltools.gnu-tools-for-stm32.9-2020-q2-update.win32_1.5.0.202011040924/tools/bin/../lib/gcc/arm-none-eabi/9.3.1/../../../../arm-none-eabi/lib/thumb/v7-m/nofp\libc_nano.a(lib_a-malloc.o) (_free_r)
c:/st/stm32cubeide_1.5.1/stm32cubeide/plugins/com.st.stm32cube.ide.mcu.externaltools.gnu-tools-for-stm32.9-2020-q2-update.win32_1.5.0.202011040924/tools/bin/../lib/gcc/arm-none-eabi/9.3.1/../../../../arm-none-eabi/lib/thumb/v7-m/nofp\libc_nano.a(lib_a-nano-mallocr.o)
                              c:/st/stm32cubeide_1.5.1/stm32cubeide/plugins/com.st.stm32cube.ide.mcu.externaltools.gnu-tools-for-stm32.9-2020-q2-update.win32_1.5.0.202011040924/tools/bin/../lib/gcc/arm-none-eabi/9.3.1/../../../../arm-none-eabi/lib/thumb/v7-m/nofp\libc_nano.a(lib_a-malloc.o) (_malloc_r)
c:/st/stm32cubeide_1.5.1/stm32cubeide/plugins/com.st.stm32cube.ide.mcu.externaltools.gnu-tools-for-stm32.9-2020-q2-update.win32_1.5.0.202011040924/tools/bin/../lib/gcc/arm-none-eabi/9.3.1/../../../../arm-none-eabi/lib/thumb/v7-m/nofp\libc_nano.a(lib_a-sbrkr.o)
                              c:/st/stm32cubeide_1.5.1/stm32cubeide/plugins/com.st.stm32cube.ide.mcu.externaltools.gnu-tools-for-stm32.9-2020-q2-update.win32_1.5.0.202011040924/tools/bin/../lib/gcc/arm-none-eabi/9.3.1/../../../../arm-none-eabi/lib/thumb/v7-m/nofp\libc_nano.a(lib_a-nano-mallocr.o) (_sbrk_r)
c:/st/stm32cubeide_1.5.1/stm32cubeide/plugins/com.st.stm32cube.ide.mcu.externaltools.gnu-tools-for-stm32.9-2020-q2-update.win32_1.5.0.202011040924/tools/bin/../lib/gcc/arm-none-eabi/9.3.1/../../../../arm-none-eabi/lib/thumb/v7-m/nofp\libc_nano.a(lib_a-signal.o)
                              c:/st/stm32cubeide_1.5.1/stm32cubeide/plugins/com.st.stm32cube.ide.mcu.externaltools.gnu-tools-for-stm32.9-2020-q2-update.win32_1.5.0.202011040924/tools/bin/../lib/gcc/arm-none-eabi/9.3.1/../../../../arm-none-eabi/lib/thumb/v7-m/nofp\libc_nano.a(lib_a-abort.o) (raise)
c:/st/stm32cubeide_1.5.1/stm32cubeide/plugins/com.st.stm32cube.ide.mcu.externaltools.gnu-tools-for-stm32.9-2020-q2-update.win32_1.5.0.202011040924/tools/bin/../lib/gcc/arm-none-eabi/9.3.1/../../../../arm-none-eabi/lib/thumb/v7-m/nofp\libc_nano.a(lib_a-signalr.o)
                              c:/st/stm32cubeide_1.5.1/stm32cubeide/plugins/com.st.stm32cube.ide.mcu.externaltools.gnu-tools-for-stm32.9-2020-q2-update.win32_1.5.0.202011040924/tools/bin/../lib/gcc/arm-none-eabi/9.3.1/../../../../arm-none-eabi/lib/thumb/v7-m/nofp\libc_nano.a(lib_a-signal.o) (_kill_r)
c:/st/stm32cubeide_1.5.1/stm32cubeide/plugins/com.st.stm32cube.ide.mcu.externaltools.gnu-tools-for-stm32.9-2020-q2-update.win32_1.5.0.202011040924/tools/bin/../lib/gcc/arm-none-eabi/9.3.1/../../../../arm-none-eabi/lib/thumb/v7-m/nofp\libc_nano.a(lib_a-strcmp.o)
                              c:/st/stm32cubeide_1.5.1/stm32cubeide/plugins/com.st.stm32cube.ide.mcu.externaltools.gnu-tools-for-stm32.9-2020-q2-update.win32_1.5.0.202011040924/tools/bin/../lib/gcc/arm-none-eabi/9.3.1/../../../../arm-none-eabi/lib/thumb/v7-m/nofp\libstdc++_nano.a(tinfo.o) (strcmp)
c:/st/stm32cubeide_1.5.1/stm32cubeide/plugins/com.st.stm32cube.ide.mcu.externaltools.gnu-tools-for-stm32.9-2020-q2-update.win32_1.5.0.202011040924/tools/bin/../lib/gcc/arm-none-eabi/9.3.1/../../../../arm-none-eabi/lib/thumb/v7-m/nofp\libc_nano.a(lib_a-strlen.o)
                              c:/st/stm32cubeide_1.5.1/stm32cubeide/plugins/com.st.stm32cube.ide.mcu.externaltools.gnu-tools-for-stm32.9-2020-q2-update.win32_1.5.0.202011040924/tools/bin/../lib/gcc/arm-none-eabi/9.3.1/../../../../arm-none-eabi/lib/thumb/v7-m/nofp\libstdc++_nano.a(functexcept.o) (strlen)
c:/st/stm32cubeide_1.5.1/stm32cubeide/plugins/com.st.stm32cube.ide.mcu.externaltools.gnu-tools-for-stm32.9-2020-q2-update.win32_1.5.0.202011040924/tools/bin/../lib/gcc/arm-none-eabi/9.3.1/../../../../arm-none-eabi/lib/thumb/v7-m/nofp\libc_nano.a(lib_a-mlock.o)
                              c:/st/stm32cubeide_1.5.1/stm32cubeide/plugins/com.st.stm32cube.ide.mcu.externaltools.gnu-tools-for-stm32.9-2020-q2-update.win32_1.5.0.202011040924/tools/bin/../lib/gcc/arm-none-eabi/9.3.1/../../../../arm-none-eabi/lib/thumb/v7-m/nofp\libc_nano.a(lib_a-nano-freer.o) (__malloc_lock)
c:/st/stm32cubeide_1.5.1/stm32cubeide/plugins/com.st.stm32cube.ide.mcu.externaltools.gnu-tools-for-stm32.9-2020-q2-update.win32_1.5.0.202011040924/tools/bin/../lib/gcc/arm-none-eabi/9.3.1/../../../../arm-none-eabi/lib/thumb/v7-m/nofp\libc_nano.a(lib_a-reent.o)
                              c:/st/stm32cubeide_1.5.1/stm32cubeide/plugins/com.st.stm32cube.ide.mcu.externaltools.gnu-tools-for-stm32.9-2020-q2-update.win32_1.5.0.202011040924/tools/bin/../lib/gcc/arm-none-eabi/9.3.1/../../../../arm-none-eabi/lib/thumb/v7-m/nofp\libc_nano.a(lib_a-sbrkr.o) (errno)
c:/st/stm32cubeide_1.5.1/stm32cubeide/plugins/com.st.stm32cube.ide.mcu.externaltools.gnu-tools-for-stm32.9-2020-q2-update.win32_1.5.0.202011040924/tools/bin/../lib/gcc/arm-none-eabi/9.3.1/../../../../arm-none-eabi/lib/thumb/v7-m/nofp\libc_nano.a(lib_a-lock.o)
                              c:/st/stm32cubeide_1.5.1/stm32cubeide/plugins/com.st.stm32cube.ide.mcu.externaltools.gnu-tools-for-stm32.9-2020-q2-update.win32_1.5.0.202011040924/tools/bin/../lib/gcc/arm-none-eabi/9.3.1/../../../../arm-none-eabi/lib/thumb/v7-m/nofp\libc_nano.a(lib_a-mlock.o) (__retarget_lock_acquire_recursive)

Allocating common symbols
Common symbol       size              file

__lock___atexit_recursive_mutex
                    0x1               c:/st/stm32cubeide_1.5.1/stm32cubeide/plugins/com.st.stm32cube.ide.mcu.externaltools.gnu-tools-for-stm32.9-2020-q2-update.win32_1.5.0.202011040924/tools/bin/../lib/gcc/arm-none-eabi/9.3.1/../../../../arm-none-eabi/lib/thumb/v7-m/nofp\libc_nano.a(lib_a-lock.o)
__lock___arc4random_mutex
                    0x1               c:/st/stm32cubeide_1.5.1/stm32cubeide/plugins/com.st.stm32cube.ide.mcu.externaltools.gnu-tools-for-stm32.9-2020-q2-update.win32_1.5.0.202011040924/tools/bin/../lib/gcc/arm-none-eabi/9.3.1/../../../../arm-none-eabi/lib/thumb/v7-m/nofp\libc_nano.a(lib_a-lock.o)
errno               0x4               c:/st/stm32cubeide_1.5.1/stm32cubeide/plugins/com.st.stm32cube.ide.mcu.externaltools.gnu-tools-for-stm32.9-2020-q2-update.win32_1.5.0.202011040924/tools/bin/../lib/gcc/arm-none-eabi/9.3.1/../../../../arm-none-eabi/lib/thumb/v7-m/nofp\libc_nano.a(lib_a-reent.o)
hcan                0x28              Core/Src/can.o
uwTick              0x4               Drivers/STM32F1xx_HAL_Driver/Src/stm32f1xx_hal.o
pFlash              0x20              Drivers/STM32F1xx_HAL_Driver/Src/stm32f1xx_hal_flash.o
__lock___env_recursive_mutex
                    0x1               c:/st/stm32cubeide_1.5.1/stm32cubeide/plugins/com.st.stm32cube.ide.mcu.externaltools.gnu-tools-for-stm32.9-2020-q2-update.win32_1.5.0.202011040924/tools/bin/../lib/gcc/arm-none-eabi/9.3.1/../../../../arm-none-eabi/lib/thumb/v7-m/nofp\libc_nano.a(lib_a-lock.o)
__lock___sinit_recursive_mutex
                    0x1               c:/st/stm32cubeide_1.5.1/stm32cubeide/plugins/com.st.stm32cube.ide.mcu.externaltools.gnu-tools-for-stm32.9-2020-q2-update.win32_1.5.0.202011040924/tools/bin/../lib/gcc/arm-none-eabi/9.3.1/../../../../arm-none-eabi/lib/thumb/v7-m/nofp\libc_nano.a(lib_a-lock.o)
__lock___malloc_recursive_mutex
                    0x1               c:/st/stm32cubeide_1.5.1/stm32cubeide/plugins/com.st.stm32cube.ide.mcu.externaltools.gnu-tools-for-stm32.9-2020-q2-update.win32_1.5.0.202011040924/tools/bin/../lib/gcc/arm-none-eabi/9.3.1/../../../../arm-none-eabi/lib/thumb/v7-m/nofp\libc_nano.a(lib_a-lock.o)
__lock___at_quick_exit_mutex
                    0x1               c:/st/stm32cubeide_1.5.1/stm32cubeide/plugins/com.st.stm32cube.ide.mcu.externaltools.gnu-tools-for-stm32.9-2020-q2-update.win32_1.5.0.202011040924/tools/bin/../lib/gcc/arm-none-eabi/9.3.1/../../../../arm-none-eabi/lib/thumb/v7-m/nofp\libc_nano.a(lib_a-lock.o)
__lock___dd_hash_mutex
                    0x1               c:/st/stm32cubeide_1.5.1/stm32cubeide/plugins/com.st.stm32cube.ide.mcu.externaltools.gnu-tools-for-stm32.9-2020-q2-update.win32_1.5.0.202011040924/tools/bin/../lib/gcc/arm-none-eabi/9.3.1/../../../../arm-none-eabi/lib/thumb/v7-m/nofp\libc_nano.a(lib_a-lock.o)
__lock___tz_mutex   0x1               c:/st/stm32cubeide_1.5.1/stm32cubeide/plugins/com.st.stm32cube.ide.mcu.externaltools.gnu-tools-for-stm32.9-2020-q2-update.win32_1.5.0.202011040924/tools/bin/../lib/gcc/arm-none-eabi/9.3.1/../../../../arm-none-eabi/lib/thumb/v7-m/nofp\libc_nano.a(lib_a-lock.o)
__lock___sfp_recursive_mutex
                    0x1               c:/st/stm32cubeide_1.5.1/stm32cubeide/plugins/com.st.stm32cube.ide.mcu.externaltools.gnu-tools-for-stm32.9-2020-q2-update.win32_1.5.0.202011040924/tools/bin/../lib/gcc/arm-none-eabi/9.3.1/../../../../arm-none-eabi/lib/thumb/v7-m/nofp\libc_nano.a(lib_a-lock.o)

Discarded input sections

 .text          0x0000000000000000        0x0 c:/st/stm32cubeide_1.5.1/stm32cubeide/plugins/com.st.stm32cube.ide.mcu.externaltools.gnu-tools-for-stm32.9-2020-q2-update.win32_1.5.0.202011040924/tools/bin/../lib/gcc/arm-none-eabi/9.3.1/thumb/v7-m/nofp/crti.o
 .data          0x0000000000000000        0x0 c:/st/stm32cubeide_1.5.1/stm32cubeide/plugins/com.st.stm32cube.ide.mcu.externaltools.gnu-tools-for-stm32.9-2020-q2-update.win32_1.5.0.202011040924/tools/bin/../lib/gcc/arm-none-eabi/9.3.1/thumb/v7-m/nofp/crti.o
 .bss           0x0000000000000000        0x0 c:/st/stm32cubeide_1.5.1/stm32cubeide/plugins/com.st.stm32cube.ide.mcu.externaltools.gnu-tools-for-stm32.9-2020-q2-update.win32_1.5.0.202011040924/tools/bin/../lib/gcc/arm-none-eabi/9.3.1/thumb/v7-m/nofp/crti.o
 .data          0x0000000000000000        0x4 c:/st/stm32cubeide_1.5.1/stm32cubeide/plugins/com.st.stm32cube.ide.mcu.externaltools.gnu-tools-for-stm32.9-2020-q2-update.win32_1.5.0.202011040924/tools/bin/../lib/gcc/arm-none-eabi/9.3.1/thumb/v7-m/nofp/crtbegin.o
 .text          0x0000000000000000       0x7c c:/st/stm32cubeide_1.5.1/stm32cubeide/plugins/com.st.stm32cube.ide.mcu.externaltools.gnu-tools-for-stm32.9-2020-q2-update.win32_1.5.0.202011040924/tools/bin/../lib/gcc/arm-none-eabi/9.3.1/../../../../arm-none-eabi/lib/thumb/v7-m/nofp/crt0.o
 .data          0x0000000000000000        0x0 c:/st/stm32cubeide_1.5.1/stm32cubeide/plugins/com.st.stm32cube.ide.mcu.externaltools.gnu-tools-for-stm32.9-2020-q2-update.win32_1.5.0.202011040924/tools/bin/../lib/gcc/arm-none-eabi/9.3.1/../../../../arm-none-eabi/lib/thumb/v7-m/nofp/crt0.o
 .bss           0x0000000000000000        0x0 c:/st/stm32cubeide_1.5.1/stm32cubeide/plugins/com.st.stm32cube.ide.mcu.externaltools.gnu-tools-for-stm32.9-2020-q2-update.win32_1.5.0.202011040924/tools/bin/../lib/gcc/arm-none-eabi/9.3.1/../../../../arm-none-eabi/lib/thumb/v7-m/nofp/crt0.o
 .ARM.extab     0x0000000000000000        0x0 c:/st/stm32cubeide_1.5.1/stm32cubeide/plugins/com.st.stm32cube.ide.mcu.externaltools.gnu-tools-for-stm32.9-2020-q2-update.win32_1.5.0.202011040924/tools/bin/../lib/gcc/arm-none-eabi/9.3.1/../../../../arm-none-eabi/lib/thumb/v7-m/nofp/crt0.o
 .ARM.exidx     0x0000000000000000       0x10 c:/st/stm32cubeide_1.5.1/stm32cubeide/plugins/com.st.stm32cube.ide.mcu.externaltools.gnu-tools-for-stm32.9-2020-q2-update.win32_1.5.0.202011040924/tools/bin/../lib/gcc/arm-none-eabi/9.3.1/../../../../arm-none-eabi/lib/thumb/v7-m/nofp/crt0.o
 .ARM.attributes
                0x0000000000000000       0x1b c:/st/stm32cubeide_1.5.1/stm32cubeide/plugins/com.st.stm32cube.ide.mcu.externaltools.gnu-tools-for-stm32.9-2020-q2-update.win32_1.5.0.202011040924/tools/bin/../lib/gcc/arm-none-eabi/9.3.1/../../../../arm-none-eabi/lib/thumb/v7-m/nofp/crt0.o
 .group         0x0000000000000000        0x8 Core/Inc/CAN_Driver.o
 .group         0x0000000000000000        0x8 Core/Inc/CAN_Driver.o
 .group         0x0000000000000000        0x8 Core/Inc/CAN_Driver.o
 .group         0x0000000000000000        0x8 Core/Inc/CAN_Driver.o
 .group         0x0000000000000000        0x8 Core/Inc/CAN_Driver.o
 .group         0x0000000000000000        0xc Core/Inc/CAN_Driver.o
 .group         0x0000000000000000        0xc Core/Inc/CAN_Driver.o
Memory Configuration

Name             Origin             Length             Attributes
RAM              0x0000000020000000 0x0000000000005000 xrw
FLASH            0x0000000008000000 0x0000000000020000 xr
*default*        0x0000000000000000 0xffffffffffffffff

Linker script and memory map

LOAD c:/st/stm32cubeide_1.5.1/stm32cubeide/plugins/com.st.stm32cube.ide.mcu.externaltools.gnu-tools-for-stm32.9-2020-q2-update.win32_1.5.0.202011040924/tools/bin/../lib/gcc/arm-none-eabi/9.3.1/thumb/v7-m/nofp/crti.o
LOAD c:/st/stm32cubeide_1.5.1/stm32cubeide/plugins/com.st.stm32cube.ide.mcu.externaltools.gnu-tools-for-stm32.9-2020-q2-update.win32_1.5.0.202011040924/tools/bin/../lib/gcc/arm-none-eabi/9.3.1/thumb/v7-m/nofp/crtbegin.o
LOAD c:/st/stm32cubeide_1.5.1/stm32cubeide/plugins/com.st.stm32cube.ide.mcu.externaltools.gnu-tools-for-stm32.9-2020-q2-update.win32_1.5.0.202011040924/tools/bin/../lib/gcc/arm-none-eabi/9.3.1/../../../../arm-none-eabi/lib/thumb/v7-m/nofp/crt0.o
LOAD Core/Inc/CAN_Driver.o
LOAD Core/Inc/CzujnikTwojejStarej.o
LOAD Core/Inc/Header.o
LOAD Core/Inc/Master.o
LOAD Core/Inc/Message.o
LOAD Core/Inc/Slave.o
LOAD Core/Src/can.o
LOAD Core/Src/gpio.o
LOAD Core/Src/main.o
LOAD Core/Src/stm32f1xx_hal_msp.o
LOAD Core/Src/stm32f1xx_it.o
LOAD Core/Src/syscalls.o
LOAD Core/Src/sysmem.o
LOAD Core/Src/system_stm32f1xx.o
LOAD Core/Src/usart.o
LOAD Core/Startup/startup_stm32f103rbtx.o
LOAD Drivers/STM32F1xx_HAL_Driver/Src/stm32f1xx_hal.o
LOAD Drivers/STM32F1xx_HAL_Driver/Src/stm32f1xx_hal_can.o
LOAD Drivers/STM32F1xx_HAL_Driver/Src/stm32f1xx_hal_cortex.o
LOAD Drivers/STM32F1xx_HAL_Driver/Src/stm32f1xx_hal_dma.o
LOAD Drivers/STM32F1xx_HAL_Driver/Src/stm32f1xx_hal_exti.o
LOAD Drivers/STM32F1xx_HAL_Driver/Src/stm32f1xx_hal_flash.o
LOAD Drivers/STM32F1xx_HAL_Driver/Src/stm32f1xx_hal_flash_ex.o
LOAD Drivers/STM32F1xx_HAL_Driver/Src/stm32f1xx_hal_gpio.o
LOAD Drivers/STM32F1xx_HAL_Driver/Src/stm32f1xx_hal_gpio_ex.o
LOAD Drivers/STM32F1xx_HAL_Driver/Src/stm32f1xx_hal_pwr.o
LOAD Drivers/STM32F1xx_HAL_Driver/Src/stm32f1xx_hal_rcc.o
LOAD Drivers/STM32F1xx_HAL_Driver/Src/stm32f1xx_hal_rcc_ex.o
LOAD Drivers/STM32F1xx_HAL_Driver/Src/stm32f1xx_hal_tim.o
LOAD Drivers/STM32F1xx_HAL_Driver/Src/stm32f1xx_hal_tim_ex.o
LOAD Drivers/STM32F1xx_HAL_Driver/Src/stm32f1xx_ll_dma.o
LOAD Drivers/STM32F1xx_HAL_Driver/Src/stm32f1xx_ll_exti.o
LOAD Drivers/STM32F1xx_HAL_Driver/Src/stm32f1xx_ll_gpio.o
LOAD Drivers/STM32F1xx_HAL_Driver/Src/stm32f1xx_ll_rcc.o
LOAD Drivers/STM32F1xx_HAL_Driver/Src/stm32f1xx_ll_usart.o
LOAD Drivers/STM32F1xx_HAL_Driver/Src/stm32f1xx_ll_utils.o
START GROUP
LOAD c:/st/stm32cubeide_1.5.1/stm32cubeide/plugins/com.st.stm32cube.ide.mcu.externaltools.gnu-tools-for-stm32.9-2020-q2-update.win32_1.5.0.202011040924/tools/bin/../lib/gcc/arm-none-eabi/9.3.1/../../../../arm-none-eabi/lib/thumb/v7-m/nofp\libstdc++_nano.a
LOAD c:/st/stm32cubeide_1.5.1/stm32cubeide/plugins/com.st.stm32cube.ide.mcu.externaltools.gnu-tools-for-stm32.9-2020-q2-update.win32_1.5.0.202011040924/tools/bin/../lib/gcc/arm-none-eabi/9.3.1/../../../../arm-none-eabi/lib/thumb/v7-m/nofp\libsupc++_nano.a
END GROUP
LOAD c:/st/stm32cubeide_1.5.1/stm32cubeide/plugins/com.st.stm32cube.ide.mcu.externaltools.gnu-tools-for-stm32.9-2020-q2-update.win32_1.5.0.202011040924/tools/bin/../lib/gcc/arm-none-eabi/9.3.1/../../../../arm-none-eabi/lib/thumb/v7-m/nofp\libstdc++_nano.a
LOAD c:/st/stm32cubeide_1.5.1/stm32cubeide/plugins/com.st.stm32cube.ide.mcu.externaltools.gnu-tools-for-stm32.9-2020-q2-update.win32_1.5.0.202011040924/tools/bin/../lib/gcc/arm-none-eabi/9.3.1/../../../../arm-none-eabi/lib/thumb/v7-m/nofp\libm.a
LOAD c:/st/stm32cubeide_1.5.1/stm32cubeide/plugins/com.st.stm32cube.ide.mcu.externaltools.gnu-tools-for-stm32.9-2020-q2-update.win32_1.5.0.202011040924/tools/bin/../lib/gcc/arm-none-eabi/9.3.1/../../../../arm-none-eabi/lib/thumb/v7-m/nofp\libc_nano.a
START GROUP
LOAD c:/st/stm32cubeide_1.5.1/stm32cubeide/plugins/com.st.stm32cube.ide.mcu.externaltools.gnu-tools-for-stm32.9-2020-q2-update.win32_1.5.0.202011040924/tools/bin/../lib/gcc/arm-none-eabi/9.3.1/thumb/v7-m/nofp\libgcc.a
LOAD c:/st/stm32cubeide_1.5.1/stm32cubeide/plugins/com.st.stm32cube.ide.mcu.externaltools.gnu-tools-for-stm32.9-2020-q2-update.win32_1.5.0.202011040924/tools/bin/../lib/gcc/arm-none-eabi/9.3.1/../../../../arm-none-eabi/lib/thumb/v7-m/nofp\libc_nano.a
END GROUP
START GROUP
LOAD c:/st/stm32cubeide_1.5.1/stm32cubeide/plugins/com.st.stm32cube.ide.mcu.externaltools.gnu-tools-for-stm32.9-2020-q2-update.win32_1.5.0.202011040924/tools/bin/../lib/gcc/arm-none-eabi/9.3.1/thumb/v7-m/nofp\libgcc.a
LOAD c:/st/stm32cubeide_1.5.1/stm32cubeide/plugins/com.st.stm32cube.ide.mcu.externaltools.gnu-tools-for-stm32.9-2020-q2-update.win32_1.5.0.202011040924/tools/bin/../lib/gcc/arm-none-eabi/9.3.1/../../../../arm-none-eabi/lib/thumb/v7-m/nofp\libc_nano.a
LOAD c:/st/stm32cubeide_1.5.1/stm32cubeide/plugins/com.st.stm32cube.ide.mcu.externaltools.gnu-tools-for-stm32.9-2020-q2-update.win32_1.5.0.202011040924/tools/bin/../lib/gcc/arm-none-eabi/9.3.1/../../../../arm-none-eabi/lib/thumb/v7-m/nofp\libnosys.a
END GROUP
START GROUP
LOAD c:/st/stm32cubeide_1.5.1/stm32cubeide/plugins/com.st.stm32cube.ide.mcu.externaltools.gnu-tools-for-stm32.9-2020-q2-update.win32_1.5.0.202011040924/tools/bin/../lib/gcc/arm-none-eabi/9.3.1/thumb/v7-m/nofp\libgcc.a
LOAD c:/st/stm32cubeide_1.5.1/stm32cubeide/plugins/com.st.stm32cube.ide.mcu.externaltools.gnu-tools-for-stm32.9-2020-q2-update.win32_1.5.0.202011040924/tools/bin/../lib/gcc/arm-none-eabi/9.3.1/../../../../arm-none-eabi/lib/thumb/v7-m/nofp\libc_nano.a
LOAD c:/st/stm32cubeide_1.5.1/stm32cubeide/plugins/com.st.stm32cube.ide.mcu.externaltools.gnu-tools-for-stm32.9-2020-q2-update.win32_1.5.0.202011040924/tools/bin/../lib/gcc/arm-none-eabi/9.3.1/../../../../arm-none-eabi/lib/thumb/v7-m/nofp\libnosys.a
END GROUP
LOAD c:/st/stm32cubeide_1.5.1/stm32cubeide/plugins/com.st.stm32cube.ide.mcu.externaltools.gnu-tools-for-stm32.9-2020-q2-update.win32_1.5.0.202011040924/tools/bin/../lib/gcc/arm-none-eabi/9.3.1/thumb/v7-m/nofp/crtend.o
LOAD c:/st/stm32cubeide_1.5.1/stm32cubeide/plugins/com.st.stm32cube.ide.mcu.externaltools.gnu-tools-for-stm32.9-2020-q2-update.win32_1.5.0.202011040924/tools/bin/../lib/gcc/arm-none-eabi/9.3.1/thumb/v7-m/nofp/crtn.o
                0x0000000020005000                _estack = (ORIGIN (RAM) + LENGTH (RAM))
                0x0000000000000200                _Min_Heap_Size = 0x200
                0x0000000000000400                _Min_Stack_Size = 0x400

.isr_vector     0x0000000008000000      0x10c
                0x0000000008000000                . = ALIGN (0x4)
 *(.isr_vector)
 .isr_vector    0x0000000008000000      0x10c Core/Startup/startup_stm32f103rbtx.o
                0x0000000008000000                g_pfnVectors
                0x000000000800010c                . = ALIGN (0x4)

.text           0x000000000800010c     0x6b88
                0x000000000800010c                . = ALIGN (0x4)
 *(.text)
 .text          0x000000000800010c       0x40 c:/st/stm32cubeide_1.5.1/stm32cubeide/plugins/com.st.stm32cube.ide.mcu.externaltools.gnu-tools-for-stm32.9-2020-q2-update.win32_1.5.0.202011040924/tools/bin/../lib/gcc/arm-none-eabi/9.3.1/thumb/v7-m/nofp/crtbegin.o
 *(.text*)
 .text._ZnwjPv  0x000000000800014c       0x16 Core/Inc/CAN_Driver.o
                0x000000000800014c                operator new(unsigned int, void*)
 .text._ZNSt12_Base_bitsetILj1EEC2Ey
                0x0000000008000162       0x1e Core/Inc/CAN_Driver.o
                0x0000000008000162                std::_Base_bitset<1u>::_Base_bitset(unsigned long long)
                0x0000000008000162                std::_Base_bitset<1u>::_Base_bitset(unsigned long long)
 .text._ZNSt14_Function_baseC2Ev
                0x0000000008000180       0x1a Core/Inc/CAN_Driver.o
                0x0000000008000180                std::_Function_base::_Function_base()
                0x0000000008000180                std::_Function_base::_Function_base()
 .text._ZNSt14_Function_baseD2Ev
                0x000000000800019a       0x26 Core/Inc/CAN_Driver.o
                0x000000000800019a                std::_Function_base::~_Function_base()
                0x000000000800019a                std::_Function_base::~_Function_base()
 .text._ZNKSt14_Function_base8_M_emptyEv
                0x00000000080001c0       0x20 Core/Inc/CAN_Driver.o
                0x00000000080001c0                std::_Function_base::_M_empty() const
 .text._ZN7RoboCAN6Master5beginEv
                0x00000000080001e0       0x1a Core/Inc/CAN_Driver.o
                0x00000000080001e0                RoboCAN::Master::begin()
 .text._ZN7RoboCAN6Master3endEv
                0x00000000080001fa       0x1a Core/Inc/CAN_Driver.o
                0x00000000080001fa                RoboCAN::Master::end()
 .text._ZN7RoboCAN7MessageD2Ev
                0x0000000008000214       0x1c Core/Inc/CAN_Driver.o
                0x0000000008000214                RoboCAN::Message::~Message()
                0x0000000008000214                RoboCAN::Message::~Message()
 .text._ZNSt12_Vector_baseIhSaIhEE12_Vector_implD2Ev
                0x0000000008000230       0x18 Core/Inc/CAN_Driver.o
                0x0000000008000230                std::_Vector_base<unsigned char, std::allocator<unsigned char> >::_Vector_impl::~_Vector_impl()
                0x0000000008000230                std::_Vector_base<unsigned char, std::allocator<unsigned char> >::_Vector_impl::~_Vector_impl()
 .text._ZN7RoboCAN10getMessageEj
                0x0000000008000248       0x64 Core/Inc/CAN_Driver.o
                0x0000000008000248                RoboCAN::getMessage(unsigned int)
 .text._ZN7RoboCAN18messageToHalHeaderERKNS_7MessageE
                0x00000000080002ac       0x48 Core/Inc/CAN_Driver.o
                0x00000000080002ac                RoboCAN::messageToHalHeader(RoboCAN::Message const&)
 .text._ZN7RoboCAN18filterSettingSlaveEj
                0x00000000080002f4       0x58 Core/Inc/CAN_Driver.o
                0x00000000080002f4                RoboCAN::filterSettingSlave(unsigned int)
 .text._ZN7RoboCAN19filterSettingMasterEjj
                0x000000000800034c       0x58 Core/Inc/CAN_Driver.o
                0x000000000800034c                RoboCAN::filterSettingMaster(unsigned int, unsigned int)
 .text._ZN7RoboCAN11sendMessageERKNS_7MessageE
                0x00000000080003a4       0x40 Core/Inc/CAN_Driver.o
                0x00000000080003a4                RoboCAN::sendMessage(RoboCAN::Message const&)
 .text._ZSt3minIjERKT_S2_S2_
                0x00000000080003e4       0x26 Core/Inc/CAN_Driver.o
                0x00000000080003e4                unsigned int const& std::min<unsigned int>(unsigned int const&, unsigned int const&)
 *fill*         0x000000000800040a        0x2 
 .text._ZN7RoboCAN8sendDataEPvjRKNS_7MessageE
                0x000000000800040c       0xa8 Core/Inc/CAN_Driver.o
                0x000000000800040c                RoboCAN::sendData(void*, unsigned int, RoboCAN::Message const&)
 .text._ZN7RoboCAN5SlaveC2ERKS0_
                0x00000000080004b4       0x28 Core/Inc/CAN_Driver.o
                0x00000000080004b4                RoboCAN::Slave::Slave(RoboCAN::Slave const&)
                0x00000000080004b4                RoboCAN::Slave::Slave(RoboCAN::Slave const&)
 .text._ZN7RoboCAN5SlaveD2Ev
                0x00000000080004dc       0x1a Core/Inc/CAN_Driver.o
                0x00000000080004dc                RoboCAN::Slave::~Slave()
                0x00000000080004dc                RoboCAN::Slave::~Slave()
 *fill*         0x00000000080004f6        0x2 
 .text._ZN7RoboCAN26USB_LP_CAN1_RX0_IRQHandlerEv
                0x00000000080004f8       0xd8 Core/Inc/CAN_Driver.o
                0x00000000080004f8                RoboCAN::USB_LP_CAN1_RX0_IRQHandler()
 .text._ZNSt8functionIFvRN7RoboCAN7MessageEEED2Ev
                0x00000000080005d0       0x1a Core/Inc/CAN_Driver.o
                0x00000000080005d0                std::function<void (RoboCAN::Message&)>::~function()
                0x00000000080005d0                std::function<void (RoboCAN::Message&)>::~function()
 .text._ZN7RoboCAN4PortC2ERKS0_
                0x00000000080005ea       0x28 Core/Inc/CAN_Driver.o
                0x00000000080005ea                RoboCAN::Port::Port(RoboCAN::Port const&)
                0x00000000080005ea                RoboCAN::Port::Port(RoboCAN::Port const&)
 .text._ZN7RoboCAN4PortD2Ev
                0x0000000008000612       0x1a Core/Inc/CAN_Driver.o
                0x0000000008000612                RoboCAN::Port::~Port()
                0x0000000008000612                RoboCAN::Port::~Port()
 .text._ZN7RoboCAN19CAN1_RX1_IRQHandlerEv
                0x000000000800062c       0xbc Core/Inc/CAN_Driver.o
                0x000000000800062c                RoboCAN::CAN1_RX1_IRQHandler()
 .text._ZN7RoboCAN19NoSuchSlaveId_ErrorEv
                0x00000000080006e8        0xc Core/Inc/CAN_Driver.o
                0x00000000080006e8                RoboCAN::NoSuchSlaveId_Error()
 .text.USB_LP_CAN1_RX0_IRQHandler
                0x00000000080006f4        0xc Core/Inc/CAN_Driver.o
                0x00000000080006f4                USB_LP_CAN1_RX0_IRQHandler
 .text.CAN1_RX1_IRQHandler
                0x0000000008000700        0xc Core/Inc/CAN_Driver.o
                0x0000000008000700                CAN1_RX1_IRQHandler
 .text._ZNSt6vectorIN7RoboCAN4PortESaIS1_EE5beginEv
                0x000000000800070c       0x20 Core/Inc/CAN_Driver.o
                0x000000000800070c                std::vector<RoboCAN::Port, std::allocator<RoboCAN::Port> >::begin()
 .text._ZNSt6vectorIN7RoboCAN4PortESaIS1_EE3endEv
                0x000000000800072c       0x22 Core/Inc/CAN_Driver.o
                0x000000000800072c                std::vector<RoboCAN::Port, std::allocator<RoboCAN::Port> >::end()
 .text._ZNSt6bitsetILj32EEC2Ey
                0x000000000800074e       0x2a Core/Inc/CAN_Driver.o
                0x000000000800074e                std::bitset<32u>::bitset(unsigned long long)
                0x000000000800074e                std::bitset<32u>::bitset(unsigned long long)
 .text._ZNSt6vectorIhSaIhEED2Ev
                0x0000000008000778       0x36 Core/Inc/CAN_Driver.o
                0x0000000008000778                std::vector<unsigned char, std::allocator<unsigned char> >::~vector()
                0x0000000008000778                std::vector<unsigned char, std::allocator<unsigned char> >::~vector()
 .text._ZNSaIhED2Ev
                0x00000000080007ae       0x18 Core/Inc/CAN_Driver.o
                0x00000000080007ae                std::allocator<unsigned char>::~allocator()
                0x00000000080007ae                std::allocator<unsigned char>::~allocator()
 .text._ZNSt12_Vector_baseIhSaIhEED2Ev
                0x00000000080007c6       0x30 Core/Inc/CAN_Driver.o
                0x00000000080007c6                std::_Vector_base<unsigned char, std::allocator<unsigned char> >::~_Vector_base()
                0x00000000080007c6                std::_Vector_base<unsigned char, std::allocator<unsigned char> >::~_Vector_base()
 .text._ZNKSt6vectorIhSaIhEE4sizeEv
                0x00000000080007f6       0x1c Core/Inc/CAN_Driver.o
                0x00000000080007f6                std::vector<unsigned char, std::allocator<unsigned char> >::size() const
 .text._ZNKSt6vectorIN7RoboCAN5SlaveESaIS1_EE4sizeEv
                0x0000000008000812       0x1e Core/Inc/CAN_Driver.o
                0x0000000008000812                std::vector<RoboCAN::Slave, std::allocator<RoboCAN::Slave> >::size() const
 .text._ZNKSt6vectorIhSaIhEE4dataEv
                0x0000000008000830       0x1e Core/Inc/CAN_Driver.o
                0x0000000008000830                std::vector<unsigned char, std::allocator<unsigned char> >::data() const
 .text._ZNSt6vectorIN7RoboCAN5SlaveESaIS1_EE5beginEv
                0x000000000800084e       0x20 Core/Inc/CAN_Driver.o
                0x000000000800084e                std::vector<RoboCAN::Slave, std::allocator<RoboCAN::Slave> >::begin()
 .text._ZNSt6vectorIN7RoboCAN5SlaveESaIS1_EE3endEv
                0x000000000800086e       0x22 Core/Inc/CAN_Driver.o
                0x000000000800086e                std::vector<RoboCAN::Slave, std::allocator<RoboCAN::Slave> >::end()
 .text._ZN9__gnu_cxxneIPN7RoboCAN5SlaveESt6vectorIS2_SaIS2_EEEEbRKNS_17__normal_iteratorIT_T0_EESC_
                0x0000000008000890       0x30 Core/Inc/CAN_Driver.o
                0x0000000008000890                bool __gnu_cxx::operator!=<RoboCAN::Slave*, std::vector<RoboCAN::Slave, std::allocator<RoboCAN::Slave> > >(__gnu_cxx::__normal_iterator<RoboCAN::Slave*, std::vector<RoboCAN::Slave, std::allocator<RoboCAN::Slave> > > const&, __gnu_cxx::__normal_iterator<RoboCAN::Slave*, std::vector<RoboCAN::Slave, std::allocator<RoboCAN::Slave> > > const&)
 .text._ZN9__gnu_cxx17__normal_iteratorIPN7RoboCAN5SlaveESt6vectorIS2_SaIS2_EEEppEv
                0x00000000080008c0       0x20 Core/Inc/CAN_Driver.o
                0x00000000080008c0                __gnu_cxx::__normal_iterator<RoboCAN::Slave*, std::vector<RoboCAN::Slave, std::allocator<RoboCAN::Slave> > >::operator++()
 .text._ZNK9__gnu_cxx17__normal_iteratorIPN7RoboCAN5SlaveESt6vectorIS2_SaIS2_EEEdeEv
                0x00000000080008e0       0x16 Core/Inc/CAN_Driver.o
                0x00000000080008e0                __gnu_cxx::__normal_iterator<RoboCAN::Slave*, std::vector<RoboCAN::Slave, std::allocator<RoboCAN::Slave> > >::operator*() const
 .text._ZNSt6vectorISt8functionIFvRN7RoboCAN7MessageEEESaIS5_EEC2ERKS7_
                0x00000000080008f6       0x7a Core/Inc/CAN_Driver.o
                0x00000000080008f6                std::vector<std::function<void (RoboCAN::Message&)>, std::allocator<std::function<void (RoboCAN::Message&)> > >::vector(std::vector<std::function<void (RoboCAN::Message&)>, std::allocator<std::function<void (RoboCAN::Message&)> > > const&)
                0x00000000080008f6                std::vector<std::function<void (RoboCAN::Message&)>, std::allocator<std::function<void (RoboCAN::Message&)> > >::vector(std::vector<std::function<void (RoboCAN::Message&)>, std::allocator<std::function<void (RoboCAN::Message&)> > > const&)
 .text._ZNSt6vectorISt8functionIFvRN7RoboCAN7MessageEEESaIS5_EED2Ev
                0x0000000008000970       0x36 Core/Inc/CAN_Driver.o
                0x0000000008000970                std::vector<std::function<void (RoboCAN::Message&)>, std::allocator<std::function<void (RoboCAN::Message&)> > >::~vector()
                0x0000000008000970                std::vector<std::function<void (RoboCAN::Message&)>, std::allocator<std::function<void (RoboCAN::Message&)> > >::~vector()
 .text._ZNSt6vectorISt8functionIFvRN7RoboCAN7MessageEEESaIS5_EEixEj
                0x00000000080009a6       0x1e Core/Inc/CAN_Driver.o
                0x00000000080009a6                std::vector<std::function<void (RoboCAN::Message&)>, std::allocator<std::function<void (RoboCAN::Message&)> > >::operator[](unsigned int)
 .text._ZNKSt8functionIFvRN7RoboCAN7MessageEEEclES2_
                0x00000000080009c4       0x38 Core/Inc/CAN_Driver.o
                0x00000000080009c4                std::function<void (RoboCAN::Message&)>::operator()(RoboCAN::Message&) const
 .text._ZN9__gnu_cxxneIPN7RoboCAN4PortESt6vectorIS2_SaIS2_EEEEbRKNS_17__normal_iteratorIT_T0_EESC_
                0x00000000080009fc       0x30 Core/Inc/CAN_Driver.o
                0x00000000080009fc                bool __gnu_cxx::operator!=<RoboCAN::Port*, std::vector<RoboCAN::Port, std::allocator<RoboCAN::Port> > >(__gnu_cxx::__normal_iterator<RoboCAN::Port*, std::vector<RoboCAN::Port, std::allocator<RoboCAN::Port> > > const&, __gnu_cxx::__normal_iterator<RoboCAN::Port*, std::vector<RoboCAN::Port, std::allocator<RoboCAN::Port> > > const&)
 .text._ZN9__gnu_cxx17__normal_iteratorIPN7RoboCAN4PortESt6vectorIS2_SaIS2_EEEppEv
                0x0000000008000a2c       0x20 Core/Inc/CAN_Driver.o
                0x0000000008000a2c                __gnu_cxx::__normal_iterator<RoboCAN::Port*, std::vector<RoboCAN::Port, std::allocator<RoboCAN::Port> > >::operator++()
 .text._ZNK9__gnu_cxx17__normal_iteratorIPN7RoboCAN4PortESt6vectorIS2_SaIS2_EEEdeEv
                0x0000000008000a4c       0x16 Core/Inc/CAN_Driver.o
                0x0000000008000a4c                __gnu_cxx::__normal_iterator<RoboCAN::Port*, std::vector<RoboCAN::Port, std::allocator<RoboCAN::Port> > >::operator*() const
 .text._ZNSt8functionIFvRN7RoboCAN7MessageEEEC2ERKS4_
                0x0000000008000a62       0x44 Core/Inc/CAN_Driver.o
                0x0000000008000a62                std::function<void (RoboCAN::Message&)>::function(std::function<void (RoboCAN::Message&)> const&)
                0x0000000008000a62                std::function<void (RoboCAN::Message&)>::function(std::function<void (RoboCAN::Message&)> const&)
 .text._ZN9__gnu_cxx17__normal_iteratorIPN7RoboCAN4PortESt6vectorIS2_SaIS2_EEEC2ERKS3_
                0x0000000008000aa6       0x1e Core/Inc/CAN_Driver.o
                0x0000000008000aa6                __gnu_cxx::__normal_iterator<RoboCAN::Port*, std::vector<RoboCAN::Port, std::allocator<RoboCAN::Port> > >::__normal_iterator(RoboCAN::Port* const&)
                0x0000000008000aa6                __gnu_cxx::__normal_iterator<RoboCAN::Port*, std::vector<RoboCAN::Port, std::allocator<RoboCAN::Port> > >::__normal_iterator(RoboCAN::Port* const&)
 .text._ZNSt13_Sanitize_valILj32ELb1EE18_S_do_sanitize_valEy
                0x0000000008000ac4       0x2e Core/Inc/CAN_Driver.o
                0x0000000008000ac4                std::_Sanitize_val<32u, true>::_S_do_sanitize_val(unsigned long long)
 .text._ZNSt12_Vector_baseIhSaIhEE19_M_get_Tp_allocatorEv
                0x0000000008000af2       0x14 Core/Inc/CAN_Driver.o
                0x0000000008000af2                std::_Vector_base<unsigned char, std::allocator<unsigned char> >::_M_get_Tp_allocator()
 .text._ZSt8_DestroyIPhhEvT_S1_RSaIT0_E
                0x0000000008000b06       0x1c Core/Inc/CAN_Driver.o
                0x0000000008000b06                void std::_Destroy<unsigned char*, unsigned char>(unsigned char*, unsigned char*, std::allocator<unsigned char>&)
 .text._ZN9__gnu_cxx13new_allocatorIhED2Ev
                0x0000000008000b22       0x14 Core/Inc/CAN_Driver.o
                0x0000000008000b22                __gnu_cxx::new_allocator<unsigned char>::~new_allocator()
                0x0000000008000b22                __gnu_cxx::new_allocator<unsigned char>::~new_allocator()
 .text._ZNSt12_Vector_baseIhSaIhEE13_M_deallocateEPhj
                0x0000000008000b36       0x26 Core/Inc/CAN_Driver.o
                0x0000000008000b36                std::_Vector_base<unsigned char, std::allocator<unsigned char> >::_M_deallocate(unsigned char*, unsigned int)
 .text._ZNKSt6vectorIhSaIhEE11_M_data_ptrIhEEPT_S4_
                0x0000000008000b5c       0x16 Core/Inc/CAN_Driver.o
                0x0000000008000b5c                unsigned char* std::vector<unsigned char, std::allocator<unsigned char> >::_M_data_ptr<unsigned char>(unsigned char*) const
 .text._ZN9__gnu_cxx17__normal_iteratorIPN7RoboCAN5SlaveESt6vectorIS2_SaIS2_EEEC2ERKS3_
                0x0000000008000b72       0x1e Core/Inc/CAN_Driver.o
                0x0000000008000b72                __gnu_cxx::__normal_iterator<RoboCAN::Slave*, std::vector<RoboCAN::Slave, std::allocator<RoboCAN::Slave> > >::__normal_iterator(RoboCAN::Slave* const&)
                0x0000000008000b72                __gnu_cxx::__normal_iterator<RoboCAN::Slave*, std::vector<RoboCAN::Slave, std::allocator<RoboCAN::Slave> > >::__normal_iterator(RoboCAN::Slave* const&)
 .text._ZNK9__gnu_cxx17__normal_iteratorIPN7RoboCAN5SlaveESt6vectorIS2_SaIS2_EEE4baseEv
                0x0000000008000b90       0x14 Core/Inc/CAN_Driver.o
                0x0000000008000b90                __gnu_cxx::__normal_iterator<RoboCAN::Slave*, std::vector<RoboCAN::Slave, std::allocator<RoboCAN::Slave> > >::base() const
 .text._ZNKSt6vectorISt8functionIFvRN7RoboCAN7MessageEEESaIS5_EE4sizeEv
                0x0000000008000ba4       0x1e Core/Inc/CAN_Driver.o
                0x0000000008000ba4                std::vector<std::function<void (RoboCAN::Message&)>, std::allocator<std::function<void (RoboCAN::Message&)> > >::size() const
 .text._ZN9__gnu_cxx14__alloc_traitsISaISt8functionIFvRN7RoboCAN7MessageEEEES6_E17_S_select_on_copyERKS7_
                0x0000000008000bc2       0x1c Core/Inc/CAN_Driver.o
                0x0000000008000bc2                __gnu_cxx::__alloc_traits<std::allocator<std::function<void (RoboCAN::Message&)> >, std::function<void (RoboCAN::Message&)> >::_S_select_on_copy(std::allocator<std::function<void (RoboCAN::Message&)> > const&)
 .text._ZNKSt12_Vector_baseISt8functionIFvRN7RoboCAN7MessageEEESaIS5_EE19_M_get_Tp_allocatorEv
                0x0000000008000bde       0x14 Core/Inc/CAN_Driver.o
                0x0000000008000bde                std::_Vector_base<std::function<void (RoboCAN::Message&)>, std::allocator<std::function<void (RoboCAN::Message&)> > >::_M_get_Tp_allocator() const
 .text._ZNSaISt8functionIFvRN7RoboCAN7MessageEEEED2Ev
                0x0000000008000bf2       0x18 Core/Inc/CAN_Driver.o
                0x0000000008000bf2                std::allocator<std::function<void (RoboCAN::Message&)> >::~allocator()
                0x0000000008000bf2                std::allocator<std::function<void (RoboCAN::Message&)> >::~allocator()
 .text._ZNSt12_Vector_baseISt8functionIFvRN7RoboCAN7MessageEEESaIS5_EE12_Vector_implD2Ev
                0x0000000008000c0a       0x18 Core/Inc/CAN_Driver.o
                0x0000000008000c0a                std::_Vector_base<std::function<void (RoboCAN::Message&)>, std::allocator<std::function<void (RoboCAN::Message&)> > >::_Vector_impl::~_Vector_impl()
                0x0000000008000c0a                std::_Vector_base<std::function<void (RoboCAN::Message&)>, std::allocator<std::function<void (RoboCAN::Message&)> > >::_Vector_impl::~_Vector_impl()
 .text._ZNSt12_Vector_baseISt8functionIFvRN7RoboCAN7MessageEEESaIS5_EEC2EjRKS6_
                0x0000000008000c22       0x28 Core/Inc/CAN_Driver.o
                0x0000000008000c22                std::_Vector_base<std::function<void (RoboCAN::Message&)>, std::allocator<std::function<void (RoboCAN::Message&)> > >::_Vector_base(unsigned int, std::allocator<std::function<void (RoboCAN::Message&)> > const&)
                0x0000000008000c22                std::_Vector_base<std::function<void (RoboCAN::Message&)>, std::allocator<std::function<void (RoboCAN::Message&)> > >::_Vector_base(unsigned int, std::allocator<std::function<void (RoboCAN::Message&)> > const&)
 .text._ZNSt12_Vector_baseISt8functionIFvRN7RoboCAN7MessageEEESaIS5_EED2Ev
                0x0000000008000c4a       0x32 Core/Inc/CAN_Driver.o
                0x0000000008000c4a                std::_Vector_base<std::function<void (RoboCAN::Message&)>, std::allocator<std::function<void (RoboCAN::Message&)> > >::~_Vector_base()
                0x0000000008000c4a                std::_Vector_base<std::function<void (RoboCAN::Message&)>, std::allocator<std::function<void (RoboCAN::Message&)> > >::~_Vector_base()
 .text._ZNKSt6vectorISt8functionIFvRN7RoboCAN7MessageEEESaIS5_EE5beginEv
                0x0000000008000c7c       0x28 Core/Inc/CAN_Driver.o
                0x0000000008000c7c                std::vector<std::function<void (RoboCAN::Message&)>, std::allocator<std::function<void (RoboCAN::Message&)> > >::begin() const
 .text._ZNKSt6vectorISt8functionIFvRN7RoboCAN7MessageEEESaIS5_EE3endEv
                0x0000000008000ca4       0x28 Core/Inc/CAN_Driver.o
                0x0000000008000ca4                std::vector<std::function<void (RoboCAN::Message&)>, std::allocator<std::function<void (RoboCAN::Message&)> > >::end() const
 .text._ZNSt12_Vector_baseISt8functionIFvRN7RoboCAN7MessageEEESaIS5_EE19_M_get_Tp_allocatorEv
                0x0000000008000ccc       0x14 Core/Inc/CAN_Driver.o
                0x0000000008000ccc                std::_Vector_base<std::function<void (RoboCAN::Message&)>, std::allocator<std::function<void (RoboCAN::Message&)> > >::_M_get_Tp_allocator()
 .text._ZSt22__uninitialized_copy_aIN9__gnu_cxx17__normal_iteratorIPKSt8functionIFvRN7RoboCAN7MessageEEESt6vectorIS7_SaIS7_EEEEPS7_S7_ET0_T_SG_SF_RSaIT1_E
                0x0000000008000ce0       0x22 Core/Inc/CAN_Driver.o
                0x0000000008000ce0                std::function<void (RoboCAN::Message&)>* std::__uninitialized_copy_a<__gnu_cxx::__normal_iterator<std::function<void (RoboCAN::Message&)> const*, std::vector<std::function<void (RoboCAN::Message&)>, std::allocator<std::function<void (RoboCAN::Message&)> > > >, std::function<void (RoboCAN::Message&)>*, std::function<void (RoboCAN::Message&)> >(__gnu_cxx::__normal_iterator<std::function<void (RoboCAN::Message&)> const*, std::vector<std::function<void (RoboCAN::Message&)>, std::allocator<std::function<void (RoboCAN::Message&)> > > >, __gnu_cxx::__normal_iterator<std::function<void (RoboCAN::Message&)> const*, std::vector<std::function<void (RoboCAN::Message&)>, std::allocator<std::function<void (RoboCAN::Message&)> > > >, std::function<void (RoboCAN::Message&)>*, std::allocator<std::function<void (RoboCAN::Message&)> >&)
 .text._ZSt8_DestroyIPSt8functionIFvRN7RoboCAN7MessageEEES5_EvT_S7_RSaIT0_E
                0x0000000008000d02       0x1c Core/Inc/CAN_Driver.o
                0x0000000008000d02                void std::_Destroy<std::function<void (RoboCAN::Message&)>*, std::function<void (RoboCAN::Message&)> >(std::function<void (RoboCAN::Message&)>*, std::function<void (RoboCAN::Message&)>*, std::allocator<std::function<void (RoboCAN::Message&)> >&)
 .text._ZSt7forwardIRN7RoboCAN7MessageEEOT_RNSt16remove_referenceIS3_E4typeE
                0x0000000008000d1e       0x14 Core/Inc/CAN_Driver.o
                0x0000000008000d1e                RoboCAN::Message& std::forward<RoboCAN::Message&>(std::remove_reference<RoboCAN::Message&>::type&)
 .text._ZNK9__gnu_cxx17__normal_iteratorIPN7RoboCAN4PortESt6vectorIS2_SaIS2_EEE4baseEv
                0x0000000008000d32       0x14 Core/Inc/CAN_Driver.o
                0x0000000008000d32                __gnu_cxx::__normal_iterator<RoboCAN::Port*, std::vector<RoboCAN::Port, std::allocator<RoboCAN::Port> > >::base() const
 .text._ZNKSt8functionIFvRN7RoboCAN7MessageEEEcvbEv
                0x0000000008000d46       0x20 Core/Inc/CAN_Driver.o
                0x0000000008000d46                std::function<void (RoboCAN::Message&)>::operator bool() const
 .text._ZSt8_DestroyIPhEvT_S1_
                0x0000000008000d66       0x1a Core/Inc/CAN_Driver.o
                0x0000000008000d66                void std::_Destroy<unsigned char*>(unsigned char*, unsigned char*)
 .text._ZNSt16allocator_traitsISaIhEE10deallocateERS0_Phj
                0x0000000008000d80       0x1e Core/Inc/CAN_Driver.o
                0x0000000008000d80                std::allocator_traits<std::allocator<unsigned char> >::deallocate(std::allocator<unsigned char>&, unsigned char*, unsigned int)
 .text._ZNSt16allocator_traitsISaISt8functionIFvRN7RoboCAN7MessageEEEEE37select_on_container_copy_constructionERKS6_
                0x0000000008000d9e       0x1a Core/Inc/CAN_Driver.o
                0x0000000008000d9e                std::allocator_traits<std::allocator<std::function<void (RoboCAN::Message&)> > >::select_on_container_copy_construction(std::allocator<std::function<void (RoboCAN::Message&)> > const&)
 .text._ZNSaISt8functionIFvRN7RoboCAN7MessageEEEEC2ERKS5_
                0x0000000008000db8       0x1c Core/Inc/CAN_Driver.o
                0x0000000008000db8                std::allocator<std::function<void (RoboCAN::Message&)> >::allocator(std::allocator<std::function<void (RoboCAN::Message&)> > const&)
                0x0000000008000db8                std::allocator<std::function<void (RoboCAN::Message&)> >::allocator(std::allocator<std::function<void (RoboCAN::Message&)> > const&)
 .text._ZN9__gnu_cxx13new_allocatorISt8functionIFvRN7RoboCAN7MessageEEEED2Ev
                0x0000000008000dd4       0x14 Core/Inc/CAN_Driver.o
                0x0000000008000dd4                __gnu_cxx::new_allocator<std::function<void (RoboCAN::Message&)> >::~new_allocator()
                0x0000000008000dd4                __gnu_cxx::new_allocator<std::function<void (RoboCAN::Message&)> >::~new_allocator()
 .text._ZNSt12_Vector_baseISt8functionIFvRN7RoboCAN7MessageEEESaIS5_EE12_Vector_implC2ERKS6_
                0x0000000008000de8       0x24 Core/Inc/CAN_Driver.o
                0x0000000008000de8                std::_Vector_base<std::function<void (RoboCAN::Message&)>, std::allocator<std::function<void (RoboCAN::Message&)> > >::_Vector_impl::_Vector_impl(std::allocator<std::function<void (RoboCAN::Message&)> > const&)
                0x0000000008000de8                std::_Vector_base<std::function<void (RoboCAN::Message&)>, std::allocator<std::function<void (RoboCAN::Message&)> > >::_Vector_impl::_Vector_impl(std::allocator<std::function<void (RoboCAN::Message&)> > const&)
 .text._ZNSt12_Vector_baseISt8functionIFvRN7RoboCAN7MessageEEESaIS5_EE17_M_create_storageEj
                0x0000000008000e0c       0x36 Core/Inc/CAN_Driver.o
                0x0000000008000e0c                std::_Vector_base<std::function<void (RoboCAN::Message&)>, std::allocator<std::function<void (RoboCAN::Message&)> > >::_M_create_storage(unsigned int)
 .text._ZNSt12_Vector_baseISt8functionIFvRN7RoboCAN7MessageEEESaIS5_EE13_M_deallocateEPS5_j
                0x0000000008000e42       0x26 Core/Inc/CAN_Driver.o
                0x0000000008000e42                std::_Vector_base<std::function<void (RoboCAN::Message&)>, std::allocator<std::function<void (RoboCAN::Message&)> > >::_M_deallocate(std::function<void (RoboCAN::Message&)>*, unsigned int)
 .text._ZN9__gnu_cxx17__normal_iteratorIPKSt8functionIFvRN7RoboCAN7MessageEEESt6vectorIS6_SaIS6_EEEC2ERKS8_
                0x0000000008000e68       0x1e Core/Inc/CAN_Driver.o
                0x0000000008000e68                __gnu_cxx::__normal_iterator<std::function<void (RoboCAN::Message&)> const*, std::vector<std::function<void (RoboCAN::Message&)>, std::allocator<std::function<void (RoboCAN::Message&)> > > >::__normal_iterator(std::function<void (RoboCAN::Message&)> const* const&)
                0x0000000008000e68                __gnu_cxx::__normal_iterator<std::function<void (RoboCAN::Message&)> const*, std::vector<std::function<void (RoboCAN::Message&)>, std::allocator<std::function<void (RoboCAN::Message&)> > > >::__normal_iterator(std::function<void (RoboCAN::Message&)> const* const&)
 .text._ZSt18uninitialized_copyIN9__gnu_cxx17__normal_iteratorIPKSt8functionIFvRN7RoboCAN7MessageEEESt6vectorIS7_SaIS7_EEEEPS7_ET0_T_SG_SF_
                0x0000000008000e86       0x24 Core/Inc/CAN_Driver.o
                0x0000000008000e86                std::function<void (RoboCAN::Message&)>* std::uninitialized_copy<__gnu_cxx::__normal_iterator<std::function<void (RoboCAN::Message&)> const*, std::vector<std::function<void (RoboCAN::Message&)>, std::allocator<std::function<void (RoboCAN::Message&)> > > >, std::function<void (RoboCAN::Message&)>*>(__gnu_cxx::__normal_iterator<std::function<void (RoboCAN::Message&)> const*, std::vector<std::function<void (RoboCAN::Message&)>, std::allocator<std::function<void (RoboCAN::Message&)> > > >, __gnu_cxx::__normal_iterator<std::function<void (RoboCAN::Message&)> const*, std::vector<std::function<void (RoboCAN::Message&)>, std::allocator<std::function<void (RoboCAN::Message&)> > > >, std::function<void (RoboCAN::Message&)>*)
 .text._ZSt8_DestroyIPSt8functionIFvRN7RoboCAN7MessageEEEEvT_S7_
                0x0000000008000eaa       0x1a Core/Inc/CAN_Driver.o
                0x0000000008000eaa                void std::_Destroy<std::function<void (RoboCAN::Message&)>*>(std::function<void (RoboCAN::Message&)>*, std::function<void (RoboCAN::Message&)>*)
 .text._ZNSt12_Destroy_auxILb1EE9__destroyIPhEEvT_S3_
                0x0000000008000ec4       0x14 Core/Inc/CAN_Driver.o
                0x0000000008000ec4                void std::_Destroy_aux<true>::__destroy<unsigned char*>(unsigned char*, unsigned char*)
 .text._ZN9__gnu_cxx13new_allocatorIhE10deallocateEPhj
                0x0000000008000ed8       0x1a Core/Inc/CAN_Driver.o
                0x0000000008000ed8                __gnu_cxx::new_allocator<unsigned char>::deallocate(unsigned char*, unsigned int)
 .text._ZN9__gnu_cxx13new_allocatorISt8functionIFvRN7RoboCAN7MessageEEEEC2ERKS7_
                0x0000000008000ef2       0x16 Core/Inc/CAN_Driver.o
                0x0000000008000ef2                __gnu_cxx::new_allocator<std::function<void (RoboCAN::Message&)> >::new_allocator(__gnu_cxx::new_allocator<std::function<void (RoboCAN::Message&)> > const&)
                0x0000000008000ef2                __gnu_cxx::new_allocator<std::function<void (RoboCAN::Message&)> >::new_allocator(__gnu_cxx::new_allocator<std::function<void (RoboCAN::Message&)> > const&)
 .text._ZNSt12_Vector_baseISt8functionIFvRN7RoboCAN7MessageEEESaIS5_EE17_Vector_impl_dataC2Ev
                0x0000000008000f08       0x26 Core/Inc/CAN_Driver.o
                0x0000000008000f08                std::_Vector_base<std::function<void (RoboCAN::Message&)>, std::allocator<std::function<void (RoboCAN::Message&)> > >::_Vector_impl_data::_Vector_impl_data()
                0x0000000008000f08                std::_Vector_base<std::function<void (RoboCAN::Message&)>, std::allocator<std::function<void (RoboCAN::Message&)> > >::_Vector_impl_data::_Vector_impl_data()
 .text._ZNSt12_Vector_baseISt8functionIFvRN7RoboCAN7MessageEEESaIS5_EE11_M_allocateEj
                0x0000000008000f2e       0x28 Core/Inc/CAN_Driver.o
                0x0000000008000f2e                std::_Vector_base<std::function<void (RoboCAN::Message&)>, std::allocator<std::function<void (RoboCAN::Message&)> > >::_M_allocate(unsigned int)
 .text._ZNSt16allocator_traitsISaISt8functionIFvRN7RoboCAN7MessageEEEEE10deallocateERS6_PS5_j
                0x0000000008000f56       0x1e Core/Inc/CAN_Driver.o
                0x0000000008000f56                std::allocator_traits<std::allocator<std::function<void (RoboCAN::Message&)> > >::deallocate(std::allocator<std::function<void (RoboCAN::Message&)> >&, std::function<void (RoboCAN::Message&)>*, unsigned int)
 .text._ZNSt20__uninitialized_copyILb0EE13__uninit_copyIN9__gnu_cxx17__normal_iteratorIPKSt8functionIFvRN7RoboCAN7MessageEEESt6vectorIS9_SaIS9_EEEEPS9_EET0_T_SI_SH_
                0x0000000008000f74       0x5e Core/Inc/CAN_Driver.o
                0x0000000008000f74                std::function<void (RoboCAN::Message&)>* std::__uninitialized_copy<false>::__uninit_copy<__gnu_cxx::__normal_iterator<std::function<void (RoboCAN::Message&)> const*, std::vector<std::function<void (RoboCAN::Message&)>, std::allocator<std::function<void (RoboCAN::Message&)> > > >, std::function<void (RoboCAN::Message&)>*>(__gnu_cxx::__normal_iterator<std::function<void (RoboCAN::Message&)> const*, std::vector<std::function<void (RoboCAN::Message&)>, std::allocator<std::function<void (RoboCAN::Message&)> > > >, __gnu_cxx::__normal_iterator<std::function<void (RoboCAN::Message&)> const*, std::vector<std::function<void (RoboCAN::Message&)>, std::allocator<std::function<void (RoboCAN::Message&)> > > >, std::function<void (RoboCAN::Message&)>*)
 .text._ZNSt12_Destroy_auxILb0EE9__destroyIPSt8functionIFvRN7RoboCAN7MessageEEEEEvT_S9_
                0x0000000008000fd2       0x30 Core/Inc/CAN_Driver.o
                0x0000000008000fd2                void std::_Destroy_aux<false>::__destroy<std::function<void (RoboCAN::Message&)>*>(std::function<void (RoboCAN::Message&)>*, std::function<void (RoboCAN::Message&)>*)
 .text._ZNSt16allocator_traitsISaISt8functionIFvRN7RoboCAN7MessageEEEEE8allocateERS6_j
                0x0000000008001002       0x1e Core/Inc/CAN_Driver.o
                0x0000000008001002                std::allocator_traits<std::allocator<std::function<void (RoboCAN::Message&)> > >::allocate(std::allocator<std::function<void (RoboCAN::Message&)> >&, unsigned int)
 .text._ZN9__gnu_cxx13new_allocatorISt8functionIFvRN7RoboCAN7MessageEEEE10deallocateEPS6_j
                0x0000000008001020       0x1a Core/Inc/CAN_Driver.o
                0x0000000008001020                __gnu_cxx::new_allocator<std::function<void (RoboCAN::Message&)> >::deallocate(std::function<void (RoboCAN::Message&)>*, unsigned int)
 .text._ZN9__gnu_cxxneIPKSt8functionIFvRN7RoboCAN7MessageEEESt6vectorIS6_SaIS6_EEEEbRKNS_17__normal_iteratorIT_T0_EESH_
                0x000000000800103a       0x30 Core/Inc/CAN_Driver.o
                0x000000000800103a                bool __gnu_cxx::operator!=<std::function<void (RoboCAN::Message&)> const*, std::vector<std::function<void (RoboCAN::Message&)>, std::allocator<std::function<void (RoboCAN::Message&)> > > >(__gnu_cxx::__normal_iterator<std::function<void (RoboCAN::Message&)> const*, std::vector<std::function<void (RoboCAN::Message&)>, std::allocator<std::function<void (RoboCAN::Message&)> > > > const&, __gnu_cxx::__normal_iterator<std::function<void (RoboCAN::Message&)> const*, std::vector<std::function<void (RoboCAN::Message&)>, std::allocator<std::function<void (RoboCAN::Message&)> > > > const&)
 .text._ZN9__gnu_cxx17__normal_iteratorIPKSt8functionIFvRN7RoboCAN7MessageEEESt6vectorIS6_SaIS6_EEEppEv
                0x000000000800106a       0x20 Core/Inc/CAN_Driver.o
                0x000000000800106a                __gnu_cxx::__normal_iterator<std::function<void (RoboCAN::Message&)> const*, std::vector<std::function<void (RoboCAN::Message&)>, std::allocator<std::function<void (RoboCAN::Message&)> > > >::operator++()
 .text._ZSt11__addressofISt8functionIFvRN7RoboCAN7MessageEEEEPT_RS6_
                0x000000000800108a       0x14 Core/Inc/CAN_Driver.o
                0x000000000800108a                std::function<void (RoboCAN::Message&)>* std::__addressof<std::function<void (RoboCAN::Message&)> >(std::function<void (RoboCAN::Message&)>&)
 .text._ZNK9__gnu_cxx17__normal_iteratorIPKSt8functionIFvRN7RoboCAN7MessageEEESt6vectorIS6_SaIS6_EEEdeEv
                0x000000000800109e       0x16 Core/Inc/CAN_Driver.o
                0x000000000800109e                __gnu_cxx::__normal_iterator<std::function<void (RoboCAN::Message&)> const*, std::vector<std::function<void (RoboCAN::Message&)>, std::allocator<std::function<void (RoboCAN::Message&)> > > >::operator*() const
 .text._ZSt10_ConstructISt8functionIFvRN7RoboCAN7MessageEEEJRKS5_EEvPT_DpOT0_
                0x00000000080010b4       0x2e Core/Inc/CAN_Driver.o
                0x00000000080010b4                void std::_Construct<std::function<void (RoboCAN::Message&)>, std::function<void (RoboCAN::Message&)> const&>(std::function<void (RoboCAN::Message&)>*, std::function<void (RoboCAN::Message&)> const&)
 .text._ZSt8_DestroyISt8functionIFvRN7RoboCAN7MessageEEEEvPT_
                0x00000000080010e2       0x16 Core/Inc/CAN_Driver.o
                0x00000000080010e2                void std::_Destroy<std::function<void (RoboCAN::Message&)> >(std::function<void (RoboCAN::Message&)>*)
 .text._ZN9__gnu_cxx13new_allocatorISt8functionIFvRN7RoboCAN7MessageEEEE8allocateEjPKv
                0x00000000080010f8       0x3c Core/Inc/CAN_Driver.o
                0x00000000080010f8                __gnu_cxx::new_allocator<std::function<void (RoboCAN::Message&)> >::allocate(unsigned int, void const*)
 .text._ZNK9__gnu_cxx17__normal_iteratorIPKSt8functionIFvRN7RoboCAN7MessageEEESt6vectorIS6_SaIS6_EEE4baseEv
                0x0000000008001134       0x14 Core/Inc/CAN_Driver.o
                0x0000000008001134                __gnu_cxx::__normal_iterator<std::function<void (RoboCAN::Message&)> const*, std::vector<std::function<void (RoboCAN::Message&)>, std::allocator<std::function<void (RoboCAN::Message&)> > > >::base() const
 .text._ZSt7forwardIRKSt8functionIFvRN7RoboCAN7MessageEEEEOT_RNSt16remove_referenceIS8_E4typeE
                0x0000000008001148       0x14 Core/Inc/CAN_Driver.o
                0x0000000008001148                std::function<void (RoboCAN::Message&)> const& std::forward<std::function<void (RoboCAN::Message&)> const&>(std::remove_reference<std::function<void (RoboCAN::Message&)> const&>::type&)
 .text._ZNK9__gnu_cxx13new_allocatorISt8functionIFvRN7RoboCAN7MessageEEEE8max_sizeEv
                0x000000000800115c       0x16 Core/Inc/CAN_Driver.o
                0x000000000800115c                __gnu_cxx::new_allocator<std::function<void (RoboCAN::Message&)> >::max_size() const
 .text.LL_GPIO_SetOutputPin
                0x0000000008001172       0x1e Core/Inc/CzujnikTwojejStarej.o
 .text.LL_GPIO_ResetOutputPin
                0x0000000008001190       0x1e Core/Inc/CzujnikTwojejStarej.o
 .text._ZN19CzujnikTwojejStarejC2Eii
                0x00000000080011ae       0x24 Core/Inc/CzujnikTwojejStarej.o
                0x00000000080011ae                CzujnikTwojejStarej::CzujnikTwojejStarej(int, int)
                0x00000000080011ae                CzujnikTwojejStarej::CzujnikTwojejStarej(int, int)
 *fill*         0x00000000080011d2        0x2 
 .text._ZN19CzujnikTwojejStarej10wlaczDiodeERN7RoboCAN7MessageE
                0x00000000080011d4       0x20 Core/Inc/CzujnikTwojejStarej.o
                0x00000000080011d4                CzujnikTwojejStarej::wlaczDiode(RoboCAN::Message&)
 .text._ZN19CzujnikTwojejStarej11wylaczDiodeERN7RoboCAN7MessageE
                0x00000000080011f4       0x20 Core/Inc/CzujnikTwojejStarej.o
                0x00000000080011f4                CzujnikTwojejStarej::wylaczDiode(RoboCAN::Message&)
 .text._ZN19CzujnikTwojejStarej10zapiszDaneERN7RoboCAN7MessageE
                0x0000000008001214       0x2a Core/Inc/CzujnikTwojejStarej.o
                0x0000000008001214                CzujnikTwojejStarej::zapiszDane(RoboCAN::Message&)
 .text._ZN19CzujnikTwojejStarej7dajDaneERN7RoboCAN7MessageE
                0x000000000800123e       0x22 Core/Inc/CzujnikTwojejStarej.o
                0x000000000800123e                CzujnikTwojejStarej::dajDane(RoboCAN::Message&)
 .text._ZNSt12_Vector_baseIN7RoboCAN4PortESaIS1_EE12_Vector_implD2Ev
                0x0000000008001260       0x18 Core/Inc/Master.o
                0x0000000008001260                std::_Vector_base<RoboCAN::Port, std::allocator<RoboCAN::Port> >::_Vector_impl::~_Vector_impl()
                0x0000000008001260                std::_Vector_base<RoboCAN::Port, std::allocator<RoboCAN::Port> >::_Vector_impl::~_Vector_impl()
 .text._ZNSt12_Vector_baseIN7RoboCAN4PortESaIS1_EEC2Ev
                0x0000000008001278       0x1a Core/Inc/Master.o
                0x0000000008001278                std::_Vector_base<RoboCAN::Port, std::allocator<RoboCAN::Port> >::_Vector_base()
                0x0000000008001278                std::_Vector_base<RoboCAN::Port, std::allocator<RoboCAN::Port> >::_Vector_base()
 .text._ZNSt6vectorIN7RoboCAN4PortESaIS1_EEC2Ev
                0x0000000008001292       0x1a Core/Inc/Master.o
                0x0000000008001292                std::vector<RoboCAN::Port, std::allocator<RoboCAN::Port> >::vector()
                0x0000000008001292                std::vector<RoboCAN::Port, std::allocator<RoboCAN::Port> >::vector()
 .text._ZN7RoboCAN6MasterC2Ej
                0x00000000080012ac       0x22 Core/Inc/Master.o
                0x00000000080012ac                RoboCAN::Master::Master(unsigned int)
                0x00000000080012ac                RoboCAN::Master::Master(unsigned int)
 .text._ZN7RoboCAN6Master9push_backERNS_4PortE
                0x00000000080012ce       0x1c Core/Inc/Master.o
                0x00000000080012ce                RoboCAN::Master::push_back(RoboCAN::Port&)
 .text._ZZN7RoboCAN6Master8transmitEjjENKUlRNS_4PortEE_clES2_
                0x00000000080012ea       0x28 Core/Inc/Master.o
 .text._ZN7RoboCAN6Master8transmitEjj
                0x0000000008001312       0x74 Core/Inc/Master.o
                0x0000000008001312                RoboCAN::Master::transmit(unsigned int, unsigned int)
 .text._ZN7RoboCAN4PortC2EjSt8functionIFvRNS_7MessageEEEj
                0x0000000008001386       0x30 Core/Inc/Master.o
                0x0000000008001386                RoboCAN::Port::Port(unsigned int, std::function<void (RoboCAN::Message&)>, unsigned int)
                0x0000000008001386                RoboCAN::Port::Port(unsigned int, std::function<void (RoboCAN::Message&)>, unsigned int)
 .text._ZN7RoboCAN4Port5getIdEv
                0x00000000080013b6       0x16 Core/Inc/Master.o
                0x00000000080013b6                RoboCAN::Port::getId()
 .text._ZN7RoboCAN4Port17callSlaveFunctionEjj
                0x00000000080013cc       0x44 Core/Inc/Master.o
                0x00000000080013cc                RoboCAN::Port::callSlaveFunction(unsigned int, unsigned int)
 .text._ZNSt12_Vector_baseIN7RoboCAN4PortESaIS1_EE12_Vector_implC2Ev
                0x0000000008001410       0x20 Core/Inc/Master.o
                0x0000000008001410                std::_Vector_base<RoboCAN::Port, std::allocator<RoboCAN::Port> >::_Vector_impl::_Vector_impl()
                0x0000000008001410                std::_Vector_base<RoboCAN::Port, std::allocator<RoboCAN::Port> >::_Vector_impl::_Vector_impl()
 .text._ZNSaIN7RoboCAN4PortEED2Ev
                0x0000000008001430       0x18 Core/Inc/Master.o
                0x0000000008001430                std::allocator<RoboCAN::Port>::~allocator()
                0x0000000008001430                std::allocator<RoboCAN::Port>::~allocator()
 .text._ZNSt12_Vector_baseIN7RoboCAN4PortESaIS1_EED2Ev
                0x0000000008001448       0x3c Core/Inc/Master.o
                0x0000000008001448                std::_Vector_base<RoboCAN::Port, std::allocator<RoboCAN::Port> >::~_Vector_base()
                0x0000000008001448                std::_Vector_base<RoboCAN::Port, std::allocator<RoboCAN::Port> >::~_Vector_base()
 .text._ZNSt6vectorIN7RoboCAN4PortESaIS1_EED2Ev
                0x0000000008001484       0x36 Core/Inc/Master.o
                0x0000000008001484                std::vector<RoboCAN::Port, std::allocator<RoboCAN::Port> >::~vector()
                0x0000000008001484                std::vector<RoboCAN::Port, std::allocator<RoboCAN::Port> >::~vector()
 .text._ZNSt6vectorIN7RoboCAN4PortESaIS1_EE9push_backERKS1_
                0x00000000080014ba       0x4c Core/Inc/Master.o
                0x00000000080014ba                std::vector<RoboCAN::Port, std::allocator<RoboCAN::Port> >::push_back(RoboCAN::Port const&)
 .text._ZSt7find_ifIN9__gnu_cxx17__normal_iteratorIPN7RoboCAN4PortESt6vectorIS3_SaIS3_EEEEZNS2_6Master8transmitEjjEUlRS3_E_ET_SC_SC_T0_
                0x0000000008001506       0x28 Core/Inc/Master.o
 .text._ZNK9__gnu_cxx17__normal_iteratorIPN7RoboCAN4PortESt6vectorIS2_SaIS2_EEEptEv
                0x000000000800152e       0x16 Core/Inc/Master.o
                0x000000000800152e                __gnu_cxx::__normal_iterator<RoboCAN::Port*, std::vector<RoboCAN::Port, std::allocator<RoboCAN::Port> > >::operator->() const
 .text._ZNSaIN7RoboCAN4PortEEC2Ev
                0x0000000008001544       0x18 Core/Inc/Master.o
                0x0000000008001544                std::allocator<RoboCAN::Port>::allocator()
                0x0000000008001544                std::allocator<RoboCAN::Port>::allocator()
 .text._ZNSt12_Vector_baseIN7RoboCAN4PortESaIS1_EE17_Vector_impl_dataC2Ev
                0x000000000800155c       0x26 Core/Inc/Master.o
                0x000000000800155c                std::_Vector_base<RoboCAN::Port, std::allocator<RoboCAN::Port> >::_Vector_impl_data::_Vector_impl_data()
                0x000000000800155c                std::_Vector_base<RoboCAN::Port, std::allocator<RoboCAN::Port> >::_Vector_impl_data::_Vector_impl_data()
 .text._ZN9__gnu_cxx13new_allocatorIN7RoboCAN4PortEED2Ev
                0x0000000008001582       0x14 Core/Inc/Master.o
                0x0000000008001582                __gnu_cxx::new_allocator<RoboCAN::Port>::~new_allocator()
                0x0000000008001582                __gnu_cxx::new_allocator<RoboCAN::Port>::~new_allocator()
 .text._ZNSt12_Vector_baseIN7RoboCAN4PortESaIS1_EE13_M_deallocateEPS1_j
                0x0000000008001596       0x26 Core/Inc/Master.o
                0x0000000008001596                std::_Vector_base<RoboCAN::Port, std::allocator<RoboCAN::Port> >::_M_deallocate(RoboCAN::Port*, unsigned int)
 .text._ZNSt12_Vector_baseIN7RoboCAN4PortESaIS1_EE19_M_get_Tp_allocatorEv
                0x00000000080015bc       0x14 Core/Inc/Master.o
                0x00000000080015bc                std::_Vector_base<RoboCAN::Port, std::allocator<RoboCAN::Port> >::_M_get_Tp_allocator()
 .text._ZSt8_DestroyIPN7RoboCAN4PortES1_EvT_S3_RSaIT0_E
                0x00000000080015d0       0x1c Core/Inc/Master.o
                0x00000000080015d0                void std::_Destroy<RoboCAN::Port*, RoboCAN::Port>(RoboCAN::Port*, RoboCAN::Port*, std::allocator<RoboCAN::Port>&)
 .text._ZNSt16allocator_traitsISaIN7RoboCAN4PortEEE9constructIS1_JRKS1_EEEvRS2_PT_DpOT0_
                0x00000000080015ec       0x26 Core/Inc/Master.o
                0x00000000080015ec                void std::allocator_traits<std::allocator<RoboCAN::Port> >::construct<RoboCAN::Port, RoboCAN::Port const&>(std::allocator<RoboCAN::Port>&, RoboCAN::Port*, RoboCAN::Port const&)
 .text._ZNSt6vectorIN7RoboCAN4PortESaIS1_EE15_S_use_relocateEv
                0x0000000008001612       0x16 Core/Inc/Master.o
                0x0000000008001612                std::vector<RoboCAN::Port, std::allocator<RoboCAN::Port> >::_S_use_relocate()
 .text._ZNSt6vectorIN7RoboCAN4PortESaIS1_EE19_S_nothrow_relocateESt17integral_constantIbLb1EE
                0x0000000008001628       0x14 Core/Inc/Master.o
                0x0000000008001628                std::vector<RoboCAN::Port, std::allocator<RoboCAN::Port> >::_S_nothrow_relocate(std::integral_constant<bool, true>)
 .text._ZNSt6vectorIN7RoboCAN4PortESaIS1_EE17_M_realloc_insertIJRKS1_EEEvN9__gnu_cxx17__normal_iteratorIPS1_S3_EEDpOT_
                0x000000000800163c      0x190 Core/Inc/Master.o
                0x000000000800163c                void std::vector<RoboCAN::Port, std::allocator<RoboCAN::Port> >::_M_realloc_insert<RoboCAN::Port const&>(__gnu_cxx::__normal_iterator<RoboCAN::Port*, std::vector<RoboCAN::Port, std::allocator<RoboCAN::Port> > >, RoboCAN::Port const&)
 .text._ZN9__gnu_cxx5__ops11__pred_iterIZN7RoboCAN6Master8transmitEjjEUlRNS2_4PortEE_EENS0_10_Iter_predIT_EES8_
                0x00000000080017cc       0x28 Core/Inc/Master.o
 .text._ZSt9__find_ifIN9__gnu_cxx17__normal_iteratorIPN7RoboCAN4PortESt6vectorIS3_SaIS3_EEEENS0_5__ops10_Iter_predIZNS2_6Master8transmitEjjEUlRS3_E_EEET_SF_SF_T0_
                0x00000000080017f4       0x2c Core/Inc/Master.o
 .text._ZN9__gnu_cxx13new_allocatorIN7RoboCAN4PortEEC2Ev
                0x0000000008001820       0x14 Core/Inc/Master.o
                0x0000000008001820                __gnu_cxx::new_allocator<RoboCAN::Port>::new_allocator()
                0x0000000008001820                __gnu_cxx::new_allocator<RoboCAN::Port>::new_allocator()
 .text._ZNSt16allocator_traitsISaIN7RoboCAN4PortEEE10deallocateERS2_PS1_j
                0x0000000008001834       0x1e Core/Inc/Master.o
                0x0000000008001834                std::allocator_traits<std::allocator<RoboCAN::Port> >::deallocate(std::allocator<RoboCAN::Port>&, RoboCAN::Port*, unsigned int)
 .text._ZSt8_DestroyIPN7RoboCAN4PortEEvT_S3_
                0x0000000008001852       0x1a Core/Inc/Master.o
                0x0000000008001852                void std::_Destroy<RoboCAN::Port*>(RoboCAN::Port*, RoboCAN::Port*)
 .text._ZSt7forwardIRKN7RoboCAN4PortEEOT_RNSt16remove_referenceIS4_E4typeE
                0x000000000800186c       0x14 Core/Inc/Master.o
                0x000000000800186c                RoboCAN::Port const& std::forward<RoboCAN::Port const&>(std::remove_reference<RoboCAN::Port const&>::type&)
 .text._ZN9__gnu_cxx13new_allocatorIN7RoboCAN4PortEE9constructIS2_JRKS2_EEEvPT_DpOT0_
                0x0000000008001880       0x30 Core/Inc/Master.o
                0x0000000008001880                void __gnu_cxx::new_allocator<RoboCAN::Port>::construct<RoboCAN::Port, RoboCAN::Port const&>(RoboCAN::Port*, RoboCAN::Port const&)
 .text._ZNKSt6vectorIN7RoboCAN4PortESaIS1_EE12_M_check_lenEjPKc
                0x00000000080018b0       0x8e Core/Inc/Master.o
                0x00000000080018b0                std::vector<RoboCAN::Port, std::allocator<RoboCAN::Port> >::_M_check_len(unsigned int, char const*) const
 *fill*         0x000000000800193e        0x2 
 .text._ZN9__gnu_cxxmiIPN7RoboCAN4PortESt6vectorIS2_SaIS2_EEEENS_17__normal_iteratorIT_T0_E15difference_typeERKSA_SD_
                0x0000000008001940       0x34 Core/Inc/Master.o
                0x0000000008001940                __gnu_cxx::__normal_iterator<RoboCAN::Port*, std::vector<RoboCAN::Port, std::allocator<RoboCAN::Port> > >::difference_type __gnu_cxx::operator-<RoboCAN::Port*, std::vector<RoboCAN::Port, std::allocator<RoboCAN::Port> > >(__gnu_cxx::__normal_iterator<RoboCAN::Port*, std::vector<RoboCAN::Port, std::allocator<RoboCAN::Port> > > const&, __gnu_cxx::__normal_iterator<RoboCAN::Port*, std::vector<RoboCAN::Port, std::allocator<RoboCAN::Port> > > const&)
 .text._ZNSt12_Vector_baseIN7RoboCAN4PortESaIS1_EE11_M_allocateEj
                0x0000000008001974       0x28 Core/Inc/Master.o
                0x0000000008001974                std::_Vector_base<RoboCAN::Port, std::allocator<RoboCAN::Port> >::_M_allocate(unsigned int)
 .text._ZNSt6vectorIN7RoboCAN4PortESaIS1_EE11_S_relocateEPS1_S4_S4_RS2_
                0x000000000800199c       0x28 Core/Inc/Master.o
                0x000000000800199c                std::vector<RoboCAN::Port, std::allocator<RoboCAN::Port> >::_S_relocate(RoboCAN::Port*, RoboCAN::Port*, RoboCAN::Port*, std::allocator<RoboCAN::Port>&)
 .text._ZSt34__uninitialized_move_if_noexcept_aIPN7RoboCAN4PortES2_SaIS1_EET0_T_S5_S4_RT1_
                0x00000000080019c4       0x32 Core/Inc/Master.o
                0x00000000080019c4                RoboCAN::Port* std::__uninitialized_move_if_noexcept_a<RoboCAN::Port*, RoboCAN::Port*, std::allocator<RoboCAN::Port> >(RoboCAN::Port*, RoboCAN::Port*, RoboCAN::Port*, std::allocator<RoboCAN::Port>&)
 .text._ZNSt16allocator_traitsISaIN7RoboCAN4PortEEE7destroyIS1_EEvRS2_PT_
                0x00000000080019f6       0x1a Core/Inc/Master.o
                0x00000000080019f6                void std::allocator_traits<std::allocator<RoboCAN::Port> >::destroy<RoboCAN::Port>(std::allocator<RoboCAN::Port>&, RoboCAN::Port*)
 .text._ZSt4moveIRZN7RoboCAN6Master8transmitEjjEUlRNS0_4PortEE_EONSt16remove_referenceIT_E4typeEOS7_
                0x0000000008001a10       0x14 Core/Inc/Master.o
 .text._ZN9__gnu_cxx5__ops10_Iter_predIZN7RoboCAN6Master8transmitEjjEUlRNS2_4PortEE_EC2ES6_
                0x0000000008001a24       0x24 Core/Inc/Master.o
 .text._ZSt19__iterator_categoryIN9__gnu_cxx17__normal_iteratorIPN7RoboCAN4PortESt6vectorIS3_SaIS3_EEEEENSt15iterator_traitsIT_E17iterator_categoryERKSA_
                0x0000000008001a48       0x12 Core/Inc/Master.o
                0x0000000008001a48                std::iterator_traits<__gnu_cxx::__normal_iterator<RoboCAN::Port*, std::vector<RoboCAN::Port, std::allocator<RoboCAN::Port> > > >::iterator_category std::__iterator_category<__gnu_cxx::__normal_iterator<RoboCAN::Port*, std::vector<RoboCAN::Port, std::allocator<RoboCAN::Port> > > >(__gnu_cxx::__normal_iterator<RoboCAN::Port*, std::vector<RoboCAN::Port, std::allocator<RoboCAN::Port> > > const&)
 .text._ZSt9__find_ifIN9__gnu_cxx17__normal_iteratorIPN7RoboCAN4PortESt6vectorIS3_SaIS3_EEEENS0_5__ops10_Iter_predIZNS2_6Master8transmitEjjEUlRS3_E_EEET_SF_SF_T0_St26random_access_iterator_tag
                0x0000000008001a5a      0x132 Core/Inc/Master.o
 .text._ZN9__gnu_cxx13new_allocatorIN7RoboCAN4PortEE10deallocateEPS2_j
                0x0000000008001b8c       0x1a Core/Inc/Master.o
                0x0000000008001b8c                __gnu_cxx::new_allocator<RoboCAN::Port>::deallocate(RoboCAN::Port*, unsigned int)
 .text._ZNSt12_Destroy_auxILb0EE9__destroyIPN7RoboCAN4PortEEEvT_S5_
                0x0000000008001ba6       0x30 Core/Inc/Master.o
                0x0000000008001ba6                void std::_Destroy_aux<false>::__destroy<RoboCAN::Port*>(RoboCAN::Port*, RoboCAN::Port*)
 .text._ZNKSt6vectorIN7RoboCAN4PortESaIS1_EE8max_sizeEv
                0x0000000008001bd6       0x22 Core/Inc/Master.o
                0x0000000008001bd6                std::vector<RoboCAN::Port, std::allocator<RoboCAN::Port> >::max_size() const
 .text._ZNKSt6vectorIN7RoboCAN4PortESaIS1_EE4sizeEv
                0x0000000008001bf8       0x28 Core/Inc/Master.o
                0x0000000008001bf8                std::vector<RoboCAN::Port, std::allocator<RoboCAN::Port> >::size() const
 .text._ZSt3maxIjERKT_S2_S2_
                0x0000000008001c20       0x26 Core/Inc/Master.o
                0x0000000008001c20                unsigned int const& std::max<unsigned int>(unsigned int const&, unsigned int const&)
 .text._ZNSt16allocator_traitsISaIN7RoboCAN4PortEEE8allocateERS2_j
                0x0000000008001c46       0x1e Core/Inc/Master.o
                0x0000000008001c46                std::allocator_traits<std::allocator<RoboCAN::Port> >::allocate(std::allocator<RoboCAN::Port>&, unsigned int)
 .text._ZNSt6vectorIN7RoboCAN4PortESaIS1_EE14_S_do_relocateEPS1_S4_S4_RS2_St17integral_constantIbLb1EE
                0x0000000008001c64       0x24 Core/Inc/Master.o
                0x0000000008001c64                std::vector<RoboCAN::Port, std::allocator<RoboCAN::Port> >::_S_do_relocate(RoboCAN::Port*, RoboCAN::Port*, RoboCAN::Port*, std::allocator<RoboCAN::Port>&, std::integral_constant<bool, true>)
 .text._ZSt32__make_move_if_noexcept_iteratorIN7RoboCAN4PortESt13move_iteratorIPS1_EET0_PT_
                0x0000000008001c88       0x1e Core/Inc/Master.o
                0x0000000008001c88                std::move_iterator<RoboCAN::Port*> std::__make_move_if_noexcept_iterator<RoboCAN::Port, std::move_iterator<RoboCAN::Port*> >(RoboCAN::Port*)
 .text._ZSt22__uninitialized_copy_aISt13move_iteratorIPN7RoboCAN4PortEES3_S2_ET0_T_S6_S5_RSaIT1_E
                0x0000000008001ca6       0x22 Core/Inc/Master.o
                0x0000000008001ca6                RoboCAN::Port* std::__uninitialized_copy_a<std::move_iterator<RoboCAN::Port*>, RoboCAN::Port*, RoboCAN::Port>(std::move_iterator<RoboCAN::Port*>, std::move_iterator<RoboCAN::Port*>, RoboCAN::Port*, std::allocator<RoboCAN::Port>&)
 .text._ZN9__gnu_cxx13new_allocatorIN7RoboCAN4PortEE7destroyIS2_EEvPT_
                0x0000000008001cc8       0x18 Core/Inc/Master.o
                0x0000000008001cc8                void __gnu_cxx::new_allocator<RoboCAN::Port>::destroy<RoboCAN::Port>(RoboCAN::Port*)
 .text._ZN9__gnu_cxx5__ops10_Iter_predIZN7RoboCAN6Master8transmitEjjEUlRNS2_4PortEE_EclINS_17__normal_iteratorIPS4_St6vectorIS4_SaIS4_EEEEEEbT_
                0x0000000008001ce0       0x28 Core/Inc/Master.o
 .text._ZSt11__addressofIN7RoboCAN4PortEEPT_RS2_
                0x0000000008001d08       0x14 Core/Inc/Master.o
                0x0000000008001d08                RoboCAN::Port* std::__addressof<RoboCAN::Port>(RoboCAN::Port&)
 .text._ZSt8_DestroyIN7RoboCAN4PortEEvPT_
                0x0000000008001d1c       0x16 Core/Inc/Master.o
                0x0000000008001d1c                void std::_Destroy<RoboCAN::Port>(RoboCAN::Port*)
 *fill*         0x0000000008001d32        0x2 
 .text._ZNSt6vectorIN7RoboCAN4PortESaIS1_EE11_S_max_sizeERKS2_
                0x0000000008001d34       0x38 Core/Inc/Master.o
                0x0000000008001d34                std::vector<RoboCAN::Port, std::allocator<RoboCAN::Port> >::_S_max_size(std::allocator<RoboCAN::Port> const&)
 .text._ZNKSt12_Vector_baseIN7RoboCAN4PortESaIS1_EE19_M_get_Tp_allocatorEv
                0x0000000008001d6c       0x14 Core/Inc/Master.o
                0x0000000008001d6c                std::_Vector_base<RoboCAN::Port, std::allocator<RoboCAN::Port> >::_M_get_Tp_allocator() const
 .text._ZN9__gnu_cxx13new_allocatorIN7RoboCAN4PortEE8allocateEjPKv
                0x0000000008001d80       0x42 Core/Inc/Master.o
                0x0000000008001d80                __gnu_cxx::new_allocator<RoboCAN::Port>::allocate(unsigned int, void const*)
 .text._ZSt12__relocate_aIPN7RoboCAN4PortES2_SaIS1_EET0_T_S5_S4_RT1_
                0x0000000008001dc2       0x3a Core/Inc/Master.o
                0x0000000008001dc2                RoboCAN::Port* std::__relocate_a<RoboCAN::Port*, RoboCAN::Port*, std::allocator<RoboCAN::Port> >(RoboCAN::Port*, RoboCAN::Port*, RoboCAN::Port*, std::allocator<RoboCAN::Port>&)
 .text._ZNSt13move_iteratorIPN7RoboCAN4PortEEC2ES2_
                0x0000000008001dfc       0x1c Core/Inc/Master.o
                0x0000000008001dfc                std::move_iterator<RoboCAN::Port*>::move_iterator(RoboCAN::Port*)
                0x0000000008001dfc                std::move_iterator<RoboCAN::Port*>::move_iterator(RoboCAN::Port*)
 .text._ZSt18uninitialized_copyISt13move_iteratorIPN7RoboCAN4PortEES3_ET0_T_S6_S5_
                0x0000000008001e18       0x24 Core/Inc/Master.o
                0x0000000008001e18                RoboCAN::Port* std::uninitialized_copy<std::move_iterator<RoboCAN::Port*>, RoboCAN::Port*>(std::move_iterator<RoboCAN::Port*>, std::move_iterator<RoboCAN::Port*>, RoboCAN::Port*)
 .text._ZNSt16allocator_traitsISaIN7RoboCAN4PortEEE8max_sizeERKS2_
                0x0000000008001e3c       0x18 Core/Inc/Master.o
                0x0000000008001e3c                std::allocator_traits<std::allocator<RoboCAN::Port> >::max_size(std::allocator<RoboCAN::Port> const&)
 .text._ZNK9__gnu_cxx13new_allocatorIN7RoboCAN4PortEE8max_sizeEv
                0x0000000008001e54       0x18 Core/Inc/Master.o
                0x0000000008001e54                __gnu_cxx::new_allocator<RoboCAN::Port>::max_size() const
 .text._ZSt12__niter_baseIPN7RoboCAN4PortEET_S3_
                0x0000000008001e6c       0x14 Core/Inc/Master.o
                0x0000000008001e6c                RoboCAN::Port* std::__niter_base<RoboCAN::Port*>(RoboCAN::Port*)
 .text._ZSt14__relocate_a_1IPN7RoboCAN4PortES2_SaIS1_EET0_T_S5_S4_RT1_
                0x0000000008001e80       0x4c Core/Inc/Master.o
                0x0000000008001e80                RoboCAN::Port* std::__relocate_a_1<RoboCAN::Port*, RoboCAN::Port*, std::allocator<RoboCAN::Port> >(RoboCAN::Port*, RoboCAN::Port*, RoboCAN::Port*, std::allocator<RoboCAN::Port>&)
 .text._ZNSt20__uninitialized_copyILb0EE13__uninit_copyISt13move_iteratorIPN7RoboCAN4PortEES5_EET0_T_S8_S7_
                0x0000000008001ecc       0x5e Core/Inc/Master.o
                0x0000000008001ecc                RoboCAN::Port* std::__uninitialized_copy<false>::__uninit_copy<std::move_iterator<RoboCAN::Port*>, RoboCAN::Port*>(std::move_iterator<RoboCAN::Port*>, std::move_iterator<RoboCAN::Port*>, RoboCAN::Port*)
 .text._ZSt19__relocate_object_aIN7RoboCAN4PortES1_SaIS1_EEvPT_PT0_RT1_
                0x0000000008001f2a       0x36 Core/Inc/Master.o
                0x0000000008001f2a                void std::__relocate_object_a<RoboCAN::Port, RoboCAN::Port, std::allocator<RoboCAN::Port> >(RoboCAN::Port*, RoboCAN::Port*, std::allocator<RoboCAN::Port>&)
 .text._ZStneIPN7RoboCAN4PortEEbRKSt13move_iteratorIT_ES7_
                0x0000000008001f60       0x22 Core/Inc/Master.o
                0x0000000008001f60                bool std::operator!=<RoboCAN::Port*>(std::move_iterator<RoboCAN::Port*> const&, std::move_iterator<RoboCAN::Port*> const&)
 .text._ZNSt13move_iteratorIPN7RoboCAN4PortEEppEv
                0x0000000008001f82       0x20 Core/Inc/Master.o
                0x0000000008001f82                std::move_iterator<RoboCAN::Port*>::operator++()
 .text._ZNKSt13move_iteratorIPN7RoboCAN4PortEEdeEv
                0x0000000008001fa2       0x16 Core/Inc/Master.o
                0x0000000008001fa2                std::move_iterator<RoboCAN::Port*>::operator*() const
 .text._ZN7RoboCAN4PortC2EOS0_
                0x0000000008001fb8       0x28 Core/Inc/Master.o
                0x0000000008001fb8                RoboCAN::Port::Port(RoboCAN::Port&&)
                0x0000000008001fb8                RoboCAN::Port::Port(RoboCAN::Port&&)
 .text._ZSt10_ConstructIN7RoboCAN4PortEJS1_EEvPT_DpOT0_
                0x0000000008001fe0       0x2e Core/Inc/Master.o
                0x0000000008001fe0                void std::_Construct<RoboCAN::Port, RoboCAN::Port>(RoboCAN::Port*, RoboCAN::Port&&)
 .text._ZSt4moveIRN7RoboCAN4PortEEONSt16remove_referenceIT_E4typeEOS4_
                0x000000000800200e       0x14 Core/Inc/Master.o
                0x000000000800200e                std::remove_reference<RoboCAN::Port&>::type&& std::move<RoboCAN::Port&>(RoboCAN::Port&)
 .text._ZNSt16allocator_traitsISaIN7RoboCAN4PortEEE9constructIS1_JS1_EEEvRS2_PT_DpOT0_
                0x0000000008002022       0x26 Core/Inc/Master.o
                0x0000000008002022                void std::allocator_traits<std::allocator<RoboCAN::Port> >::construct<RoboCAN::Port, RoboCAN::Port>(std::allocator<RoboCAN::Port>&, RoboCAN::Port*, RoboCAN::Port&&)
 .text._ZSteqIPN7RoboCAN4PortEEbRKSt13move_iteratorIT_ES7_
                0x0000000008002048       0x2c Core/Inc/Master.o
                0x0000000008002048                bool std::operator==<RoboCAN::Port*>(std::move_iterator<RoboCAN::Port*> const&, std::move_iterator<RoboCAN::Port*> const&)
 .text._ZSt7forwardIN7RoboCAN4PortEEOT_RNSt16remove_referenceIS2_E4typeE
                0x0000000008002074       0x14 Core/Inc/Master.o
                0x0000000008002074                RoboCAN::Port&& std::forward<RoboCAN::Port>(std::remove_reference<RoboCAN::Port>::type&)
 .text._ZNSt8functionIFvRN7RoboCAN7MessageEEEC2EOS4_
                0x0000000008002088       0x24 Core/Inc/Master.o
                0x0000000008002088                std::function<void (RoboCAN::Message&)>::function(std::function<void (RoboCAN::Message&)>&&)
                0x0000000008002088                std::function<void (RoboCAN::Message&)>::function(std::function<void (RoboCAN::Message&)>&&)
 .text._ZN9__gnu_cxx13new_allocatorIN7RoboCAN4PortEE9constructIS2_JS2_EEEvPT_DpOT0_
                0x00000000080020ac       0x30 Core/Inc/Master.o
                0x00000000080020ac                void __gnu_cxx::new_allocator<RoboCAN::Port>::construct<RoboCAN::Port, RoboCAN::Port>(RoboCAN::Port*, RoboCAN::Port&&)
 .text._ZNKSt13move_iteratorIPN7RoboCAN4PortEE4baseEv
                0x00000000080020dc       0x16 Core/Inc/Master.o
                0x00000000080020dc                std::move_iterator<RoboCAN::Port*>::base() const
 .text._ZNSt8functionIFvRN7RoboCAN7MessageEEE4swapERS4_
                0x00000000080020f2       0x42 Core/Inc/Master.o
                0x00000000080020f2                std::function<void (RoboCAN::Message&)>::swap(std::function<void (RoboCAN::Message&)>&)
 .text._ZSt4moveIRSt9_Any_dataEONSt16remove_referenceIT_E4typeEOS3_
                0x0000000008002134       0x14 Core/Inc/Master.o
                0x0000000008002134                std::remove_reference<std::_Any_data&>::type&& std::move<std::_Any_data&>(std::_Any_data&)
 .text._ZSt4swapISt9_Any_dataENSt9enable_ifIXsrSt6__and_IJSt6__not_ISt15__is_tuple_likeIT_EESt21is_move_constructibleIS5_ESt18is_move_assignableIS5_EEE5valueEvE4typeERS5_SF_
                0x0000000008002148       0x4e Core/Inc/Master.o
                0x0000000008002148                std::enable_if<std::__and_<std::__not_<std::__is_tuple_like<std::_Any_data> >, std::is_move_constructible<std::_Any_data>, std::is_move_assignable<std::_Any_data> >::value, void>::type std::swap<std::_Any_data>(std::_Any_data&, std::_Any_data&)
 .text._ZSt4moveIRPFbRSt9_Any_dataRKS0_St18_Manager_operationEEONSt16remove_referenceIT_E4typeEOS9_
                0x0000000008002196       0x14 Core/Inc/Master.o
                0x0000000008002196                std::remove_reference<bool (*&)(std::_Any_data&, std::_Any_data const&, std::_Manager_operation)>::type&& std::move<bool (*&)(std::_Any_data&, std::_Any_data const&, std::_Manager_operation)>(bool (*&)(std::_Any_data&, std::_Any_data const&, std::_Manager_operation))
 .text._ZSt4swapIPFbRSt9_Any_dataRKS0_St18_Manager_operationEENSt9enable_ifIXsrSt6__and_IJSt6__not_ISt15__is_tuple_likeIT_EESt21is_move_constructibleISB_ESt18is_move_assignableISB_EEE5valueEvE4typeERSB_SL_
                0x00000000080021aa       0x3e Core/Inc/Master.o
                0x00000000080021aa                std::enable_if<std::__and_<std::__not_<std::__is_tuple_like<bool (*)(std::_Any_data&, std::_Any_data const&, std::_Manager_operation)> >, std::is_move_constructible<bool (*)(std::_Any_data&, std::_Any_data const&, std::_Manager_operation)>, std::is_move_assignable<bool (*)(std::_Any_data&, std::_Any_data const&, std::_Manager_operation)> >::value, void>::type std::swap<bool (*)(std::_Any_data&, std::_Any_data const&, std::_Manager_operation)>(bool (*&)(std::_Any_data&, std::_Any_data const&, std::_Manager_operation), bool (*&)(std::_Any_data&, std::_Any_data const&, std::_Manager_operation))
 .text._ZSt4moveIRPFvRKSt9_Any_dataRN7RoboCAN7MessageEEEONSt16remove_referenceIT_E4typeEOSA_
                0x00000000080021e8       0x14 Core/Inc/Master.o
                0x00000000080021e8                std::remove_reference<void (*&)(std::_Any_data const&, RoboCAN::Message&)>::type&& std::move<void (*&)(std::_Any_data const&, RoboCAN::Message&)>(void (*&)(std::_Any_data const&, RoboCAN::Message&))
 .text._ZSt4swapIPFvRKSt9_Any_dataRN7RoboCAN7MessageEEENSt9enable_ifIXsrSt6__and_IJSt6__not_ISt15__is_tuple_likeIT_EESt21is_move_constructibleISC_ESt18is_move_assignableISC_EEE5valueEvE4typeERSC_SM_
                0x00000000080021fc       0x3e Core/Inc/Master.o
                0x00000000080021fc                std::enable_if<std::__and_<std::__not_<std::__is_tuple_like<void (*)(std::_Any_data const&, RoboCAN::Message&)> >, std::is_move_constructible<void (*)(std::_Any_data const&, RoboCAN::Message&)>, std::is_move_assignable<void (*)(std::_Any_data const&, RoboCAN::Message&)> >::value, void>::type std::swap<void (*)(std::_Any_data const&, RoboCAN::Message&)>(void (*&)(std::_Any_data const&, RoboCAN::Message&), void (*&)(std::_Any_data const&, RoboCAN::Message&))
 .text._ZN7RoboCAN6MasterD2Ev
                0x000000000800223a       0x1a Core/Inc/Master.o
                0x000000000800223a                RoboCAN::Master::~Master()
                0x000000000800223a                RoboCAN::Master::~Master()
 .text._Z41__static_initialization_and_destruction_0ii
                0x0000000008002254       0x44 Core/Inc/Master.o
 .text._GLOBAL__sub_I__ZN7RoboCAN6MasterC2Ej
                0x0000000008002298       0x10 Core/Inc/Master.o
 .text._GLOBAL__sub_D__ZN7RoboCAN6MasterC2Ej
                0x00000000080022a8       0x10 Core/Inc/Master.o
 .text._ZNSt12_Base_bitsetILj1EE9_M_hiwordEv
                0x00000000080022b8       0x14 Core/Inc/Message.o
                0x00000000080022b8                std::_Base_bitset<1u>::_M_hiword()
 .text._ZNSt12_Base_bitsetILj1EE17_M_do_right_shiftEj
                0x00000000080022cc       0x20 Core/Inc/Message.o
                0x00000000080022cc                std::_Base_bitset<1u>::_M_do_right_shift(unsigned int)
 .text._ZNSt12_Base_bitsetILj1EE11_M_do_resetEv
                0x00000000080022ec       0x18 Core/Inc/Message.o
                0x00000000080022ec                std::_Base_bitset<1u>::_M_do_reset()
 .text._ZNKSt12_Base_bitsetILj1EE14_M_do_to_ulongEv
                0x0000000008002304       0x16 Core/Inc/Message.o
                0x0000000008002304                std::_Base_bitset<1u>::_M_do_to_ulong() const
 .text._ZNSt9_SanitizeILj0EE14_S_do_sanitizeEm
                0x000000000800231a       0x12 Core/Inc/Message.o
                0x000000000800231a                std::_Sanitize<0u>::_S_do_sanitize(unsigned long)
 .text._ZN7RoboCAN7MessageC2EjjjjPhj
                0x000000000800232c       0x68 Core/Inc/Message.o
                0x000000000800232c                RoboCAN::Message::Message(unsigned int, unsigned int, unsigned int, unsigned int, unsigned char*, unsigned int)
                0x000000000800232c                RoboCAN::Message::Message(unsigned int, unsigned int, unsigned int, unsigned int, unsigned char*, unsigned int)
 .text._ZN7RoboCAN7MessageC2ERKSt6bitsetILj32EEPhj
                0x0000000008002394       0x4c Core/Inc/Message.o
                0x0000000008002394                RoboCAN::Message::Message(std::bitset<32u> const&, unsigned char*, unsigned int)
                0x0000000008002394                RoboCAN::Message::Message(std::bitset<32u> const&, unsigned char*, unsigned int)
 .text._ZNK7RoboCAN7Message7getDataEv
                0x00000000080023e0       0x16 Core/Inc/Message.o
                0x00000000080023e0                RoboCAN::Message::getData() const
 .text._ZNK7RoboCAN7Message10getSlaveIdEv
                0x00000000080023f6       0x34 Core/Inc/Message.o
                0x00000000080023f6                RoboCAN::Message::getSlaveId() const
 .text._ZNK7RoboCAN7Message17getFunctionNumberEv
                0x000000000800242a       0x34 Core/Inc/Message.o
                0x000000000800242a                RoboCAN::Message::getFunctionNumber() const
 .text._ZNK7RoboCAN7Message12getMessageIdEv
                0x000000000800245e       0x1a Core/Inc/Message.o
                0x000000000800245e                RoboCAN::Message::getMessageId() const
 .text._ZNSaIhEC2Ev
                0x0000000008002478       0x18 Core/Inc/Message.o
                0x0000000008002478                std::allocator<unsigned char>::allocator()
                0x0000000008002478                std::allocator<unsigned char>::allocator()
 .text._ZNSt6vectorIhSaIhEEC2IPhvEET_S4_RKS0_
                0x0000000008002490       0x3a Core/Inc/Message.o
                0x0000000008002490                std::vector<unsigned char, std::allocator<unsigned char> >::vector<unsigned char*, void>(unsigned char*, unsigned char*, std::allocator<unsigned char> const&)
                0x0000000008002490                std::vector<unsigned char, std::allocator<unsigned char> >::vector<unsigned char*, void>(unsigned char*, unsigned char*, std::allocator<unsigned char> const&)
 .text._ZNKSt6bitsetILj32EErsEj
                0x00000000080024ca       0x28 Core/Inc/Message.o
                0x00000000080024ca                std::bitset<32u>::operator>>(unsigned int) const
 .text._ZNKSt6bitsetILj32EE8to_ulongEv
                0x00000000080024f2       0x1a Core/Inc/Message.o
                0x00000000080024f2                std::bitset<32u>::to_ulong() const
 .text._ZN7RoboCAN3powILj2ELj10EEEjv
                0x000000000800250c       0x2e Core/Inc/Message.o
                0x000000000800250c                unsigned int RoboCAN::pow<2u, 10u>()
 .text._ZN7RoboCAN3powILj2ELj5EEEjv
                0x000000000800253a       0x2e Core/Inc/Message.o
                0x000000000800253a                unsigned int RoboCAN::pow<2u, 5u>()
 .text._ZN9__gnu_cxx13new_allocatorIhEC2Ev
                0x0000000008002568       0x14 Core/Inc/Message.o
                0x0000000008002568                __gnu_cxx::new_allocator<unsigned char>::new_allocator()
                0x0000000008002568                __gnu_cxx::new_allocator<unsigned char>::new_allocator()
 .text._ZNSt12_Vector_baseIhSaIhEEC2ERKS0_
                0x000000000800257c       0x1e Core/Inc/Message.o
                0x000000000800257c                std::_Vector_base<unsigned char, std::allocator<unsigned char> >::_Vector_base(std::allocator<unsigned char> const&)
                0x000000000800257c                std::_Vector_base<unsigned char, std::allocator<unsigned char> >::_Vector_base(std::allocator<unsigned char> const&)
 .text._ZSt19__iterator_categoryIPhENSt15iterator_traitsIT_E17iterator_categoryERKS2_
                0x000000000800259a       0x12 Core/Inc/Message.o
                0x000000000800259a                std::iterator_traits<unsigned char*>::iterator_category std::__iterator_category<unsigned char*>(unsigned char* const&)
 .text._ZNSt6vectorIhSaIhEE19_M_range_initializeIPhEEvT_S4_St20forward_iterator_tag
                0x00000000080025ac       0x70 Core/Inc/Message.o
                0x00000000080025ac                void std::vector<unsigned char, std::allocator<unsigned char> >::_M_range_initialize<unsigned char*>(unsigned char*, unsigned char*, std::forward_iterator_tag)
 .text._ZNSt6bitsetILj32EErSEj
                0x000000000800261c       0x3e Core/Inc/Message.o
                0x000000000800261c                std::bitset<32u>::operator>>=(unsigned int)
 .text._ZNSt12_Vector_baseIhSaIhEE12_Vector_implC2ERKS0_
                0x000000000800265a       0x24 Core/Inc/Message.o
                0x000000000800265a                std::_Vector_base<unsigned char, std::allocator<unsigned char> >::_Vector_impl::_Vector_impl(std::allocator<unsigned char> const&)
                0x000000000800265a                std::_Vector_base<unsigned char, std::allocator<unsigned char> >::_Vector_impl::_Vector_impl(std::allocator<unsigned char> const&)
 .text._ZSt8distanceIPhENSt15iterator_traitsIT_E15difference_typeES2_S2_
                0x000000000800267e       0x28 Core/Inc/Message.o
                0x000000000800267e                std::iterator_traits<unsigned char*>::difference_type std::distance<unsigned char*>(unsigned char*, unsigned char*)
 *fill*         0x00000000080026a6        0x2 
 .text._ZNSt6vectorIhSaIhEE17_S_check_init_lenEjRKS0_
                0x00000000080026a8       0x50 Core/Inc/Message.o
                0x00000000080026a8                std::vector<unsigned char, std::allocator<unsigned char> >::_S_check_init_len(unsigned int, std::allocator<unsigned char> const&)
 .text._ZNSt12_Vector_baseIhSaIhEE11_M_allocateEj
                0x00000000080026f8       0x28 Core/Inc/Message.o
                0x00000000080026f8                std::_Vector_base<unsigned char, std::allocator<unsigned char> >::_M_allocate(unsigned int)
 .text._ZSt22__uninitialized_copy_aIPhS0_hET0_T_S2_S1_RSaIT1_E
                0x0000000008002720       0x22 Core/Inc/Message.o
                0x0000000008002720                unsigned char* std::__uninitialized_copy_a<unsigned char*, unsigned char*, unsigned char>(unsigned char*, unsigned char*, unsigned char*, std::allocator<unsigned char>&)
 .text._ZNSt6bitsetILj32EE14_M_do_sanitizeEv
                0x0000000008002742       0x22 Core/Inc/Message.o
                0x0000000008002742                std::bitset<32u>::_M_do_sanitize()
 .text._ZNSaIhEC2ERKS_
                0x0000000008002764       0x1c Core/Inc/Message.o
                0x0000000008002764                std::allocator<unsigned char>::allocator(std::allocator<unsigned char> const&)
                0x0000000008002764                std::allocator<unsigned char>::allocator(std::allocator<unsigned char> const&)
 .text._ZNSt12_Vector_baseIhSaIhEE17_Vector_impl_dataC2Ev
                0x0000000008002780       0x26 Core/Inc/Message.o
                0x0000000008002780                std::_Vector_base<unsigned char, std::allocator<unsigned char> >::_Vector_impl_data::_Vector_impl_data()
                0x0000000008002780                std::_Vector_base<unsigned char, std::allocator<unsigned char> >::_Vector_impl_data::_Vector_impl_data()
 .text._ZSt10__distanceIPhENSt15iterator_traitsIT_E15difference_typeES2_S2_St26random_access_iterator_tag
                0x00000000080027a6       0x1c Core/Inc/Message.o
                0x00000000080027a6                std::iterator_traits<unsigned char*>::difference_type std::__distance<unsigned char*>(unsigned char*, unsigned char*, std::random_access_iterator_tag)
 .text._ZNSt6vectorIhSaIhEE11_S_max_sizeERKS0_
                0x00000000080027c2       0x34 Core/Inc/Message.o
                0x00000000080027c2                std::vector<unsigned char, std::allocator<unsigned char> >::_S_max_size(std::allocator<unsigned char> const&)
 .text._ZNSt16allocator_traitsISaIhEE8allocateERS0_j
                0x00000000080027f6       0x1e Core/Inc/Message.o
                0x00000000080027f6                std::allocator_traits<std::allocator<unsigned char> >::allocate(std::allocator<unsigned char>&, unsigned int)
 .text._ZSt18uninitialized_copyIPhS0_ET0_T_S2_S1_
                0x0000000008002814       0x24 Core/Inc/Message.o
                0x0000000008002814                unsigned char* std::uninitialized_copy<unsigned char*, unsigned char*>(unsigned char*, unsigned char*, unsigned char*)
 .text._ZN9__gnu_cxx13new_allocatorIhEC2ERKS1_
                0x0000000008002838       0x16 Core/Inc/Message.o
                0x0000000008002838                __gnu_cxx::new_allocator<unsigned char>::new_allocator(__gnu_cxx::new_allocator<unsigned char> const&)
                0x0000000008002838                __gnu_cxx::new_allocator<unsigned char>::new_allocator(__gnu_cxx::new_allocator<unsigned char> const&)
 .text._ZNSt16allocator_traitsISaIhEE8max_sizeERKS0_
                0x000000000800284e       0x18 Core/Inc/Message.o
                0x000000000800284e                std::allocator_traits<std::allocator<unsigned char> >::max_size(std::allocator<unsigned char> const&)
 .text._ZN9__gnu_cxx13new_allocatorIhE8allocateEjPKv
                0x0000000008002866       0x38 Core/Inc/Message.o
                0x0000000008002866                __gnu_cxx::new_allocator<unsigned char>::allocate(unsigned int, void const*)
 .text._ZNSt20__uninitialized_copyILb1EE13__uninit_copyIPhS2_EET0_T_S4_S3_
                0x000000000800289e       0x20 Core/Inc/Message.o
                0x000000000800289e                unsigned char* std::__uninitialized_copy<true>::__uninit_copy<unsigned char*, unsigned char*>(unsigned char*, unsigned char*, unsigned char*)
 .text._ZNK9__gnu_cxx13new_allocatorIhE8max_sizeEv
                0x00000000080028be       0x16 Core/Inc/Message.o
                0x00000000080028be                __gnu_cxx::new_allocator<unsigned char>::max_size() const
 .text._ZSt4copyIPhS0_ET0_T_S2_S1_
                0x00000000080028d4       0x30 Core/Inc/Message.o
                0x00000000080028d4                unsigned char* std::copy<unsigned char*, unsigned char*>(unsigned char*, unsigned char*, unsigned char*)
 .text._ZSt12__miter_baseIPhET_S1_
                0x0000000008002904       0x14 Core/Inc/Message.o
                0x0000000008002904                unsigned char* std::__miter_base<unsigned char*>(unsigned char*)
 .text._ZSt14__copy_move_a2ILb0EPhS0_ET1_T0_S2_S1_
                0x0000000008002918       0x46 Core/Inc/Message.o
                0x0000000008002918                unsigned char* std::__copy_move_a2<false, unsigned char*, unsigned char*>(unsigned char*, unsigned char*, unsigned char*)
 .text._ZSt12__niter_baseIPhET_S1_
                0x000000000800295e       0x14 Core/Inc/Message.o
                0x000000000800295e                unsigned char* std::__niter_base<unsigned char*>(unsigned char*)
 .text._ZSt13__copy_move_aILb0EPhS0_ET1_T0_S2_S1_
                0x0000000008002972       0x24 Core/Inc/Message.o
                0x0000000008002972                unsigned char* std::__copy_move_a<false, unsigned char*, unsigned char*>(unsigned char*, unsigned char*, unsigned char*)
 .text._ZSt12__niter_wrapIPhET_RKS1_S1_
                0x0000000008002996       0x16 Core/Inc/Message.o
                0x0000000008002996                unsigned char* std::__niter_wrap<unsigned char*>(unsigned char* const&, unsigned char*)
 .text._ZNSt11__copy_moveILb0ELb1ESt26random_access_iterator_tagE8__copy_mIhEEPT_PKS3_S6_S4_
                0x00000000080029ac       0x34 Core/Inc/Message.o
                0x00000000080029ac                unsigned char* std::__copy_move<false, true, std::random_access_iterator_tag>::__copy_m<unsigned char>(unsigned char const*, unsigned char const*, unsigned char*)
 .text._ZNSt12_Vector_baseIN7RoboCAN5SlaveESaIS1_EE12_Vector_implD2Ev
                0x00000000080029e0       0x18 Core/Inc/Slave.o
                0x00000000080029e0                std::_Vector_base<RoboCAN::Slave, std::allocator<RoboCAN::Slave> >::_Vector_impl::~_Vector_impl()
                0x00000000080029e0                std::_Vector_base<RoboCAN::Slave, std::allocator<RoboCAN::Slave> >::_Vector_impl::~_Vector_impl()
 .text._ZNSt12_Vector_baseIN7RoboCAN5SlaveESaIS1_EEC2Ev
                0x00000000080029f8       0x1a Core/Inc/Slave.o
                0x00000000080029f8                std::_Vector_base<RoboCAN::Slave, std::allocator<RoboCAN::Slave> >::_Vector_base()
                0x00000000080029f8                std::_Vector_base<RoboCAN::Slave, std::allocator<RoboCAN::Slave> >::_Vector_base()
 .text._ZNSt6vectorIN7RoboCAN5SlaveESaIS1_EEC2Ev
                0x0000000008002a12       0x1a Core/Inc/Slave.o
                0x0000000008002a12                std::vector<RoboCAN::Slave, std::allocator<RoboCAN::Slave> >::vector()
                0x0000000008002a12                std::vector<RoboCAN::Slave, std::allocator<RoboCAN::Slave> >::vector()
 .text._ZNSt12_Vector_baseISt8functionIFvRN7RoboCAN7MessageEEESaIS5_EEC2Ev
                0x0000000008002a2c       0x1a Core/Inc/Slave.o
                0x0000000008002a2c                std::_Vector_base<std::function<void (RoboCAN::Message&)>, std::allocator<std::function<void (RoboCAN::Message&)> > >::_Vector_base()
                0x0000000008002a2c                std::_Vector_base<std::function<void (RoboCAN::Message&)>, std::allocator<std::function<void (RoboCAN::Message&)> > >::_Vector_base()
 .text._ZNSt6vectorISt8functionIFvRN7RoboCAN7MessageEEESaIS5_EEC2Ev
                0x0000000008002a46       0x1a Core/Inc/Slave.o
                0x0000000008002a46                std::vector<std::function<void (RoboCAN::Message&)>, std::allocator<std::function<void (RoboCAN::Message&)> > >::vector()
                0x0000000008002a46                std::vector<std::function<void (RoboCAN::Message&)>, std::allocator<std::function<void (RoboCAN::Message&)> > >::vector()
 .text._ZN7RoboCAN5SlaveC2Ej
                0x0000000008002a60       0x28 Core/Inc/Slave.o
                0x0000000008002a60                RoboCAN::Slave::Slave(unsigned int)
                0x0000000008002a60                RoboCAN::Slave::Slave(unsigned int)
 .text._ZN7RoboCAN5Slave5getIdEv
                0x0000000008002a88       0x16 Core/Inc/Slave.o
                0x0000000008002a88                RoboCAN::Slave::getId()
 .text._ZNSt12_Vector_baseIN7RoboCAN5SlaveESaIS1_EE12_Vector_implC2Ev
                0x0000000008002a9e       0x20 Core/Inc/Slave.o
                0x0000000008002a9e                std::_Vector_base<RoboCAN::Slave, std::allocator<RoboCAN::Slave> >::_Vector_impl::_Vector_impl()
                0x0000000008002a9e                std::_Vector_base<RoboCAN::Slave, std::allocator<RoboCAN::Slave> >::_Vector_impl::_Vector_impl()
 .text._ZNSaIN7RoboCAN5SlaveEED2Ev
                0x0000000008002abe       0x18 Core/Inc/Slave.o
                0x0000000008002abe                std::allocator<RoboCAN::Slave>::~allocator()
                0x0000000008002abe                std::allocator<RoboCAN::Slave>::~allocator()
 .text._ZNSt12_Vector_baseIN7RoboCAN5SlaveESaIS1_EED2Ev
                0x0000000008002ad6       0x32 Core/Inc/Slave.o
                0x0000000008002ad6                std::_Vector_base<RoboCAN::Slave, std::allocator<RoboCAN::Slave> >::~_Vector_base()
                0x0000000008002ad6                std::_Vector_base<RoboCAN::Slave, std::allocator<RoboCAN::Slave> >::~_Vector_base()
 .text._ZNSt12_Vector_baseISt8functionIFvRN7RoboCAN7MessageEEESaIS5_EE12_Vector_implC2Ev
                0x0000000008002b08       0x20 Core/Inc/Slave.o
                0x0000000008002b08                std::_Vector_base<std::function<void (RoboCAN::Message&)>, std::allocator<std::function<void (RoboCAN::Message&)> > >::_Vector_impl::_Vector_impl()
                0x0000000008002b08                std::_Vector_base<std::function<void (RoboCAN::Message&)>, std::allocator<std::function<void (RoboCAN::Message&)> > >::_Vector_impl::_Vector_impl()
 .text._ZNSaIN7RoboCAN5SlaveEEC2Ev
                0x0000000008002b28       0x18 Core/Inc/Slave.o
                0x0000000008002b28                std::allocator<RoboCAN::Slave>::allocator()
                0x0000000008002b28                std::allocator<RoboCAN::Slave>::allocator()
 .text._ZNSt12_Vector_baseIN7RoboCAN5SlaveESaIS1_EE17_Vector_impl_dataC2Ev
                0x0000000008002b40       0x26 Core/Inc/Slave.o
                0x0000000008002b40                std::_Vector_base<RoboCAN::Slave, std::allocator<RoboCAN::Slave> >::_Vector_impl_data::_Vector_impl_data()
                0x0000000008002b40                std::_Vector_base<RoboCAN::Slave, std::allocator<RoboCAN::Slave> >::_Vector_impl_data::_Vector_impl_data()
 .text._ZN9__gnu_cxx13new_allocatorIN7RoboCAN5SlaveEED2Ev
                0x0000000008002b66       0x14 Core/Inc/Slave.o
                0x0000000008002b66                __gnu_cxx::new_allocator<RoboCAN::Slave>::~new_allocator()
                0x0000000008002b66                __gnu_cxx::new_allocator<RoboCAN::Slave>::~new_allocator()
 .text._ZNSt12_Vector_baseIN7RoboCAN5SlaveESaIS1_EE13_M_deallocateEPS1_j
                0x0000000008002b7a       0x26 Core/Inc/Slave.o
                0x0000000008002b7a                std::_Vector_base<RoboCAN::Slave, std::allocator<RoboCAN::Slave> >::_M_deallocate(RoboCAN::Slave*, unsigned int)
 .text._ZNSaISt8functionIFvRN7RoboCAN7MessageEEEEC2Ev
                0x0000000008002ba0       0x18 Core/Inc/Slave.o
                0x0000000008002ba0                std::allocator<std::function<void (RoboCAN::Message&)> >::allocator()
                0x0000000008002ba0                std::allocator<std::function<void (RoboCAN::Message&)> >::allocator()
 .text._ZN9__gnu_cxx13new_allocatorIN7RoboCAN5SlaveEEC2Ev
                0x0000000008002bb8       0x14 Core/Inc/Slave.o
                0x0000000008002bb8                __gnu_cxx::new_allocator<RoboCAN::Slave>::new_allocator()
                0x0000000008002bb8                __gnu_cxx::new_allocator<RoboCAN::Slave>::new_allocator()
 .text._ZNSt16allocator_traitsISaIN7RoboCAN5SlaveEEE10deallocateERS2_PS1_j
                0x0000000008002bcc       0x1e Core/Inc/Slave.o
                0x0000000008002bcc                std::allocator_traits<std::allocator<RoboCAN::Slave> >::deallocate(std::allocator<RoboCAN::Slave>&, RoboCAN::Slave*, unsigned int)
 .text._ZN9__gnu_cxx13new_allocatorISt8functionIFvRN7RoboCAN7MessageEEEEC2Ev
                0x0000000008002bea       0x14 Core/Inc/Slave.o
                0x0000000008002bea                __gnu_cxx::new_allocator<std::function<void (RoboCAN::Message&)> >::new_allocator()
                0x0000000008002bea                __gnu_cxx::new_allocator<std::function<void (RoboCAN::Message&)> >::new_allocator()
 .text._ZN9__gnu_cxx13new_allocatorIN7RoboCAN5SlaveEE10deallocateEPS2_j
                0x0000000008002bfe       0x1a Core/Inc/Slave.o
                0x0000000008002bfe                __gnu_cxx::new_allocator<RoboCAN::Slave>::deallocate(RoboCAN::Slave*, unsigned int)
 .text._Z41__static_initialization_and_destruction_0ii
                0x0000000008002c18       0x44 Core/Inc/Slave.o
 .text._ZNSt6vectorIN7RoboCAN5SlaveESaIS1_EED2Ev
                0x0000000008002c5c       0x36 Core/Inc/Slave.o
                0x0000000008002c5c                std::vector<RoboCAN::Slave, std::allocator<RoboCAN::Slave> >::~vector()
                0x0000000008002c5c                std::vector<RoboCAN::Slave, std::allocator<RoboCAN::Slave> >::~vector()
 .text._ZNSt12_Vector_baseIN7RoboCAN5SlaveESaIS1_EE19_M_get_Tp_allocatorEv
                0x0000000008002c92       0x14 Core/Inc/Slave.o
                0x0000000008002c92                std::_Vector_base<RoboCAN::Slave, std::allocator<RoboCAN::Slave> >::_M_get_Tp_allocator()
 .text._ZSt8_DestroyIPN7RoboCAN5SlaveES1_EvT_S3_RSaIT0_E
                0x0000000008002ca6       0x1c Core/Inc/Slave.o
                0x0000000008002ca6                void std::_Destroy<RoboCAN::Slave*, RoboCAN::Slave>(RoboCAN::Slave*, RoboCAN::Slave*, std::allocator<RoboCAN::Slave>&)
 .text._ZSt8_DestroyIPN7RoboCAN5SlaveEEvT_S3_
                0x0000000008002cc2       0x1a Core/Inc/Slave.o
                0x0000000008002cc2                void std::_Destroy<RoboCAN::Slave*>(RoboCAN::Slave*, RoboCAN::Slave*)
 .text._ZNSt12_Destroy_auxILb0EE9__destroyIPN7RoboCAN5SlaveEEEvT_S5_
                0x0000000008002cdc       0x30 Core/Inc/Slave.o
                0x0000000008002cdc                void std::_Destroy_aux<false>::__destroy<RoboCAN::Slave*>(RoboCAN::Slave*, RoboCAN::Slave*)
 .text._ZSt11__addressofIN7RoboCAN5SlaveEEPT_RS2_
                0x0000000008002d0c       0x14 Core/Inc/Slave.o
                0x0000000008002d0c                RoboCAN::Slave* std::__addressof<RoboCAN::Slave>(RoboCAN::Slave&)
 .text._ZSt8_DestroyIN7RoboCAN5SlaveEEvPT_
                0x0000000008002d20       0x16 Core/Inc/Slave.o
                0x0000000008002d20                void std::_Destroy<RoboCAN::Slave>(RoboCAN::Slave*)
 .text._GLOBAL__sub_I__ZN7RoboCAN8slaveVecE
                0x0000000008002d36       0x10 Core/Inc/Slave.o
 .text._GLOBAL__sub_D__ZN7RoboCAN8slaveVecE
                0x0000000008002d46       0x10 Core/Inc/Slave.o
 *fill*         0x0000000008002d56        0x2 
 .text.MX_CAN_Init
                0x0000000008002d58       0x70 Core/Src/can.o
                0x0000000008002d58                MX_CAN_Init
 .text.HAL_CAN_MspInit
                0x0000000008002dc8       0xb8 Core/Src/can.o
                0x0000000008002dc8                HAL_CAN_MspInit
 .text.LL_APB2_GRP1_EnableClock
                0x0000000008002e80       0x30 Core/Src/gpio.o
 .text.LL_GPIO_ResetOutputPin
                0x0000000008002eb0       0x1e Core/Src/gpio.o
 *fill*         0x0000000008002ece        0x2 
 .text.MX_GPIO_Init
                0x0000000008002ed0       0x54 Core/Src/gpio.o
                0x0000000008002ed0                MX_GPIO_Init
 .text.LL_RCC_HSE_EnableBypass
                0x0000000008002f24       0x1c Core/Src/main.o
 .text.LL_RCC_HSE_Enable
                0x0000000008002f40       0x1c Core/Src/main.o
 .text.LL_RCC_HSE_IsReady
                0x0000000008002f5c       0x24 Core/Src/main.o
 .text.LL_RCC_SetSysClkSource
                0x0000000008002f80       0x28 Core/Src/main.o
 .text.LL_RCC_GetSysClkSource
                0x0000000008002fa8       0x18 Core/Src/main.o
 .text.LL_RCC_SetAHBPrescaler
                0x0000000008002fc0       0x28 Core/Src/main.o
 .text.LL_RCC_SetAPB1Prescaler
                0x0000000008002fe8       0x28 Core/Src/main.o
 .text.LL_RCC_SetAPB2Prescaler
                0x0000000008003010       0x28 Core/Src/main.o
 .text.LL_RCC_PLL_Enable
                0x0000000008003038       0x1c Core/Src/main.o
 .text.LL_RCC_PLL_IsReady
                0x0000000008003054       0x24 Core/Src/main.o
 .text.LL_RCC_PLL_ConfigDomain_SYS
                0x0000000008003078       0x30 Core/Src/main.o
 .text.LL_FLASH_SetLatency
                0x00000000080030a8       0x28 Core/Src/main.o
 .text.LL_FLASH_GetLatency
                0x00000000080030d0       0x18 Core/Src/main.o
 .text.LL_GPIO_SetOutputPin
                0x00000000080030e8       0x1e Core/Src/main.o
 .text.LL_USART_TransmitData8
                0x0000000008003106       0x1c Core/Src/main.o
 .text._ZNSt9_Any_data9_M_accessEv
                0x0000000008003122       0x14 Core/Src/main.o
                0x0000000008003122                std::_Any_data::_M_access()
 .text._ZNKSt9_Any_data9_M_accessEv
                0x0000000008003136       0x14 Core/Src/main.o
                0x0000000008003136                std::_Any_data::_M_access() const
 .text._ZNK7RoboCAN6Master11getMasterIdEv
                0x000000000800314a       0x16 Core/Src/main.o
                0x000000000800314a                RoboCAN::Master::getMasterId() const
 .text._Z23czujnikStarej_onReceiveRN7RoboCAN7MessageE
                0x0000000008003160       0x50 Core/Src/main.o
                0x0000000008003160                czujnikStarej_onReceive(RoboCAN::Message&)
 .text._ZZ4mainENKUlRN7RoboCAN7MessageEE_clES1_
                0x00000000080031b0       0x1e Core/Src/main.o
 .text._ZZ4mainENKUlRN7RoboCAN7MessageEE0_clES1_
                0x00000000080031ce       0x1e Core/Src/main.o
 .text._ZZ4mainENKUlRN7RoboCAN7MessageEE1_clES1_
                0x00000000080031ec       0x1e Core/Src/main.o
 .text._ZZ4mainENKUlRN7RoboCAN7MessageEE2_clES1_
                0x000000000800320a       0x1e Core/Src/main.o
 .text.main     0x0000000008003228      0x200 Core/Src/main.o
                0x0000000008003228                main
 .text._Z18SystemClock_Configv
                0x0000000008003428       0xbc Core/Src/main.o
                0x0000000008003428                SystemClock_Config()
 .text.Error_Handler
                0x00000000080034e4        0xa Core/Src/main.o
                0x00000000080034e4                Error_Handler
 .text._ZNSt6vectorIhSaIhEEC2ERKS1_
                0x00000000080034ee       0x7a Core/Src/main.o
                0x00000000080034ee                std::vector<unsigned char, std::allocator<unsigned char> >::vector(std::vector<unsigned char, std::allocator<unsigned char> > const&)
                0x00000000080034ee                std::vector<unsigned char, std::allocator<unsigned char> >::vector(std::vector<unsigned char, std::allocator<unsigned char> > const&)
 .text._ZNSt8functionIFvRN7RoboCAN7MessageEEEC2IZ4mainEUlS2_E_vvEET_
                0x0000000008003568       0x54 Core/Src/main.o
 .text._ZNSt6vectorISt8functionIFvRN7RoboCAN7MessageEEESaIS5_EE9push_backEOS5_
                0x00000000080035bc       0x22 Core/Src/main.o
                0x00000000080035bc                std::vector<std::function<void (RoboCAN::Message&)>, std::allocator<std::function<void (RoboCAN::Message&)> > >::push_back(std::function<void (RoboCAN::Message&)>&&)
 *fill*         0x00000000080035de        0x2 
 .text._ZNSt8functionIFvRN7RoboCAN7MessageEEEC2IZ4mainEUlS2_E0_vvEET_
                0x00000000080035e0       0x54 Core/Src/main.o
 .text._ZNSt8functionIFvRN7RoboCAN7MessageEEEC2IZ4mainEUlS2_E1_vvEET_
                0x0000000008003634       0x54 Core/Src/main.o
 .text._ZNSt8functionIFvRN7RoboCAN7MessageEEEC2IZ4mainEUlS2_E2_vvEET_
                0x0000000008003688       0x54 Core/Src/main.o
 .text._ZNSt6vectorIN7RoboCAN5SlaveESaIS1_EE9push_backERKS1_
                0x00000000080036dc       0x4c Core/Src/main.o
                0x00000000080036dc                std::vector<RoboCAN::Slave, std::allocator<RoboCAN::Slave> >::push_back(RoboCAN::Slave const&)
 .text._ZNSt8functionIFvRN7RoboCAN7MessageEEEC2IPS3_vvEET_
                0x0000000008003728       0x54 Core/Src/main.o
                0x0000000008003728                std::function<void (RoboCAN::Message&)>::function<void (*)(RoboCAN::Message&), void, void>(void (*)(RoboCAN::Message&))
                0x0000000008003728                std::function<void (RoboCAN::Message&)>::function<void (*)(RoboCAN::Message&), void, void>(void (*)(RoboCAN::Message&))
 .text._ZN9__gnu_cxx14__alloc_traitsISaIhEhE17_S_select_on_copyERKS1_
                0x000000000800377c       0x1c Core/Src/main.o
                0x000000000800377c                __gnu_cxx::__alloc_traits<std::allocator<unsigned char>, unsigned char>::_S_select_on_copy(std::allocator<unsigned char> const&)
 .text._ZNKSt12_Vector_baseIhSaIhEE19_M_get_Tp_allocatorEv
                0x0000000008003798       0x14 Core/Src/main.o
                0x0000000008003798                std::_Vector_base<unsigned char, std::allocator<unsigned char> >::_M_get_Tp_allocator() const
 .text._ZNSt12_Vector_baseIhSaIhEEC2EjRKS0_
                0x00000000080037ac       0x28 Core/Src/main.o
                0x00000000080037ac                std::_Vector_base<unsigned char, std::allocator<unsigned char> >::_Vector_base(unsigned int, std::allocator<unsigned char> const&)
                0x00000000080037ac                std::_Vector_base<unsigned char, std::allocator<unsigned char> >::_Vector_base(unsigned int, std::allocator<unsigned char> const&)
 .text._ZNKSt6vectorIhSaIhEE5beginEv
                0x00000000080037d4       0x28 Core/Src/main.o
                0x00000000080037d4                std::vector<unsigned char, std::allocator<unsigned char> >::begin() const
 .text._ZNKSt6vectorIhSaIhEE3endEv
                0x00000000080037fc       0x28 Core/Src/main.o
                0x00000000080037fc                std::vector<unsigned char, std::allocator<unsigned char> >::end() const
 .text._ZSt22__uninitialized_copy_aIN9__gnu_cxx17__normal_iteratorIPKhSt6vectorIhSaIhEEEEPhhET0_T_SA_S9_RSaIT1_E
                0x0000000008003824       0x22 Core/Src/main.o
                0x0000000008003824                unsigned char* std::__uninitialized_copy_a<__gnu_cxx::__normal_iterator<unsigned char const*, std::vector<unsigned char, std::allocator<unsigned char> > >, unsigned char*, unsigned char>(__gnu_cxx::__normal_iterator<unsigned char const*, std::vector<unsigned char, std::allocator<unsigned char> > >, __gnu_cxx::__normal_iterator<unsigned char const*, std::vector<unsigned char, std::allocator<unsigned char> > >, unsigned char*, std::allocator<unsigned char>&)
 .text._ZNSt14_Function_base13_Base_managerIZ4mainEUlRN7RoboCAN7MessageEE_E21_M_not_empty_functionIS4_EEbRKT_
                0x0000000008003846       0x14 Core/Src/main.o
 .text._ZSt4moveIRZ4mainEUlRN7RoboCAN7MessageEE_EONSt16remove_referenceIT_E4typeEOS6_
                0x000000000800385a       0x14 Core/Src/main.o
 .text._ZNSt14_Function_base13_Base_managerIZ4mainEUlRN7RoboCAN7MessageEE_E15_M_init_functorERSt9_Any_dataOS4_
                0x000000000800386e       0x24 Core/Src/main.o
 .text._ZNSt17_Function_handlerIFvRN7RoboCAN7MessageEEZ4mainEUlS2_E_E9_M_invokeERKSt9_Any_dataS2_
                0x0000000008003892       0x2a Core/Src/main.o
 .text._ZNSt14_Function_base13_Base_managerIZ4mainEUlRN7RoboCAN7MessageEE_E10_M_managerERSt9_Any_dataRKS6_St18_Manager_operation
                0x00000000080038bc       0x56 Core/Src/main.o
 .text._ZSt4moveIRSt8functionIFvRN7RoboCAN7MessageEEEEONSt16remove_referenceIT_E4typeEOS8_
                0x0000000008003912       0x14 Core/Src/main.o
                0x0000000008003912                std::remove_reference<std::function<void (RoboCAN::Message&)>&>::type&& std::move<std::function<void (RoboCAN::Message&)>&>(std::function<void (RoboCAN::Message&)>&)
 .text._ZNSt6vectorISt8functionIFvRN7RoboCAN7MessageEEESaIS5_EE12emplace_backIJS5_EEEvDpOT_
                0x0000000008003926       0x5e Core/Src/main.o
                0x0000000008003926                void std::vector<std::function<void (RoboCAN::Message&)>, std::allocator<std::function<void (RoboCAN::Message&)> > >::emplace_back<std::function<void (RoboCAN::Message&)> >(std::function<void (RoboCAN::Message&)>&&)
 .text._ZNSt14_Function_base13_Base_managerIZ4mainEUlRN7RoboCAN7MessageEE0_E21_M_not_empty_functionIS4_EEbRKT_
                0x0000000008003984       0x14 Core/Src/main.o
 .text._ZSt4moveIRZ4mainEUlRN7RoboCAN7MessageEE0_EONSt16remove_referenceIT_E4typeEOS6_
                0x0000000008003998       0x14 Core/Src/main.o
 .text._ZNSt14_Function_base13_Base_managerIZ4mainEUlRN7RoboCAN7MessageEE0_E15_M_init_functorERSt9_Any_dataOS4_
                0x00000000080039ac       0x24 Core/Src/main.o
 .text._ZNSt17_Function_handlerIFvRN7RoboCAN7MessageEEZ4mainEUlS2_E0_E9_M_invokeERKSt9_Any_dataS2_
                0x00000000080039d0       0x2a Core/Src/main.o
 .text._ZNSt14_Function_base13_Base_managerIZ4mainEUlRN7RoboCAN7MessageEE0_E10_M_managerERSt9_Any_dataRKS6_St18_Manager_operation
                0x00000000080039fa       0x56 Core/Src/main.o
 .text._ZNSt14_Function_base13_Base_managerIZ4mainEUlRN7RoboCAN7MessageEE1_E21_M_not_empty_functionIS4_EEbRKT_
                0x0000000008003a50       0x14 Core/Src/main.o
 .text._ZSt4moveIRZ4mainEUlRN7RoboCAN7MessageEE1_EONSt16remove_referenceIT_E4typeEOS6_
                0x0000000008003a64       0x14 Core/Src/main.o
 .text._ZNSt14_Function_base13_Base_managerIZ4mainEUlRN7RoboCAN7MessageEE1_E15_M_init_functorERSt9_Any_dataOS4_
                0x0000000008003a78       0x24 Core/Src/main.o
 .text._ZNSt17_Function_handlerIFvRN7RoboCAN7MessageEEZ4mainEUlS2_E1_E9_M_invokeERKSt9_Any_dataS2_
                0x0000000008003a9c       0x2a Core/Src/main.o
 .text._ZNSt14_Function_base13_Base_managerIZ4mainEUlRN7RoboCAN7MessageEE1_E10_M_managerERSt9_Any_dataRKS6_St18_Manager_operation
                0x0000000008003ac6       0x56 Core/Src/main.o
 .text._ZNSt14_Function_base13_Base_managerIZ4mainEUlRN7RoboCAN7MessageEE2_E21_M_not_empty_functionIS4_EEbRKT_
                0x0000000008003b1c       0x14 Core/Src/main.o
 .text._ZSt4moveIRZ4mainEUlRN7RoboCAN7MessageEE2_EONSt16remove_referenceIT_E4typeEOS6_
                0x0000000008003b30       0x14 Core/Src/main.o
 .text._ZNSt14_Function_base13_Base_managerIZ4mainEUlRN7RoboCAN7MessageEE2_E15_M_init_functorERSt9_Any_dataOS4_
                0x0000000008003b44       0x24 Core/Src/main.o
 .text._ZNSt17_Function_handlerIFvRN7RoboCAN7MessageEEZ4mainEUlS2_E2_E9_M_invokeERKSt9_Any_dataS2_
                0x0000000008003b68       0x2a Core/Src/main.o
 .text._ZNSt14_Function_base13_Base_managerIZ4mainEUlRN7RoboCAN7MessageEE2_E10_M_managerERSt9_Any_dataRKS6_St18_Manager_operation
                0x0000000008003b92       0x56 Core/Src/main.o
 .text._ZNSt16allocator_traitsISaIN7RoboCAN5SlaveEEE9constructIS1_JRKS1_EEEvRS2_PT_DpOT0_
                0x0000000008003be8       0x26 Core/Src/main.o
                0x0000000008003be8                void std::allocator_traits<std::allocator<RoboCAN::Slave> >::construct<RoboCAN::Slave, RoboCAN::Slave const&>(std::allocator<RoboCAN::Slave>&, RoboCAN::Slave*, RoboCAN::Slave const&)
 .text._ZNSt6vectorIN7RoboCAN5SlaveESaIS1_EE15_S_use_relocateEv
                0x0000000008003c0e       0x16 Core/Src/main.o
                0x0000000008003c0e                std::vector<RoboCAN::Slave, std::allocator<RoboCAN::Slave> >::_S_use_relocate()
 .text._ZNSt6vectorIN7RoboCAN5SlaveESaIS1_EE19_S_nothrow_relocateESt17integral_constantIbLb1EE
                0x0000000008003c24       0x14 Core/Src/main.o
                0x0000000008003c24                std::vector<RoboCAN::Slave, std::allocator<RoboCAN::Slave> >::_S_nothrow_relocate(std::integral_constant<bool, true>)
 .text._ZNSt6vectorIN7RoboCAN5SlaveESaIS1_EE17_M_realloc_insertIJRKS1_EEEvN9__gnu_cxx17__normal_iteratorIPS1_S3_EEDpOT_
                0x0000000008003c38      0x178 Core/Src/main.o
                0x0000000008003c38                void std::vector<RoboCAN::Slave, std::allocator<RoboCAN::Slave> >::_M_realloc_insert<RoboCAN::Slave const&>(__gnu_cxx::__normal_iterator<RoboCAN::Slave*, std::vector<RoboCAN::Slave, std::allocator<RoboCAN::Slave> > >, RoboCAN::Slave const&)
 .text._ZNSt14_Function_base13_Base_managerIPFvRN7RoboCAN7MessageEEE21_M_not_empty_functionIS4_EEbPT_
                0x0000000008003db0       0x1e Core/Src/main.o
                0x0000000008003db0                bool std::_Function_base::_Base_manager<void (*)(RoboCAN::Message&)>::_M_not_empty_function<void (RoboCAN::Message&)>(void (*)(RoboCAN::Message&))
 .text._ZSt4moveIRPFvRN7RoboCAN7MessageEEEONSt16remove_referenceIT_E4typeEOS7_
                0x0000000008003dce       0x14 Core/Src/main.o
                0x0000000008003dce                std::remove_reference<void (*&)(RoboCAN::Message&)>::type&& std::move<void (*&)(RoboCAN::Message&)>(void (*&)(RoboCAN::Message&))
 .text._ZNSt14_Function_base13_Base_managerIPFvRN7RoboCAN7MessageEEE15_M_init_functorERSt9_Any_dataOS5_
                0x0000000008003de2       0x24 Core/Src/main.o
                0x0000000008003de2                std::_Function_base::_Base_manager<void (*)(RoboCAN::Message&)>::_M_init_functor(std::_Any_data&, void (*&&)(RoboCAN::Message&))
 .text._ZNSt17_Function_handlerIFvRN7RoboCAN7MessageEEPS3_E9_M_invokeERKSt9_Any_dataS2_
                0x0000000008003e06       0x28 Core/Src/main.o
                0x0000000008003e06                std::_Function_handler<void (RoboCAN::Message&), void (*)(RoboCAN::Message&)>::_M_invoke(std::_Any_data const&, RoboCAN::Message&)
 .text._ZNSt14_Function_base13_Base_managerIPFvRN7RoboCAN7MessageEEE10_M_managerERSt9_Any_dataRKS7_St18_Manager_operation
                0x0000000008003e2e       0x56 Core/Src/main.o
                0x0000000008003e2e                std::_Function_base::_Base_manager<void (*)(RoboCAN::Message&)>::_M_manager(std::_Any_data&, std::_Any_data const&, std::_Manager_operation)
 .text._ZNSt16allocator_traitsISaIhEE37select_on_container_copy_constructionERKS0_
                0x0000000008003e84       0x1a Core/Src/main.o
                0x0000000008003e84                std::allocator_traits<std::allocator<unsigned char> >::select_on_container_copy_construction(std::allocator<unsigned char> const&)
 .text._ZNSt12_Vector_baseIhSaIhEE17_M_create_storageEj
                0x0000000008003e9e       0x34 Core/Src/main.o
                0x0000000008003e9e                std::_Vector_base<unsigned char, std::allocator<unsigned char> >::_M_create_storage(unsigned int)
 .text._ZN9__gnu_cxx17__normal_iteratorIPKhSt6vectorIhSaIhEEEC2ERKS2_
                0x0000000008003ed2       0x1e Core/Src/main.o
                0x0000000008003ed2                __gnu_cxx::__normal_iterator<unsigned char const*, std::vector<unsigned char, std::allocator<unsigned char> > >::__normal_iterator(unsigned char const* const&)
                0x0000000008003ed2                __gnu_cxx::__normal_iterator<unsigned char const*, std::vector<unsigned char, std::allocator<unsigned char> > >::__normal_iterator(unsigned char const* const&)
 .text._ZSt18uninitialized_copyIN9__gnu_cxx17__normal_iteratorIPKhSt6vectorIhSaIhEEEEPhET0_T_SA_S9_
                0x0000000008003ef0       0x24 Core/Src/main.o
                0x0000000008003ef0                unsigned char* std::uninitialized_copy<__gnu_cxx::__normal_iterator<unsigned char const*, std::vector<unsigned char, std::allocator<unsigned char> > >, unsigned char*>(__gnu_cxx::__normal_iterator<unsigned char const*, std::vector<unsigned char, std::allocator<unsigned char> > >, __gnu_cxx::__normal_iterator<unsigned char const*, std::vector<unsigned char, std::allocator<unsigned char> > >, unsigned char*)
 .text._ZNSt14_Function_base13_Base_managerIZ4mainEUlRN7RoboCAN7MessageEE_E15_M_init_functorERSt9_Any_dataOS4_St17integral_constantIbLb1EE
                0x0000000008003f14       0x32 Core/Src/main.o
 .text._ZNSt14_Function_base13_Base_managerIZ4mainEUlRN7RoboCAN7MessageEE_E14_M_get_pointerERKSt9_Any_data
                0x0000000008003f46       0x22 Core/Src/main.o
 .text._ZNSt9_Any_data9_M_accessIPZ4mainEUlRN7RoboCAN7MessageEE_EERT_v
                0x0000000008003f68       0x18 Core/Src/main.o
 .text._ZNSt14_Function_base13_Base_managerIZ4mainEUlRN7RoboCAN7MessageEE_E8_M_cloneERSt9_Any_dataRKS6_St17integral_constantIbLb1EE
                0x0000000008003f80       0x32 Core/Src/main.o
 .text._ZNSt14_Function_base13_Base_managerIZ4mainEUlRN7RoboCAN7MessageEE_E10_M_destroyERSt9_Any_dataSt17integral_constantIbLb1EE
                0x0000000008003fb2       0x18 Core/Src/main.o
 .text._ZSt7forwardISt8functionIFvRN7RoboCAN7MessageEEEEOT_RNSt16remove_referenceIS6_E4typeE
                0x0000000008003fca       0x14 Core/Src/main.o
                0x0000000008003fca                std::function<void (RoboCAN::Message&)>&& std::forward<std::function<void (RoboCAN::Message&)> >(std::remove_reference<std::function<void (RoboCAN::Message&)> >::type&)
 .text._ZNSt16allocator_traitsISaISt8functionIFvRN7RoboCAN7MessageEEEEE9constructIS5_JS5_EEEvRS6_PT_DpOT0_
                0x0000000008003fde       0x26 Core/Src/main.o
                0x0000000008003fde                void std::allocator_traits<std::allocator<std::function<void (RoboCAN::Message&)> > >::construct<std::function<void (RoboCAN::Message&)>, std::function<void (RoboCAN::Message&)> >(std::allocator<std::function<void (RoboCAN::Message&)> >&, std::function<void (RoboCAN::Message&)>*, std::function<void (RoboCAN::Message&)>&&)
 .text._ZNSt6vectorISt8functionIFvRN7RoboCAN7MessageEEESaIS5_EE3endEv
                0x0000000008004004       0x22 Core/Src/main.o
                0x0000000008004004                std::vector<std::function<void (RoboCAN::Message&)>, std::allocator<std::function<void (RoboCAN::Message&)> > >::end()
 .text._ZNSt6vectorISt8functionIFvRN7RoboCAN7MessageEEESaIS5_EE15_S_use_relocateEv
                0x0000000008004026       0x16 Core/Src/main.o
                0x0000000008004026                std::vector<std::function<void (RoboCAN::Message&)>, std::allocator<std::function<void (RoboCAN::Message&)> > >::_S_use_relocate()
 .text._ZNSt6vectorISt8functionIFvRN7RoboCAN7MessageEEESaIS5_EE19_S_nothrow_relocateESt17integral_constantIbLb1EE
                0x000000000800403c       0x14 Core/Src/main.o
                0x000000000800403c                std::vector<std::function<void (RoboCAN::Message&)>, std::allocator<std::function<void (RoboCAN::Message&)> > >::_S_nothrow_relocate(std::integral_constant<bool, true>)
 .text._ZNSt6vectorISt8functionIFvRN7RoboCAN7MessageEEESaIS5_EE17_M_realloc_insertIJS5_EEEvN9__gnu_cxx17__normal_iteratorIPS5_S7_EEDpOT_
                0x0000000008004050      0x178 Core/Src/main.o
                0x0000000008004050                void std::vector<std::function<void (RoboCAN::Message&)>, std::allocator<std::function<void (RoboCAN::Message&)> > >::_M_realloc_insert<std::function<void (RoboCAN::Message&)> >(__gnu_cxx::__normal_iterator<std::function<void (RoboCAN::Message&)>*, std::vector<std::function<void (RoboCAN::Message&)>, std::allocator<std::function<void (RoboCAN::Message&)> > > >, std::function<void (RoboCAN::Message&)>&&)
 .text._ZNSt14_Function_base13_Base_managerIZ4mainEUlRN7RoboCAN7MessageEE0_E15_M_init_functorERSt9_Any_dataOS4_St17integral_constantIbLb1EE
                0x00000000080041c8       0x32 Core/Src/main.o
 .text._ZNSt14_Function_base13_Base_managerIZ4mainEUlRN7RoboCAN7MessageEE0_E14_M_get_pointerERKSt9_Any_data
                0x00000000080041fa       0x22 Core/Src/main.o
 .text._ZNSt9_Any_data9_M_accessIPZ4mainEUlRN7RoboCAN7MessageEE0_EERT_v
                0x000000000800421c       0x18 Core/Src/main.o
 .text._ZNSt14_Function_base13_Base_managerIZ4mainEUlRN7RoboCAN7MessageEE0_E8_M_cloneERSt9_Any_dataRKS6_St17integral_constantIbLb1EE
                0x0000000008004234       0x32 Core/Src/main.o
 .text._ZNSt14_Function_base13_Base_managerIZ4mainEUlRN7RoboCAN7MessageEE0_E10_M_destroyERSt9_Any_dataSt17integral_constantIbLb1EE
                0x0000000008004266       0x18 Core/Src/main.o
 .text._ZNSt14_Function_base13_Base_managerIZ4mainEUlRN7RoboCAN7MessageEE1_E15_M_init_functorERSt9_Any_dataOS4_St17integral_constantIbLb1EE
                0x000000000800427e       0x32 Core/Src/main.o
 .text._ZNSt14_Function_base13_Base_managerIZ4mainEUlRN7RoboCAN7MessageEE1_E14_M_get_pointerERKSt9_Any_data
                0x00000000080042b0       0x22 Core/Src/main.o
 .text._ZNSt9_Any_data9_M_accessIPZ4mainEUlRN7RoboCAN7MessageEE1_EERT_v
                0x00000000080042d2       0x18 Core/Src/main.o
 .text._ZNSt14_Function_base13_Base_managerIZ4mainEUlRN7RoboCAN7MessageEE1_E8_M_cloneERSt9_Any_dataRKS6_St17integral_constantIbLb1EE
                0x00000000080042ea       0x32 Core/Src/main.o
 .text._ZNSt14_Function_base13_Base_managerIZ4mainEUlRN7RoboCAN7MessageEE1_E10_M_destroyERSt9_Any_dataSt17integral_constantIbLb1EE
                0x000000000800431c       0x18 Core/Src/main.o
 .text._ZNSt14_Function_base13_Base_managerIZ4mainEUlRN7RoboCAN7MessageEE2_E15_M_init_functorERSt9_Any_dataOS4_St17integral_constantIbLb1EE
                0x0000000008004334       0x32 Core/Src/main.o
 .text._ZNSt14_Function_base13_Base_managerIZ4mainEUlRN7RoboCAN7MessageEE2_E14_M_get_pointerERKSt9_Any_data
                0x0000000008004366       0x22 Core/Src/main.o
 .text._ZNSt9_Any_data9_M_accessIPZ4mainEUlRN7RoboCAN7MessageEE2_EERT_v
                0x0000000008004388       0x18 Core/Src/main.o
 .text._ZNSt14_Function_base13_Base_managerIZ4mainEUlRN7RoboCAN7MessageEE2_E8_M_cloneERSt9_Any_dataRKS6_St17integral_constantIbLb1EE
                0x00000000080043a0       0x32 Core/Src/main.o
 .text._ZNSt14_Function_base13_Base_managerIZ4mainEUlRN7RoboCAN7MessageEE2_E10_M_destroyERSt9_Any_dataSt17integral_constantIbLb1EE
                0x00000000080043d2       0x18 Core/Src/main.o
 .text._ZSt7forwardIRKN7RoboCAN5SlaveEEOT_RNSt16remove_referenceIS4_E4typeE
                0x00000000080043ea       0x14 Core/Src/main.o
                0x00000000080043ea                RoboCAN::Slave const& std::forward<RoboCAN::Slave const&>(std::remove_reference<RoboCAN::Slave const&>::type&)
 .text._ZN9__gnu_cxx13new_allocatorIN7RoboCAN5SlaveEE9constructIS2_JRKS2_EEEvPT_DpOT0_
                0x00000000080043fe       0x30 Core/Src/main.o
                0x00000000080043fe                void __gnu_cxx::new_allocator<RoboCAN::Slave>::construct<RoboCAN::Slave, RoboCAN::Slave const&>(RoboCAN::Slave*, RoboCAN::Slave const&)
 .text._ZNKSt6vectorIN7RoboCAN5SlaveESaIS1_EE12_M_check_lenEjPKc
                0x000000000800442e       0x8e Core/Src/main.o
                0x000000000800442e                std::vector<RoboCAN::Slave, std::allocator<RoboCAN::Slave> >::_M_check_len(unsigned int, char const*) const
 .text._ZN9__gnu_cxxmiIPN7RoboCAN5SlaveESt6vectorIS2_SaIS2_EEEENS_17__normal_iteratorIT_T0_E15difference_typeERKSA_SD_
                0x00000000080044bc       0x2a Core/Src/main.o
                0x00000000080044bc                __gnu_cxx::__normal_iterator<RoboCAN::Slave*, std::vector<RoboCAN::Slave, std::allocator<RoboCAN::Slave> > >::difference_type __gnu_cxx::operator-<RoboCAN::Slave*, std::vector<RoboCAN::Slave, std::allocator<RoboCAN::Slave> > >(__gnu_cxx::__normal_iterator<RoboCAN::Slave*, std::vector<RoboCAN::Slave, std::allocator<RoboCAN::Slave> > > const&, __gnu_cxx::__normal_iterator<RoboCAN::Slave*, std::vector<RoboCAN::Slave, std::allocator<RoboCAN::Slave> > > const&)
 .text._ZNSt12_Vector_baseIN7RoboCAN5SlaveESaIS1_EE11_M_allocateEj
                0x00000000080044e6       0x28 Core/Src/main.o
                0x00000000080044e6                std::_Vector_base<RoboCAN::Slave, std::allocator<RoboCAN::Slave> >::_M_allocate(unsigned int)
 .text._ZNSt6vectorIN7RoboCAN5SlaveESaIS1_EE11_S_relocateEPS1_S4_S4_RS2_
                0x000000000800450e       0x28 Core/Src/main.o
                0x000000000800450e                std::vector<RoboCAN::Slave, std::allocator<RoboCAN::Slave> >::_S_relocate(RoboCAN::Slave*, RoboCAN::Slave*, RoboCAN::Slave*, std::allocator<RoboCAN::Slave>&)
 .text._ZSt34__uninitialized_move_if_noexcept_aIPN7RoboCAN5SlaveES2_SaIS1_EET0_T_S5_S4_RT1_
                0x0000000008004536       0x32 Core/Src/main.o
                0x0000000008004536                RoboCAN::Slave* std::__uninitialized_move_if_noexcept_a<RoboCAN::Slave*, RoboCAN::Slave*, std::allocator<RoboCAN::Slave> >(RoboCAN::Slave*, RoboCAN::Slave*, RoboCAN::Slave*, std::allocator<RoboCAN::Slave>&)
 .text._ZNSt16allocator_traitsISaIN7RoboCAN5SlaveEEE7destroyIS1_EEvRS2_PT_
                0x0000000008004568       0x1a Core/Src/main.o
                0x0000000008004568                void std::allocator_traits<std::allocator<RoboCAN::Slave> >::destroy<RoboCAN::Slave>(std::allocator<RoboCAN::Slave>&, RoboCAN::Slave*)
 .text._ZNSt14_Function_base13_Base_managerIPFvRN7RoboCAN7MessageEEE15_M_init_functorERSt9_Any_dataOS5_St17integral_constantIbLb1EE
                0x0000000008004582       0x32 Core/Src/main.o
                0x0000000008004582                std::_Function_base::_Base_manager<void (*)(RoboCAN::Message&)>::_M_init_functor(std::_Any_data&, void (*&&)(RoboCAN::Message&), std::integral_constant<bool, true>)
 .text._ZNSt14_Function_base13_Base_managerIPFvRN7RoboCAN7MessageEEE14_M_get_pointerERKSt9_Any_data
                0x00000000080045b4       0x22 Core/Src/main.o
                0x00000000080045b4                std::_Function_base::_Base_manager<void (*)(RoboCAN::Message&)>::_M_get_pointer(std::_Any_data const&)
 .text._ZNSt9_Any_data9_M_accessIPPFvRN7RoboCAN7MessageEEEERT_v
                0x00000000080045d6       0x18 Core/Src/main.o
                0x00000000080045d6                void (**&std::_Any_data::_M_access<void (**)(RoboCAN::Message&)>())(RoboCAN::Message&)
 .text._ZNSt14_Function_base13_Base_managerIPFvRN7RoboCAN7MessageEEE8_M_cloneERSt9_Any_dataRKS7_St17integral_constantIbLb1EE
                0x00000000080045ee       0x32 Core/Src/main.o
                0x00000000080045ee                std::_Function_base::_Base_manager<void (*)(RoboCAN::Message&)>::_M_clone(std::_Any_data&, std::_Any_data const&, std::integral_constant<bool, true>)
 .text._ZNSt14_Function_base13_Base_managerIPFvRN7RoboCAN7MessageEEE10_M_destroyERSt9_Any_dataSt17integral_constantIbLb1EE
                0x0000000008004620       0x18 Core/Src/main.o
                0x0000000008004620                std::_Function_base::_Base_manager<void (*)(RoboCAN::Message&)>::_M_destroy(std::_Any_data&, std::integral_constant<bool, true>)
 .text._ZNSt20__uninitialized_copyILb1EE13__uninit_copyIN9__gnu_cxx17__normal_iteratorIPKhSt6vectorIhSaIhEEEEPhEET0_T_SC_SB_
                0x0000000008004638       0x20 Core/Src/main.o
                0x0000000008004638                unsigned char* std::__uninitialized_copy<true>::__uninit_copy<__gnu_cxx::__normal_iterator<unsigned char const*, std::vector<unsigned char, std::allocator<unsigned char> > >, unsigned char*>(__gnu_cxx::__normal_iterator<unsigned char const*, std::vector<unsigned char, std::allocator<unsigned char> > >, __gnu_cxx::__normal_iterator<unsigned char const*, std::vector<unsigned char, std::allocator<unsigned char> > >, unsigned char*)
 .text._ZNKSt9_Any_data9_M_accessIZ4mainEUlRN7RoboCAN7MessageEE_EERKT_v
                0x0000000008004658       0x18 Core/Src/main.o
 .text._ZSt11__addressofIKZ4mainEUlRN7RoboCAN7MessageEE_EPT_RS5_
                0x0000000008004670       0x14 Core/Src/main.o
 .text._ZNSt9_Any_data9_M_accessIZ4mainEUlRN7RoboCAN7MessageEE_EERT_v
                0x0000000008004684       0x18 Core/Src/main.o
 .text._ZN9__gnu_cxx13new_allocatorISt8functionIFvRN7RoboCAN7MessageEEEE9constructIS6_JS6_EEEvPT_DpOT0_
                0x000000000800469c       0x30 Core/Src/main.o
                0x000000000800469c                void __gnu_cxx::new_allocator<std::function<void (RoboCAN::Message&)> >::construct<std::function<void (RoboCAN::Message&)>, std::function<void (RoboCAN::Message&)> >(std::function<void (RoboCAN::Message&)>*, std::function<void (RoboCAN::Message&)>&&)
 .text._ZN9__gnu_cxx17__normal_iteratorIPSt8functionIFvRN7RoboCAN7MessageEEESt6vectorIS6_SaIS6_EEEC2ERKS7_
                0x00000000080046cc       0x1e Core/Src/main.o
                0x00000000080046cc                __gnu_cxx::__normal_iterator<std::function<void (RoboCAN::Message&)>*, std::vector<std::function<void (RoboCAN::Message&)>, std::allocator<std::function<void (RoboCAN::Message&)> > > >::__normal_iterator(std::function<void (RoboCAN::Message&)>* const&)
                0x00000000080046cc                __gnu_cxx::__normal_iterator<std::function<void (RoboCAN::Message&)>*, std::vector<std::function<void (RoboCAN::Message&)>, std::allocator<std::function<void (RoboCAN::Message&)> > > >::__normal_iterator(std::function<void (RoboCAN::Message&)>* const&)
 .text._ZNKSt6vectorISt8functionIFvRN7RoboCAN7MessageEEESaIS5_EE12_M_check_lenEjPKc
                0x00000000080046ea       0x8e Core/Src/main.o
                0x00000000080046ea                std::vector<std::function<void (RoboCAN::Message&)>, std::allocator<std::function<void (RoboCAN::Message&)> > >::_M_check_len(unsigned int, char const*) const
 .text._ZNSt6vectorISt8functionIFvRN7RoboCAN7MessageEEESaIS5_EE5beginEv
                0x0000000008004778       0x20 Core/Src/main.o
                0x0000000008004778                std::vector<std::function<void (RoboCAN::Message&)>, std::allocator<std::function<void (RoboCAN::Message&)> > >::begin()
 .text._ZN9__gnu_cxxmiIPSt8functionIFvRN7RoboCAN7MessageEEESt6vectorIS6_SaIS6_EEEENS_17__normal_iteratorIT_T0_E15difference_typeERKSE_SH_
                0x0000000008004798       0x2a Core/Src/main.o
                0x0000000008004798                __gnu_cxx::__normal_iterator<std::function<void (RoboCAN::Message&)>*, std::vector<std::function<void (RoboCAN::Message&)>, std::allocator<std::function<void (RoboCAN::Message&)> > > >::difference_type __gnu_cxx::operator-<std::function<void (RoboCAN::Message&)>*, std::vector<std::function<void (RoboCAN::Message&)>, std::allocator<std::function<void (RoboCAN::Message&)> > > >(__gnu_cxx::__normal_iterator<std::function<void (RoboCAN::Message&)>*, std::vector<std::function<void (RoboCAN::Message&)>, std::allocator<std::function<void (RoboCAN::Message&)> > > > const&, __gnu_cxx::__normal_iterator<std::function<void (RoboCAN::Message&)>*, std::vector<std::function<void (RoboCAN::Message&)>, std::allocator<std::function<void (RoboCAN::Message&)> > > > const&)
 .text._ZNSt6vectorISt8functionIFvRN7RoboCAN7MessageEEESaIS5_EE11_S_relocateEPS5_S8_S8_RS6_
                0x00000000080047c2       0x28 Core/Src/main.o
                0x00000000080047c2                std::vector<std::function<void (RoboCAN::Message&)>, std::allocator<std::function<void (RoboCAN::Message&)> > >::_S_relocate(std::function<void (RoboCAN::Message&)>*, std::function<void (RoboCAN::Message&)>*, std::function<void (RoboCAN::Message&)>*, std::allocator<std::function<void (RoboCAN::Message&)> >&)
 .text._ZNK9__gnu_cxx17__normal_iteratorIPSt8functionIFvRN7RoboCAN7MessageEEESt6vectorIS6_SaIS6_EEE4baseEv
                0x00000000080047ea       0x14 Core/Src/main.o
                0x00000000080047ea                __gnu_cxx::__normal_iterator<std::function<void (RoboCAN::Message&)>*, std::vector<std::function<void (RoboCAN::Message&)>, std::allocator<std::function<void (RoboCAN::Message&)> > > >::base() const
 .text._ZSt34__uninitialized_move_if_noexcept_aIPSt8functionIFvRN7RoboCAN7MessageEEES6_SaIS5_EET0_T_S9_S8_RT1_
                0x00000000080047fe       0x32 Core/Src/main.o
                0x00000000080047fe                std::function<void (RoboCAN::Message&)>* std::__uninitialized_move_if_noexcept_a<std::function<void (RoboCAN::Message&)>*, std::function<void (RoboCAN::Message&)>*, std::allocator<std::function<void (RoboCAN::Message&)> > >(std::function<void (RoboCAN::Message&)>*, std::function<void (RoboCAN::Message&)>*, std::function<void (RoboCAN::Message&)>*, std::allocator<std::function<void (RoboCAN::Message&)> >&)
 .text._ZNSt16allocator_traitsISaISt8functionIFvRN7RoboCAN7MessageEEEEE7destroyIS5_EEvRS6_PT_
                0x0000000008004830       0x1a Core/Src/main.o
                0x0000000008004830                void std::allocator_traits<std::allocator<std::function<void (RoboCAN::Message&)> > >::destroy<std::function<void (RoboCAN::Message&)> >(std::allocator<std::function<void (RoboCAN::Message&)> >&, std::function<void (RoboCAN::Message&)>*)
 .text._ZNKSt9_Any_data9_M_accessIZ4mainEUlRN7RoboCAN7MessageEE0_EERKT_v
                0x000000000800484a       0x18 Core/Src/main.o
 .text._ZSt11__addressofIKZ4mainEUlRN7RoboCAN7MessageEE0_EPT_RS5_
                0x0000000008004862       0x14 Core/Src/main.o
 .text._ZNSt9_Any_data9_M_accessIZ4mainEUlRN7RoboCAN7MessageEE0_EERT_v
                0x0000000008004876       0x18 Core/Src/main.o
 .text._ZNKSt9_Any_data9_M_accessIZ4mainEUlRN7RoboCAN7MessageEE1_EERKT_v
                0x000000000800488e       0x18 Core/Src/main.o
 .text._ZSt11__addressofIKZ4mainEUlRN7RoboCAN7MessageEE1_EPT_RS5_
                0x00000000080048a6       0x14 Core/Src/main.o
 .text._ZNSt9_Any_data9_M_accessIZ4mainEUlRN7RoboCAN7MessageEE1_EERT_v
                0x00000000080048ba       0x18 Core/Src/main.o
 .text._ZNKSt9_Any_data9_M_accessIZ4mainEUlRN7RoboCAN7MessageEE2_EERKT_v
                0x00000000080048d2       0x18 Core/Src/main.o
 .text._ZSt11__addressofIKZ4mainEUlRN7RoboCAN7MessageEE2_EPT_RS5_
                0x00000000080048ea       0x14 Core/Src/main.o
 .text._ZNSt9_Any_data9_M_accessIZ4mainEUlRN7RoboCAN7MessageEE2_EERT_v
                0x00000000080048fe       0x18 Core/Src/main.o
 .text._ZNKSt6vectorIN7RoboCAN5SlaveESaIS1_EE8max_sizeEv
                0x0000000008004916       0x22 Core/Src/main.o
                0x0000000008004916                std::vector<RoboCAN::Slave, std::allocator<RoboCAN::Slave> >::max_size() const
 .text._ZNSt16allocator_traitsISaIN7RoboCAN5SlaveEEE8allocateERS2_j
                0x0000000008004938       0x1e Core/Src/main.o
                0x0000000008004938                std::allocator_traits<std::allocator<RoboCAN::Slave> >::allocate(std::allocator<RoboCAN::Slave>&, unsigned int)
 .text._ZNSt6vectorIN7RoboCAN5SlaveESaIS1_EE14_S_do_relocateEPS1_S4_S4_RS2_St17integral_constantIbLb1EE
                0x0000000008004956       0x24 Core/Src/main.o
                0x0000000008004956                std::vector<RoboCAN::Slave, std::allocator<RoboCAN::Slave> >::_S_do_relocate(RoboCAN::Slave*, RoboCAN::Slave*, RoboCAN::Slave*, std::allocator<RoboCAN::Slave>&, std::integral_constant<bool, true>)
 .text._ZSt32__make_move_if_noexcept_iteratorIN7RoboCAN5SlaveESt13move_iteratorIPS1_EET0_PT_
                0x000000000800497a       0x1e Core/Src/main.o
                0x000000000800497a                std::move_iterator<RoboCAN::Slave*> std::__make_move_if_noexcept_iterator<RoboCAN::Slave, std::move_iterator<RoboCAN::Slave*> >(RoboCAN::Slave*)
 .text._ZSt22__uninitialized_copy_aISt13move_iteratorIPN7RoboCAN5SlaveEES3_S2_ET0_T_S6_S5_RSaIT1_E
                0x0000000008004998       0x22 Core/Src/main.o
                0x0000000008004998                RoboCAN::Slave* std::__uninitialized_copy_a<std::move_iterator<RoboCAN::Slave*>, RoboCAN::Slave*, RoboCAN::Slave>(std::move_iterator<RoboCAN::Slave*>, std::move_iterator<RoboCAN::Slave*>, RoboCAN::Slave*, std::allocator<RoboCAN::Slave>&)
 .text._ZN9__gnu_cxx13new_allocatorIN7RoboCAN5SlaveEE7destroyIS2_EEvPT_
                0x00000000080049ba       0x18 Core/Src/main.o
                0x00000000080049ba                void __gnu_cxx::new_allocator<RoboCAN::Slave>::destroy<RoboCAN::Slave>(RoboCAN::Slave*)
 .text._ZNKSt9_Any_data9_M_accessIPFvRN7RoboCAN7MessageEEEERKT_v
                0x00000000080049d2       0x18 Core/Src/main.o
                0x00000000080049d2                void (* const&std::_Any_data::_M_access<void (*)(RoboCAN::Message&)>() const)(RoboCAN::Message&)
 .text._ZSt11__addressofIKPFvRN7RoboCAN7MessageEEEPT_RS6_
                0x00000000080049ea       0x14 Core/Src/main.o
                0x00000000080049ea                void (* const*std::__addressof<void (* const)(RoboCAN::Message&)>(void (* const&)(RoboCAN::Message&)))(RoboCAN::Message&)
 .text._ZNSt9_Any_data9_M_accessIPFvRN7RoboCAN7MessageEEEERT_v
                0x00000000080049fe       0x18 Core/Src/main.o
                0x00000000080049fe                void (*&std::_Any_data::_M_access<void (*)(RoboCAN::Message&)>())(RoboCAN::Message&)
 .text._ZSt4copyIN9__gnu_cxx17__normal_iteratorIPKhSt6vectorIhSaIhEEEEPhET0_T_SA_S9_
                0x0000000008004a16       0x30 Core/Src/main.o
                0x0000000008004a16                unsigned char* std::copy<__gnu_cxx::__normal_iterator<unsigned char const*, std::vector<unsigned char, std::allocator<unsigned char> > >, unsigned char*>(__gnu_cxx::__normal_iterator<unsigned char const*, std::vector<unsigned char, std::allocator<unsigned char> > >, __gnu_cxx::__normal_iterator<unsigned char const*, std::vector<unsigned char, std::allocator<unsigned char> > >, unsigned char*)
 .text._ZNKSt6vectorISt8functionIFvRN7RoboCAN7MessageEEESaIS5_EE8max_sizeEv
                0x0000000008004a46       0x22 Core/Src/main.o
                0x0000000008004a46                std::vector<std::function<void (RoboCAN::Message&)>, std::allocator<std::function<void (RoboCAN::Message&)> > >::max_size() const
 .text._ZNSt6vectorISt8functionIFvRN7RoboCAN7MessageEEESaIS5_EE14_S_do_relocateEPS5_S8_S8_RS6_St17integral_constantIbLb1EE
                0x0000000008004a68       0x24 Core/Src/main.o
                0x0000000008004a68                std::vector<std::function<void (RoboCAN::Message&)>, std::allocator<std::function<void (RoboCAN::Message&)> > >::_S_do_relocate(std::function<void (RoboCAN::Message&)>*, std::function<void (RoboCAN::Message&)>*, std::function<void (RoboCAN::Message&)>*, std::allocator<std::function<void (RoboCAN::Message&)> >&, std::integral_constant<bool, true>)
 .text._ZSt32__make_move_if_noexcept_iteratorISt8functionIFvRN7RoboCAN7MessageEEESt13move_iteratorIPS5_EET0_PT_
                0x0000000008004a8c       0x1e Core/Src/main.o
                0x0000000008004a8c                std::move_iterator<std::function<void (RoboCAN::Message&)>*> std::__make_move_if_noexcept_iterator<std::function<void (RoboCAN::Message&)>, std::move_iterator<std::function<void (RoboCAN::Message&)>*> >(std::function<void (RoboCAN::Message&)>*)
 .text._ZSt22__uninitialized_copy_aISt13move_iteratorIPSt8functionIFvRN7RoboCAN7MessageEEEES7_S6_ET0_T_SA_S9_RSaIT1_E
                0x0000000008004aaa       0x22 Core/Src/main.o
                0x0000000008004aaa                std::function<void (RoboCAN::Message&)>* std::__uninitialized_copy_a<std::move_iterator<std::function<void (RoboCAN::Message&)>*>, std::function<void (RoboCAN::Message&)>*, std::function<void (RoboCAN::Message&)> >(std::move_iterator<std::function<void (RoboCAN::Message&)>*>, std::move_iterator<std::function<void (RoboCAN::Message&)>*>, std::function<void (RoboCAN::Message&)>*, std::allocator<std::function<void (RoboCAN::Message&)> >&)
 .text._ZN9__gnu_cxx13new_allocatorISt8functionIFvRN7RoboCAN7MessageEEEE7destroyIS6_EEvPT_
                0x0000000008004acc       0x18 Core/Src/main.o
                0x0000000008004acc                void __gnu_cxx::new_allocator<std::function<void (RoboCAN::Message&)> >::destroy<std::function<void (RoboCAN::Message&)> >(std::function<void (RoboCAN::Message&)>*)
 .text._ZNSt6vectorIN7RoboCAN5SlaveESaIS1_EE11_S_max_sizeERKS2_
                0x0000000008004ae4       0x34 Core/Src/main.o
                0x0000000008004ae4                std::vector<RoboCAN::Slave, std::allocator<RoboCAN::Slave> >::_S_max_size(std::allocator<RoboCAN::Slave> const&)
 .text._ZNKSt12_Vector_baseIN7RoboCAN5SlaveESaIS1_EE19_M_get_Tp_allocatorEv
                0x0000000008004b18       0x14 Core/Src/main.o
                0x0000000008004b18                std::_Vector_base<RoboCAN::Slave, std::allocator<RoboCAN::Slave> >::_M_get_Tp_allocator() const
 .text._ZN9__gnu_cxx13new_allocatorIN7RoboCAN5SlaveEE8allocateEjPKv
                0x0000000008004b2c       0x3c Core/Src/main.o
                0x0000000008004b2c                __gnu_cxx::new_allocator<RoboCAN::Slave>::allocate(unsigned int, void const*)
 .text._ZSt12__relocate_aIPN7RoboCAN5SlaveES2_SaIS1_EET0_T_S5_S4_RT1_
                0x0000000008004b68       0x3a Core/Src/main.o
                0x0000000008004b68                RoboCAN::Slave* std::__relocate_a<RoboCAN::Slave*, RoboCAN::Slave*, std::allocator<RoboCAN::Slave> >(RoboCAN::Slave*, RoboCAN::Slave*, RoboCAN::Slave*, std::allocator<RoboCAN::Slave>&)
 .text._ZNSt13move_iteratorIPN7RoboCAN5SlaveEEC2ES2_
                0x0000000008004ba2       0x1c Core/Src/main.o
                0x0000000008004ba2                std::move_iterator<RoboCAN::Slave*>::move_iterator(RoboCAN::Slave*)
                0x0000000008004ba2                std::move_iterator<RoboCAN::Slave*>::move_iterator(RoboCAN::Slave*)
 .text._ZSt18uninitialized_copyISt13move_iteratorIPN7RoboCAN5SlaveEES3_ET0_T_S6_S5_
                0x0000000008004bbe       0x24 Core/Src/main.o
                0x0000000008004bbe                RoboCAN::Slave* std::uninitialized_copy<std::move_iterator<RoboCAN::Slave*>, RoboCAN::Slave*>(std::move_iterator<RoboCAN::Slave*>, std::move_iterator<RoboCAN::Slave*>, RoboCAN::Slave*)
 .text._ZSt12__miter_baseIN9__gnu_cxx17__normal_iteratorIPKhSt6vectorIhSaIhEEEEET_S8_
                0x0000000008004be2       0x14 Core/Src/main.o
                0x0000000008004be2                __gnu_cxx::__normal_iterator<unsigned char const*, std::vector<unsigned char, std::allocator<unsigned char> > > std::__miter_base<__gnu_cxx::__normal_iterator<unsigned char const*, std::vector<unsigned char, std::allocator<unsigned char> > > >(__gnu_cxx::__normal_iterator<unsigned char const*, std::vector<unsigned char, std::allocator<unsigned char> > >)
 .text._ZSt14__copy_move_a2ILb0EN9__gnu_cxx17__normal_iteratorIPKhSt6vectorIhSaIhEEEEPhET1_T0_SA_S9_
                0x0000000008004bf6       0x46 Core/Src/main.o
                0x0000000008004bf6                unsigned char* std::__copy_move_a2<false, __gnu_cxx::__normal_iterator<unsigned char const*, std::vector<unsigned char, std::allocator<unsigned char> > >, unsigned char*>(__gnu_cxx::__normal_iterator<unsigned char const*, std::vector<unsigned char, std::allocator<unsigned char> > >, __gnu_cxx::__normal_iterator<unsigned char const*, std::vector<unsigned char, std::allocator<unsigned char> > >, unsigned char*)
 .text._ZNSt6vectorISt8functionIFvRN7RoboCAN7MessageEEESaIS5_EE11_S_max_sizeERKS6_
                0x0000000008004c3c       0x34 Core/Src/main.o
                0x0000000008004c3c                std::vector<std::function<void (RoboCAN::Message&)>, std::allocator<std::function<void (RoboCAN::Message&)> > >::_S_max_size(std::allocator<std::function<void (RoboCAN::Message&)> > const&)
 .text._ZSt12__relocate_aIPSt8functionIFvRN7RoboCAN7MessageEEES6_SaIS5_EET0_T_S9_S8_RT1_
                0x0000000008004c70       0x3a Core/Src/main.o
                0x0000000008004c70                std::function<void (RoboCAN::Message&)>* std::__relocate_a<std::function<void (RoboCAN::Message&)>*, std::function<void (RoboCAN::Message&)>*, std::allocator<std::function<void (RoboCAN::Message&)> > >(std::function<void (RoboCAN::Message&)>*, std::function<void (RoboCAN::Message&)>*, std::function<void (RoboCAN::Message&)>*, std::allocator<std::function<void (RoboCAN::Message&)> >&)
 .text._ZNSt13move_iteratorIPSt8functionIFvRN7RoboCAN7MessageEEEEC2ES6_
                0x0000000008004caa       0x1c Core/Src/main.o
                0x0000000008004caa                std::move_iterator<std::function<void (RoboCAN::Message&)>*>::move_iterator(std::function<void (RoboCAN::Message&)>*)
                0x0000000008004caa                std::move_iterator<std::function<void (RoboCAN::Message&)>*>::move_iterator(std::function<void (RoboCAN::Message&)>*)
 .text._ZSt18uninitialized_copyISt13move_iteratorIPSt8functionIFvRN7RoboCAN7MessageEEEES7_ET0_T_SA_S9_
                0x0000000008004cc6       0x24 Core/Src/main.o
                0x0000000008004cc6                std::function<void (RoboCAN::Message&)>* std::uninitialized_copy<std::move_iterator<std::function<void (RoboCAN::Message&)>*>, std::function<void (RoboCAN::Message&)>*>(std::move_iterator<std::function<void (RoboCAN::Message&)>*>, std::move_iterator<std::function<void (RoboCAN::Message&)>*>, std::function<void (RoboCAN::Message&)>*)
 .text._ZNSt16allocator_traitsISaIN7RoboCAN5SlaveEEE8max_sizeERKS2_
                0x0000000008004cea       0x18 Core/Src/main.o
                0x0000000008004cea                std::allocator_traits<std::allocator<RoboCAN::Slave> >::max_size(std::allocator<RoboCAN::Slave> const&)
 .text._ZNK9__gnu_cxx13new_allocatorIN7RoboCAN5SlaveEE8max_sizeEv
                0x0000000008004d02       0x16 Core/Src/main.o
                0x0000000008004d02                __gnu_cxx::new_allocator<RoboCAN::Slave>::max_size() const
 .text._ZSt12__niter_baseIPN7RoboCAN5SlaveEET_S3_
                0x0000000008004d18       0x14 Core/Src/main.o
                0x0000000008004d18                RoboCAN::Slave* std::__niter_base<RoboCAN::Slave*>(RoboCAN::Slave*)
 .text._ZSt14__relocate_a_1IPN7RoboCAN5SlaveES2_SaIS1_EET0_T_S5_S4_RT1_
                0x0000000008004d2c       0x4c Core/Src/main.o
                0x0000000008004d2c                RoboCAN::Slave* std::__relocate_a_1<RoboCAN::Slave*, RoboCAN::Slave*, std::allocator<RoboCAN::Slave> >(RoboCAN::Slave*, RoboCAN::Slave*, RoboCAN::Slave*, std::allocator<RoboCAN::Slave>&)
 .text._ZNSt20__uninitialized_copyILb0EE13__uninit_copyISt13move_iteratorIPN7RoboCAN5SlaveEES5_EET0_T_S8_S7_
                0x0000000008004d78       0x5e Core/Src/main.o
                0x0000000008004d78                RoboCAN::Slave* std::__uninitialized_copy<false>::__uninit_copy<std::move_iterator<RoboCAN::Slave*>, RoboCAN::Slave*>(std::move_iterator<RoboCAN::Slave*>, std::move_iterator<RoboCAN::Slave*>, RoboCAN::Slave*)
 .text._ZSt12__niter_baseIPKhSt6vectorIhSaIhEEET_N9__gnu_cxx17__normal_iteratorIS5_T0_EE
                0x0000000008004dd6       0x1c Core/Src/main.o
                0x0000000008004dd6                unsigned char const* std::__niter_base<unsigned char const*, std::vector<unsigned char, std::allocator<unsigned char> > >(__gnu_cxx::__normal_iterator<unsigned char const*, std::vector<unsigned char, std::allocator<unsigned char> > >)
 .text._ZSt13__copy_move_aILb0EPKhPhET1_T0_S4_S3_
                0x0000000008004df2       0x24 Core/Src/main.o
                0x0000000008004df2                unsigned char* std::__copy_move_a<false, unsigned char const*, unsigned char*>(unsigned char const*, unsigned char const*, unsigned char*)
 .text._ZNSt16allocator_traitsISaISt8functionIFvRN7RoboCAN7MessageEEEEE8max_sizeERKS6_
                0x0000000008004e16       0x18 Core/Src/main.o
                0x0000000008004e16                std::allocator_traits<std::allocator<std::function<void (RoboCAN::Message&)> > >::max_size(std::allocator<std::function<void (RoboCAN::Message&)> > const&)
 .text._ZSt12__niter_baseIPSt8functionIFvRN7RoboCAN7MessageEEEET_S7_
                0x0000000008004e2e       0x14 Core/Src/main.o
                0x0000000008004e2e                std::function<void (RoboCAN::Message&)>* std::__niter_base<std::function<void (RoboCAN::Message&)>*>(std::function<void (RoboCAN::Message&)>*)
 .text._ZSt14__relocate_a_1IPSt8functionIFvRN7RoboCAN7MessageEEES6_SaIS5_EET0_T_S9_S8_RT1_
                0x0000000008004e42       0x4c Core/Src/main.o
                0x0000000008004e42                std::function<void (RoboCAN::Message&)>* std::__relocate_a_1<std::function<void (RoboCAN::Message&)>*, std::function<void (RoboCAN::Message&)>*, std::allocator<std::function<void (RoboCAN::Message&)> > >(std::function<void (RoboCAN::Message&)>*, std::function<void (RoboCAN::Message&)>*, std::function<void (RoboCAN::Message&)>*, std::allocator<std::function<void (RoboCAN::Message&)> >&)
 .text._ZNSt20__uninitialized_copyILb0EE13__uninit_copyISt13move_iteratorIPSt8functionIFvRN7RoboCAN7MessageEEEES9_EET0_T_SC_SB_
                0x0000000008004e8e       0x5e Core/Src/main.o
                0x0000000008004e8e                std::function<void (RoboCAN::Message&)>* std::__uninitialized_copy<false>::__uninit_copy<std::move_iterator<std::function<void (RoboCAN::Message&)>*>, std::function<void (RoboCAN::Message&)>*>(std::move_iterator<std::function<void (RoboCAN::Message&)>*>, std::move_iterator<std::function<void (RoboCAN::Message&)>*>, std::function<void (RoboCAN::Message&)>*)
 .text._ZSt19__relocate_object_aIN7RoboCAN5SlaveES1_SaIS1_EEvPT_PT0_RT1_
                0x0000000008004eec       0x36 Core/Src/main.o
                0x0000000008004eec                void std::__relocate_object_a<RoboCAN::Slave, RoboCAN::Slave, std::allocator<RoboCAN::Slave> >(RoboCAN::Slave*, RoboCAN::Slave*, std::allocator<RoboCAN::Slave>&)
 .text._ZStneIPN7RoboCAN5SlaveEEbRKSt13move_iteratorIT_ES7_
                0x0000000008004f22       0x22 Core/Src/main.o
                0x0000000008004f22                bool std::operator!=<RoboCAN::Slave*>(std::move_iterator<RoboCAN::Slave*> const&, std::move_iterator<RoboCAN::Slave*> const&)
 .text._ZNSt13move_iteratorIPN7RoboCAN5SlaveEEppEv
                0x0000000008004f44       0x20 Core/Src/main.o
                0x0000000008004f44                std::move_iterator<RoboCAN::Slave*>::operator++()
 .text._ZNKSt13move_iteratorIPN7RoboCAN5SlaveEEdeEv
                0x0000000008004f64       0x16 Core/Src/main.o
                0x0000000008004f64                std::move_iterator<RoboCAN::Slave*>::operator*() const
 .text._ZNSt12_Vector_baseISt8functionIFvRN7RoboCAN7MessageEEESaIS5_EEC2EOS7_
                0x0000000008004f7a       0x20 Core/Src/main.o
                0x0000000008004f7a                std::_Vector_base<std::function<void (RoboCAN::Message&)>, std::allocator<std::function<void (RoboCAN::Message&)> > >::_Vector_base(std::_Vector_base<std::function<void (RoboCAN::Message&)>, std::allocator<std::function<void (RoboCAN::Message&)> > >&&)
                0x0000000008004f7a                std::_Vector_base<std::function<void (RoboCAN::Message&)>, std::allocator<std::function<void (RoboCAN::Message&)> > >::_Vector_base(std::_Vector_base<std::function<void (RoboCAN::Message&)>, std::allocator<std::function<void (RoboCAN::Message&)> > >&&)
 .text._ZNSt6vectorISt8functionIFvRN7RoboCAN7MessageEEESaIS5_EEC2EOS7_
                0x0000000008004f9a       0x20 Core/Src/main.o
                0x0000000008004f9a                std::vector<std::function<void (RoboCAN::Message&)>, std::allocator<std::function<void (RoboCAN::Message&)> > >::vector(std::vector<std::function<void (RoboCAN::Message&)>, std::allocator<std::function<void (RoboCAN::Message&)> > >&&)
                0x0000000008004f9a                std::vector<std::function<void (RoboCAN::Message&)>, std::allocator<std::function<void (RoboCAN::Message&)> > >::vector(std::vector<std::function<void (RoboCAN::Message&)>, std::allocator<std::function<void (RoboCAN::Message&)> > >&&)
 .text._ZN7RoboCAN5SlaveC2EOS0_
                0x0000000008004fba       0x28 Core/Src/main.o
                0x0000000008004fba                RoboCAN::Slave::Slave(RoboCAN::Slave&&)
                0x0000000008004fba                RoboCAN::Slave::Slave(RoboCAN::Slave&&)
 .text._ZSt10_ConstructIN7RoboCAN5SlaveEJS1_EEvPT_DpOT0_
                0x0000000008004fe2       0x2e Core/Src/main.o
                0x0000000008004fe2                void std::_Construct<RoboCAN::Slave, RoboCAN::Slave>(RoboCAN::Slave*, RoboCAN::Slave&&)
 .text._ZNK9__gnu_cxx17__normal_iteratorIPKhSt6vectorIhSaIhEEE4baseEv
                0x0000000008005010       0x14 Core/Src/main.o
                0x0000000008005010                __gnu_cxx::__normal_iterator<unsigned char const*, std::vector<unsigned char, std::allocator<unsigned char> > >::base() const
 .text._ZSt19__relocate_object_aISt8functionIFvRN7RoboCAN7MessageEEES5_SaIS5_EEvPT_PT0_RT1_
                0x0000000008005024       0x36 Core/Src/main.o
                0x0000000008005024                void std::__relocate_object_a<std::function<void (RoboCAN::Message&)>, std::function<void (RoboCAN::Message&)>, std::allocator<std::function<void (RoboCAN::Message&)> > >(std::function<void (RoboCAN::Message&)>*, std::function<void (RoboCAN::Message&)>*, std::allocator<std::function<void (RoboCAN::Message&)> >&)
 .text._ZStneIPSt8functionIFvRN7RoboCAN7MessageEEEEbRKSt13move_iteratorIT_ESB_
                0x000000000800505a       0x22 Core/Src/main.o
                0x000000000800505a                bool std::operator!=<std::function<void (RoboCAN::Message&)>*>(std::move_iterator<std::function<void (RoboCAN::Message&)>*> const&, std::move_iterator<std::function<void (RoboCAN::Message&)>*> const&)
 .text._ZNSt13move_iteratorIPSt8functionIFvRN7RoboCAN7MessageEEEEppEv
                0x000000000800507c       0x20 Core/Src/main.o
                0x000000000800507c                std::move_iterator<std::function<void (RoboCAN::Message&)>*>::operator++()
 .text._ZNKSt13move_iteratorIPSt8functionIFvRN7RoboCAN7MessageEEEEdeEv
                0x000000000800509c       0x16 Core/Src/main.o
                0x000000000800509c                std::move_iterator<std::function<void (RoboCAN::Message&)>*>::operator*() const
 .text._ZSt10_ConstructISt8functionIFvRN7RoboCAN7MessageEEEJS5_EEvPT_DpOT0_
                0x00000000080050b2       0x2e Core/Src/main.o
                0x00000000080050b2                void std::_Construct<std::function<void (RoboCAN::Message&)>, std::function<void (RoboCAN::Message&)> >(std::function<void (RoboCAN::Message&)>*, std::function<void (RoboCAN::Message&)>&&)
 .text._ZSt4moveIRN7RoboCAN5SlaveEEONSt16remove_referenceIT_E4typeEOS4_
                0x00000000080050e0       0x14 Core/Src/main.o
                0x00000000080050e0                std::remove_reference<RoboCAN::Slave&>::type&& std::move<RoboCAN::Slave&>(RoboCAN::Slave&)
 .text._ZNSt16allocator_traitsISaIN7RoboCAN5SlaveEEE9constructIS1_JS1_EEEvRS2_PT_DpOT0_
                0x00000000080050f4       0x26 Core/Src/main.o
                0x00000000080050f4                void std::allocator_traits<std::allocator<RoboCAN::Slave> >::construct<RoboCAN::Slave, RoboCAN::Slave>(std::allocator<RoboCAN::Slave>&, RoboCAN::Slave*, RoboCAN::Slave&&)
 .text._ZSteqIPN7RoboCAN5SlaveEEbRKSt13move_iteratorIT_ES7_
                0x000000000800511a       0x2c Core/Src/main.o
                0x000000000800511a                bool std::operator==<RoboCAN::Slave*>(std::move_iterator<RoboCAN::Slave*> const&, std::move_iterator<RoboCAN::Slave*> const&)
 .text._ZSt7forwardIN7RoboCAN5SlaveEEOT_RNSt16remove_referenceIS2_E4typeE
                0x0000000008005146       0x14 Core/Src/main.o
                0x0000000008005146                RoboCAN::Slave&& std::forward<RoboCAN::Slave>(std::remove_reference<RoboCAN::Slave>::type&)
 .text._ZNSt12_Vector_baseISt8functionIFvRN7RoboCAN7MessageEEESaIS5_EE12_Vector_implC2EOS8_
                0x000000000800515a       0x36 Core/Src/main.o
                0x000000000800515a                std::_Vector_base<std::function<void (RoboCAN::Message&)>, std::allocator<std::function<void (RoboCAN::Message&)> > >::_Vector_impl::_Vector_impl(std::_Vector_base<std::function<void (RoboCAN::Message&)>, std::allocator<std::function<void (RoboCAN::Message&)> > >::_Vector_impl&&)
                0x000000000800515a                std::_Vector_base<std::function<void (RoboCAN::Message&)>, std::allocator<std::function<void (RoboCAN::Message&)> > >::_Vector_impl::_Vector_impl(std::_Vector_base<std::function<void (RoboCAN::Message&)>, std::allocator<std::function<void (RoboCAN::Message&)> > >::_Vector_impl&&)
 .text._ZSteqIPSt8functionIFvRN7RoboCAN7MessageEEEEbRKSt13move_iteratorIT_ESB_
                0x0000000008005190       0x2c Core/Src/main.o
                0x0000000008005190                bool std::operator==<std::function<void (RoboCAN::Message&)>*>(std::move_iterator<std::function<void (RoboCAN::Message&)>*> const&, std::move_iterator<std::function<void (RoboCAN::Message&)>*> const&)
 .text._ZN9__gnu_cxx13new_allocatorIN7RoboCAN5SlaveEE9constructIS2_JS2_EEEvPT_DpOT0_
                0x00000000080051bc       0x30 Core/Src/main.o
                0x00000000080051bc                void __gnu_cxx::new_allocator<RoboCAN::Slave>::construct<RoboCAN::Slave, RoboCAN::Slave>(RoboCAN::Slave*, RoboCAN::Slave&&)
 .text._ZNKSt13move_iteratorIPN7RoboCAN5SlaveEE4baseEv
                0x00000000080051ec       0x16 Core/Src/main.o
                0x00000000080051ec                std::move_iterator<RoboCAN::Slave*>::base() const
 .text._ZSt4moveIRNSt12_Vector_baseISt8functionIFvRN7RoboCAN7MessageEEESaIS6_EE12_Vector_implEEONSt16remove_referenceIT_E4typeEOSC_
                0x0000000008005202       0x14 Core/Src/main.o
                0x0000000008005202                std::remove_reference<std::_Vector_base<std::function<void (RoboCAN::Message&)>, std::allocator<std::function<void (RoboCAN::Message&)> > >::_Vector_impl&>::type&& std::move<std::_Vector_base<std::function<void (RoboCAN::Message&)>, std::allocator<std::function<void (RoboCAN::Message&)> > >::_Vector_impl&>(std::_Vector_base<std::function<void (RoboCAN::Message&)>, std::allocator<std::function<void (RoboCAN::Message&)> > >::_Vector_impl&)
 .text._ZNSt12_Vector_baseISt8functionIFvRN7RoboCAN7MessageEEESaIS5_EE17_Vector_impl_dataC2EOS8_
                0x0000000008005216       0x44 Core/Src/main.o
                0x0000000008005216                std::_Vector_base<std::function<void (RoboCAN::Message&)>, std::allocator<std::function<void (RoboCAN::Message&)> > >::_Vector_impl_data::_Vector_impl_data(std::_Vector_base<std::function<void (RoboCAN::Message&)>, std::allocator<std::function<void (RoboCAN::Message&)> > >::_Vector_impl_data&&)
                0x0000000008005216                std::_Vector_base<std::function<void (RoboCAN::Message&)>, std::allocator<std::function<void (RoboCAN::Message&)> > >::_Vector_impl_data::_Vector_impl_data(std::_Vector_base<std::function<void (RoboCAN::Message&)>, std::allocator<std::function<void (RoboCAN::Message&)> > >::_Vector_impl_data&&)
 .text._ZNKSt13move_iteratorIPSt8functionIFvRN7RoboCAN7MessageEEEE4baseEv
                0x000000000800525a       0x16 Core/Src/main.o
                0x000000000800525a                std::move_iterator<std::function<void (RoboCAN::Message&)>*>::base() const
 .text.NMI_Handler
                0x0000000008005270        0x6 Core/Src/stm32f1xx_it.o
                0x0000000008005270                NMI_Handler
 .text.HardFault_Handler
                0x0000000008005276        0x6 Core/Src/stm32f1xx_it.o
                0x0000000008005276                HardFault_Handler
 .text.MemManage_Handler
                0x000000000800527c        0x6 Core/Src/stm32f1xx_it.o
                0x000000000800527c                MemManage_Handler
 .text.BusFault_Handler
                0x0000000008005282        0x6 Core/Src/stm32f1xx_it.o
                0x0000000008005282                BusFault_Handler
 .text.UsageFault_Handler
                0x0000000008005288        0x6 Core/Src/stm32f1xx_it.o
                0x0000000008005288                UsageFault_Handler
 .text.SVC_Handler
                0x000000000800528e        0xc Core/Src/stm32f1xx_it.o
                0x000000000800528e                SVC_Handler
 .text.DebugMon_Handler
                0x000000000800529a        0xc Core/Src/stm32f1xx_it.o
                0x000000000800529a                DebugMon_Handler
 .text.PendSV_Handler
                0x00000000080052a6        0xc Core/Src/stm32f1xx_it.o
                0x00000000080052a6                PendSV_Handler
 .text.SysTick_Handler
                0x00000000080052b2        0xc Core/Src/stm32f1xx_it.o
                0x00000000080052b2                SysTick_Handler
 .text._getpid  0x00000000080052be        0xe Core/Src/syscalls.o
                0x00000000080052be                _getpid
 .text._kill    0x00000000080052cc       0x20 Core/Src/syscalls.o
                0x00000000080052cc                _kill
 .text._exit    0x00000000080052ec       0x14 Core/Src/syscalls.o
                0x00000000080052ec                _exit
 .text._sbrk    0x0000000008005300       0x6c Core/Src/sysmem.o
                0x0000000008005300                _sbrk
 .text.SystemInit
                0x000000000800536c        0xc Core/Src/system_stm32f1xx.o
                0x000000000800536c                SystemInit
 .text.LL_APB1_GRP1_EnableClock
                0x0000000008005378       0x30 Core/Src/usart.o
 .text.LL_APB2_GRP1_EnableClock
                0x00000000080053a8       0x30 Core/Src/usart.o
 .text.LL_USART_Enable
                0x00000000080053d8       0x1e Core/Src/usart.o
 .text.LL_USART_ConfigAsyncMode
                0x00000000080053f6       0x2a Core/Src/usart.o
 .text.MX_USART2_UART_Init
                0x0000000008005420       0xac Core/Src/usart.o
                0x0000000008005420                MX_USART2_UART_Init
 .text.Reset_Handler
                0x00000000080054cc       0x48 Core/Startup/startup_stm32f103rbtx.o
                0x00000000080054cc                Reset_Handler
 .text.Default_Handler
                0x0000000008005514        0x2 Core/Startup/startup_stm32f103rbtx.o
                0x0000000008005514                RTC_Alarm_IRQHandler
                0x0000000008005514                EXTI2_IRQHandler
                0x0000000008005514                TIM1_CC_IRQHandler
                0x0000000008005514                PVD_IRQHandler
                0x0000000008005514                EXTI3_IRQHandler
                0x0000000008005514                EXTI0_IRQHandler
                0x0000000008005514                I2C2_EV_IRQHandler
                0x0000000008005514                ADC1_2_IRQHandler
                0x0000000008005514                SPI1_IRQHandler
                0x0000000008005514                TAMPER_IRQHandler
                0x0000000008005514                DMA1_Channel4_IRQHandler
                0x0000000008005514                USART3_IRQHandler
                0x0000000008005514                RTC_IRQHandler
                0x0000000008005514                DMA1_Channel7_IRQHandler
                0x0000000008005514                TIM4_IRQHandler
                0x0000000008005514                I2C1_EV_IRQHandler
                0x0000000008005514                DMA1_Channel6_IRQHandler
                0x0000000008005514                TIM3_IRQHandler
                0x0000000008005514                RCC_IRQHandler
                0x0000000008005514                TIM1_TRG_COM_IRQHandler
                0x0000000008005514                DMA1_Channel1_IRQHandler
                0x0000000008005514                Default_Handler
                0x0000000008005514                EXTI15_10_IRQHandler
                0x0000000008005514                EXTI9_5_IRQHandler
                0x0000000008005514                SPI2_IRQHandler
                0x0000000008005514                DMA1_Channel5_IRQHandler
                0x0000000008005514                EXTI4_IRQHandler
                0x0000000008005514                USB_HP_CAN1_TX_IRQHandler
                0x0000000008005514                DMA1_Channel3_IRQHandler
                0x0000000008005514                TIM1_UP_IRQHandler
                0x0000000008005514                WWDG_IRQHandler
                0x0000000008005514                TIM2_IRQHandler
                0x0000000008005514                TIM1_BRK_IRQHandler
                0x0000000008005514                EXTI1_IRQHandler
                0x0000000008005514                USART2_IRQHandler
                0x0000000008005514                I2C2_ER_IRQHandler
                0x0000000008005514                DMA1_Channel2_IRQHandler
                0x0000000008005514                CAN1_SCE_IRQHandler
                0x0000000008005514                FLASH_IRQHandler
                0x0000000008005514                USART1_IRQHandler
                0x0000000008005514                I2C1_ER_IRQHandler
                0x0000000008005514                USBWakeUp_IRQHandler
 *fill*         0x0000000008005516        0x2 
 .text.HAL_InitTick
                0x0000000008005518       0x60 Drivers/STM32F1xx_HAL_Driver/Src/stm32f1xx_hal.o
                0x0000000008005518                HAL_InitTick
 .text.HAL_IncTick
                0x0000000008005578       0x24 Drivers/STM32F1xx_HAL_Driver/Src/stm32f1xx_hal.o
                0x0000000008005578                HAL_IncTick
 .text.HAL_GetTick
                0x000000000800559c       0x14 Drivers/STM32F1xx_HAL_Driver/Src/stm32f1xx_hal.o
                0x000000000800559c                HAL_GetTick
 .text.HAL_CAN_Init
                0x00000000080055b0      0x1f6 Drivers/STM32F1xx_HAL_Driver/Src/stm32f1xx_hal_can.o
                0x00000000080055b0                HAL_CAN_Init
 .text.HAL_CAN_ConfigFilter
                0x00000000080057a6      0x192 Drivers/STM32F1xx_HAL_Driver/Src/stm32f1xx_hal_can.o
                0x00000000080057a6                HAL_CAN_ConfigFilter
 .text.HAL_CAN_Start
                0x0000000008005938       0x88 Drivers/STM32F1xx_HAL_Driver/Src/stm32f1xx_hal_can.o
                0x0000000008005938                HAL_CAN_Start
 .text.HAL_CAN_AddTxMessage
                0x00000000080059c0      0x1b4 Drivers/STM32F1xx_HAL_Driver/Src/stm32f1xx_hal_can.o
                0x00000000080059c0                HAL_CAN_AddTxMessage
 .text.HAL_CAN_GetTxMailboxesFreeLevel
                0x0000000008005b74       0x68 Drivers/STM32F1xx_HAL_Driver/Src/stm32f1xx_hal_can.o
                0x0000000008005b74                HAL_CAN_GetTxMailboxesFreeLevel
 .text.HAL_CAN_GetRxMessage
                0x0000000008005bdc      0x222 Drivers/STM32F1xx_HAL_Driver/Src/stm32f1xx_hal_can.o
                0x0000000008005bdc                HAL_CAN_GetRxMessage
 .text.HAL_CAN_ActivateNotification
                0x0000000008005dfe       0x4a Drivers/STM32F1xx_HAL_Driver/Src/stm32f1xx_hal_can.o
                0x0000000008005dfe                HAL_CAN_ActivateNotification
 .text.__NVIC_GetPriorityGrouping
                0x0000000008005e48       0x1c Drivers/STM32F1xx_HAL_Driver/Src/stm32f1xx_hal_cortex.o
 .text.__NVIC_EnableIRQ
                0x0000000008005e64       0x38 Drivers/STM32F1xx_HAL_Driver/Src/stm32f1xx_hal_cortex.o
 .text.__NVIC_SetPriority
                0x0000000008005e9c       0x54 Drivers/STM32F1xx_HAL_Driver/Src/stm32f1xx_hal_cortex.o
 .text.NVIC_EncodePriority
                0x0000000008005ef0       0x64 Drivers/STM32F1xx_HAL_Driver/Src/stm32f1xx_hal_cortex.o
 .text.SysTick_Config
                0x0000000008005f54       0x44 Drivers/STM32F1xx_HAL_Driver/Src/stm32f1xx_hal_cortex.o
 .text.HAL_NVIC_SetPriority
                0x0000000008005f98       0x38 Drivers/STM32F1xx_HAL_Driver/Src/stm32f1xx_hal_cortex.o
                0x0000000008005f98                HAL_NVIC_SetPriority
 .text.HAL_NVIC_EnableIRQ
                0x0000000008005fd0       0x1c Drivers/STM32F1xx_HAL_Driver/Src/stm32f1xx_hal_cortex.o
                0x0000000008005fd0                HAL_NVIC_EnableIRQ
 .text.HAL_SYSTICK_Config
                0x0000000008005fec       0x18 Drivers/STM32F1xx_HAL_Driver/Src/stm32f1xx_hal_cortex.o
                0x0000000008005fec                HAL_SYSTICK_Config
 .text.HAL_GPIO_Init
                0x0000000008006004      0x308 Drivers/STM32F1xx_HAL_Driver/Src/stm32f1xx_hal_gpio.o
                0x0000000008006004                HAL_GPIO_Init
 .text.LL_GPIO_SetPinMode
                0x000000000800630c       0x64 Drivers/STM32F1xx_HAL_Driver/Src/stm32f1xx_ll_gpio.o
 .text.LL_GPIO_SetPinSpeed
                0x0000000008006370       0x64 Drivers/STM32F1xx_HAL_Driver/Src/stm32f1xx_ll_gpio.o
 .text.LL_GPIO_SetPinOutputType
                0x00000000080063d4       0x64 Drivers/STM32F1xx_HAL_Driver/Src/stm32f1xx_ll_gpio.o
 .text.LL_GPIO_SetPinPull
                0x0000000008006438       0x44 Drivers/STM32F1xx_HAL_Driver/Src/stm32f1xx_ll_gpio.o
 .text.LL_GPIO_Init
                0x000000000800647c       0xc4 Drivers/STM32F1xx_HAL_Driver/Src/stm32f1xx_ll_gpio.o
                0x000000000800647c                LL_GPIO_Init
 .text.LL_RCC_GetSysClkSource
                0x0000000008006540       0x18 Drivers/STM32F1xx_HAL_Driver/Src/stm32f1xx_ll_rcc.o
 .text.LL_RCC_GetAHBPrescaler
                0x0000000008006558       0x18 Drivers/STM32F1xx_HAL_Driver/Src/stm32f1xx_ll_rcc.o
 .text.LL_RCC_GetAPB1Prescaler
                0x0000000008006570       0x18 Drivers/STM32F1xx_HAL_Driver/Src/stm32f1xx_ll_rcc.o
 .text.LL_RCC_GetAPB2Prescaler
                0x0000000008006588       0x18 Drivers/STM32F1xx_HAL_Driver/Src/stm32f1xx_ll_rcc.o
 .text.LL_RCC_PLL_GetMainSource
                0x00000000080065a0       0x18 Drivers/STM32F1xx_HAL_Driver/Src/stm32f1xx_ll_rcc.o
 .text.LL_RCC_PLL_GetMultiplicator
                0x00000000080065b8       0x18 Drivers/STM32F1xx_HAL_Driver/Src/stm32f1xx_ll_rcc.o
 .text.LL_RCC_PLL_GetPrediv
                0x00000000080065d0       0x1c Drivers/STM32F1xx_HAL_Driver/Src/stm32f1xx_ll_rcc.o
 .text.LL_RCC_GetSystemClocksFreq
                0x00000000080065ec       0x4a Drivers/STM32F1xx_HAL_Driver/Src/stm32f1xx_ll_rcc.o
                0x00000000080065ec                LL_RCC_GetSystemClocksFreq
 *fill*         0x0000000008006636        0x2 
 .text.RCC_GetSystemClockFreq
                0x0000000008006638       0x4c Drivers/STM32F1xx_HAL_Driver/Src/stm32f1xx_ll_rcc.o
                0x0000000008006638                RCC_GetSystemClockFreq
 .text.RCC_GetHCLKClockFreq
                0x0000000008006684       0x2c Drivers/STM32F1xx_HAL_Driver/Src/stm32f1xx_ll_rcc.o
                0x0000000008006684                RCC_GetHCLKClockFreq
 .text.RCC_GetPCLK1ClockFreq
                0x00000000080066b0       0x28 Drivers/STM32F1xx_HAL_Driver/Src/stm32f1xx_ll_rcc.o
                0x00000000080066b0                RCC_GetPCLK1ClockFreq
 .text.RCC_GetPCLK2ClockFreq
                0x00000000080066d8       0x28 Drivers/STM32F1xx_HAL_Driver/Src/stm32f1xx_ll_rcc.o
                0x00000000080066d8                RCC_GetPCLK2ClockFreq
 .text.RCC_PLL_GetFreqDomain_SYS
                0x0000000008006700       0x64 Drivers/STM32F1xx_HAL_Driver/Src/stm32f1xx_ll_rcc.o
                0x0000000008006700                RCC_PLL_GetFreqDomain_SYS
 .text.LL_USART_IsEnabled
                0x0000000008006764       0x26 Drivers/STM32F1xx_HAL_Driver/Src/stm32f1xx_ll_usart.o
 .text.LL_USART_SetStopBitsLength
                0x000000000800678a       0x24 Drivers/STM32F1xx_HAL_Driver/Src/stm32f1xx_ll_usart.o
 .text.LL_USART_SetHWFlowCtrl
                0x00000000080067ae       0x24 Drivers/STM32F1xx_HAL_Driver/Src/stm32f1xx_ll_usart.o
 *fill*         0x00000000080067d2        0x2 
 .text.LL_USART_SetBaudRate
                0x00000000080067d4       0xbc Drivers/STM32F1xx_HAL_Driver/Src/stm32f1xx_ll_usart.o
 .text.LL_USART_Init
                0x0000000008006890       0xc0 Drivers/STM32F1xx_HAL_Driver/Src/stm32f1xx_ll_usart.o
                0x0000000008006890                LL_USART_Init
 .text.LL_SetSystemCoreClock
                0x0000000008006950       0x1c Drivers/STM32F1xx_HAL_Driver/Src/stm32f1xx_ll_utils.o
                0x0000000008006950                LL_SetSystemCoreClock
 .text._ZdlPv   0x000000000800696c        0x4 c:/st/stm32cubeide_1.5.1/stm32cubeide/plugins/com.st.stm32cube.ide.mcu.externaltools.gnu-tools-for-stm32.9-2020-q2-update.win32_1.5.0.202011040924/tools/bin/../lib/gcc/arm-none-eabi/9.3.1/../../../../arm-none-eabi/lib/thumb/v7-m/nofp\libstdc++_nano.a(del_op.o)
                0x000000000800696c                operator delete(void*)
 .text._Znwj    0x0000000008006970       0x22 c:/st/stm32cubeide_1.5.1/stm32cubeide/plugins/com.st.stm32cube.ide.mcu.externaltools.gnu-tools-for-stm32.9-2020-q2-update.win32_1.5.0.202011040924/tools/bin/../lib/gcc/arm-none-eabi/9.3.1/../../../../arm-none-eabi/lib/thumb/v7-m/nofp\libstdc++_nano.a(new_op.o)
                0x0000000008006970                operator new(unsigned int)
 .text.unlikely._ZSt17__throw_bad_allocv
                0x0000000008006992        0x6 c:/st/stm32cubeide_1.5.1/stm32cubeide/plugins/com.st.stm32cube.ide.mcu.externaltools.gnu-tools-for-stm32.9-2020-q2-update.win32_1.5.0.202011040924/tools/bin/../lib/gcc/arm-none-eabi/9.3.1/../../../../arm-none-eabi/lib/thumb/v7-m/nofp\libstdc++_nano.a(functexcept.o)
                0x0000000008006992                std::__throw_bad_alloc()
 .text.unlikely._ZSt20__throw_length_errorPKc
                0x0000000008006998        0x6 c:/st/stm32cubeide_1.5.1/stm32cubeide/plugins/com.st.stm32cube.ide.mcu.externaltools.gnu-tools-for-stm32.9-2020-q2-update.win32_1.5.0.202011040924/tools/bin/../lib/gcc/arm-none-eabi/9.3.1/../../../../arm-none-eabi/lib/thumb/v7-m/nofp\libstdc++_nano.a(functexcept.o)
                0x0000000008006998                std::__throw_length_error(char const*)
 .text.unlikely._ZSt25__throw_bad_function_callv
                0x000000000800699e        0x6 c:/st/stm32cubeide_1.5.1/stm32cubeide/plugins/com.st.stm32cube.ide.mcu.externaltools.gnu-tools-for-stm32.9-2020-q2-update.win32_1.5.0.202011040924/tools/bin/../lib/gcc/arm-none-eabi/9.3.1/../../../../arm-none-eabi/lib/thumb/v7-m/nofp\libstdc++_nano.a(functional.o)
                0x000000000800699e                std::__throw_bad_function_call()
 .text._ZSt15get_new_handlerv
                0x00000000080069a4       0x10 c:/st/stm32cubeide_1.5.1/stm32cubeide/plugins/com.st.stm32cube.ide.mcu.externaltools.gnu-tools-for-stm32.9-2020-q2-update.win32_1.5.0.202011040924/tools/bin/../lib/gcc/arm-none-eabi/9.3.1/../../../../arm-none-eabi/lib/thumb/v7-m/nofp\libstdc++_nano.a(new_handler.o)
                0x00000000080069a4                std::get_new_handler()
 .text.abort    0x00000000080069b4        0xe c:/st/stm32cubeide_1.5.1/stm32cubeide/plugins/com.st.stm32cube.ide.mcu.externaltools.gnu-tools-for-stm32.9-2020-q2-update.win32_1.5.0.202011040924/tools/bin/../lib/gcc/arm-none-eabi/9.3.1/../../../../arm-none-eabi/lib/thumb/v7-m/nofp\libc_nano.a(lib_a-abort.o)
                0x00000000080069b4                abort
 *fill*         0x00000000080069c2        0x2 
 .text.__errno  0x00000000080069c4        0xc c:/st/stm32cubeide_1.5.1/stm32cubeide/plugins/com.st.stm32cube.ide.mcu.externaltools.gnu-tools-for-stm32.9-2020-q2-update.win32_1.5.0.202011040924/tools/bin/../lib/gcc/arm-none-eabi/9.3.1/../../../../arm-none-eabi/lib/thumb/v7-m/nofp\libc_nano.a(lib_a-errno.o)
                0x00000000080069c4                __errno
 .text.__libc_init_array
                0x00000000080069d0       0x48 c:/st/stm32cubeide_1.5.1/stm32cubeide/plugins/com.st.stm32cube.ide.mcu.externaltools.gnu-tools-for-stm32.9-2020-q2-update.win32_1.5.0.202011040924/tools/bin/../lib/gcc/arm-none-eabi/9.3.1/../../../../arm-none-eabi/lib/thumb/v7-m/nofp\libc_nano.a(lib_a-init.o)
                0x00000000080069d0                __libc_init_array
